{
  "address": "0xeD2d5EB3fbcDdF4e2e972F8C6CF37EffB7851d52",
  "abi": [
    {
      "inputs": [
        {
          "internalType": "address",
          "name": "_pool",
          "type": "address"
        },
        {
          "internalType": "uint32",
          "name": "_twapPeriod",
          "type": "uint32"
        }
      ],
      "name": "consult",
      "outputs": [
        {
          "internalType": "int24",
          "name": "timeWeightedAverageTick",
          "type": "int24"
        }
      ],
      "stateMutability": "view",
      "type": "function"
    },
    {
      "inputs": [
        {
          "internalType": "uint160",
          "name": "sqrtRatioX96",
          "type": "uint160"
        },
        {
          "internalType": "uint160",
          "name": "sqrtRatioAX96",
          "type": "uint160"
        },
        {
          "internalType": "uint160",
          "name": "sqrtRatioBX96",
          "type": "uint160"
        },
        {
          "internalType": "uint128",
          "name": "liquidity",
          "type": "uint128"
        }
      ],
      "name": "getAmountsForLiquidity",
      "outputs": [
        {
          "internalType": "uint256",
          "name": "amount0",
          "type": "uint256"
        },
        {
          "internalType": "uint256",
          "name": "amount1",
          "type": "uint256"
        }
      ],
      "stateMutability": "pure",
      "type": "function"
    },
    {
      "inputs": [
        {
          "internalType": "uint160",
          "name": "sqrtRatioX96",
          "type": "uint160"
        },
        {
          "internalType": "uint160",
          "name": "sqrtRatioAX96",
          "type": "uint160"
        },
        {
          "internalType": "uint160",
          "name": "sqrtRatioBX96",
          "type": "uint160"
        },
        {
          "internalType": "uint256",
          "name": "amount0",
          "type": "uint256"
        },
        {
          "internalType": "uint256",
          "name": "amount1",
          "type": "uint256"
        }
      ],
      "name": "getLiquidityForAmounts",
      "outputs": [
        {
          "internalType": "uint128",
          "name": "liquidity",
          "type": "uint128"
        }
      ],
      "stateMutability": "pure",
      "type": "function"
    },
    {
      "inputs": [
        {
          "internalType": "int24",
          "name": "tick",
          "type": "int24"
        },
        {
          "internalType": "uint128",
          "name": "baseAmount",
          "type": "uint128"
        },
        {
          "internalType": "address",
          "name": "baseToken",
          "type": "address"
        },
        {
          "internalType": "address",
          "name": "quoteToken",
          "type": "address"
        }
      ],
      "name": "getQuoteAtTick",
      "outputs": [
        {
          "internalType": "uint256",
          "name": "quoteAmount",
          "type": "uint256"
        }
      ],
      "stateMutability": "pure",
      "type": "function"
    },
    {
      "inputs": [
        {
          "internalType": "int24",
          "name": "currentTick",
          "type": "int24"
        }
      ],
      "name": "getSqrtRatioAtTick",
      "outputs": [
        {
          "internalType": "uint160",
          "name": "sqrtPriceX96",
          "type": "uint160"
        }
      ],
      "stateMutability": "pure",
      "type": "function"
    },
    {
      "inputs": [
        {
          "internalType": "uint256",
          "name": "y",
          "type": "uint256"
        }
      ],
      "name": "toUint128",
      "outputs": [
        {
          "internalType": "uint128",
          "name": "z",
          "type": "uint128"
        }
      ],
      "stateMutability": "pure",
      "type": "function"
    }
  ],
  "transactionHash": "0x3395baf5de7f29e36199d442cdaec5de475172c4a2ab897243eb56ea0c547399",
  "args": [],
  "numDeployments": 1,
  "solcInputHash": "202685d64c80c16845f01a2495a1aa69",
  "bytecode": "0x6113c561003a600b82828239805160001a60731461002d57634e487b7160e01b600052600060045260246000fd5b30600052607381538281f3fe730000000000000000000000000000000000000000301460806040526004361061006c5760003560e01c806343c57a27146100715780636098fd4a14610097578063809fdd33146100c257806382413489146100d5578063986cfba3146100fb578063c72e160b14610126575b600080fd5b61008461007f366004610e1a565b61014e565b6040519081526020015b60405180910390f35b6100aa6100a5366004610e72565b610165565b6040516001600160801b03909116815260200161008e565b6100aa6100d0366004610ecd565b61017e565b6100e86100e3366004610ee6565b6101d9565b60405160029190910b815260200161008e565b61010e610109366004610f28565b6101ed565b6040516001600160a01b03909116815260200161008e565b610139610134366004610f43565b6101fe565b6040805192835260208301919091520161008e565b600061015c8585858561021a565b95945050505050565b60006101748686868686610328565b9695505050505050565b806001600160801b03811681146101d45760405162461bcd60e51b81526020600482015260156024820152745361666555696e743132383a206f766572666c6f7760581b60448201526064015b60405180910390fd5b919050565b60006101e583836103e0565b509392505050565b60006101f882610630565b92915050565b60008061020d86868686610a52565b9097909650945050505050565b60008061022686610630565b90506001600160801b036001600160a01b038216116102ac5760006102546001600160a01b03831680610fb3565b9050836001600160a01b0316856001600160a01b03161061028c57610287600160c01b876001600160801b031683610aee565b6102a4565b6102a481876001600160801b0316600160c01b610aee565b92505061031f565b60006102cb6001600160a01b0383168068010000000000000000610aee565b9050836001600160a01b0316856001600160a01b031610610303576102fe600160801b876001600160801b031683610aee565b61031b565b61031b81876001600160801b0316600160801b610aee565b9250505b50949350505050565b6000836001600160a01b0316856001600160a01b03161115610348579293925b846001600160a01b0316866001600160a01b0316116103735761036c858585610c66565b905061015c565b836001600160a01b0316866001600160a01b031610156103d557600061039a878686610c66565b905060006103a9878986610cd0565b9050806001600160801b0316826001600160801b0316106103ca57806103cc565b815b9250505061015c565b610174858584610cd0565b6000808263ffffffff1660000361041e5760405162461bcd60e51b8152602060048201526002602482015261042560f41b60448201526064016101cb565b604080516002808252606082018352600092602083019080368337019050509050838160008151811061045357610453610fe8565b602002602001019063ffffffff16908163ffffffff168152505060008160018151811061048257610482610fe8565b602002602001019063ffffffff16908163ffffffff1681525050600080866001600160a01b031663883bdbfd846040518263ffffffff1660e01b81526004016104cb9190610ffe565b600060405180830381865afa1580156104e8573d6000803e3d6000fd5b505050506040513d6000823e601f3d908101601f191682016040526105109190810190611111565b9150915060008260008151811061052957610529610fe8565b60200260200101518360018151811061054457610544610fe8565b602002602001015161055691906111dd565b905060008260008151811061056d5761056d610fe8565b60200260200101518360018151811061058857610588610fe8565b602002602001015161059a919061122d565b90506105ac63ffffffff89168361126b565b965060008260060b1280156105d857506105cc63ffffffff891683611291565b66ffffffffffffff1615155b156105eb57866105e7816112b7565b9750505b60006106046001600160a01b0363ffffffff8b166112da565b9050610621640100000000600160c01b03602084901b1682611309565b96505050505050509250929050565b60008060008360020b12610647578260020b610654565b8260020b61065490611323565b9050610663620d89e71961133f565b62ffffff1681111561069b5760405162461bcd60e51b81526020600482015260016024820152601560fa1b60448201526064016101cb565b6000816001166000036106b257600160801b6106c4565b6ffffcb933bd6fad37aa2d162d1a5940015b70ffffffffffffffffffffffffffffffffff16905060028216156107035760806106fe826ffff97272373d413259a46990580e213a610fb3565b901c90505b600482161561072d576080610728826ffff2e50f5f656932ef12357cf3c7fdcc610fb3565b901c90505b6008821615610757576080610752826fffe5caca7e10e4e61c3624eaa0941cd0610fb3565b901c90505b601082161561078157608061077c826fffcb9843d60f6159c9db58835c926644610fb3565b901c90505b60208216156107ab5760806107a6826fff973b41fa98c081472e6896dfb254c0610fb3565b901c90505b60408216156107d55760806107d0826fff2ea16466c96a3843ec78b326b52861610fb3565b901c90505b60808216156107ff5760806107fa826ffe5dee046a99a2a811c461f1969c3053610fb3565b901c90505b61010082161561082a576080610825826ffcbe86c7900a88aedcffc83b479aa3a4610fb3565b901c90505b610200821615610855576080610850826ff987a7253ac413176f2b074cf7815e54610fb3565b901c90505b61040082161561088057608061087b826ff3392b0822b70005940c7a398e4b70f3610fb3565b901c90505b6108008216156108ab5760806108a6826fe7159475a2c29b7443b29c7fa6e889d9610fb3565b901c90505b6110008216156108d65760806108d1826fd097f3bdfd2022b8845ad8f792aa5825610fb3565b901c90505b6120008216156109015760806108fc826fa9f746462d870fdf8a65dc1f90e061e5610fb3565b901c90505b61400082161561092c576080610927826f70d869a156d2a1b890bb3df62baf32f7610fb3565b901c90505b618000821615610957576080610952826f31be135f97d08fd981231505542fcfa6610fb3565b901c90505b6201000082161561098357608061097e826f09aa508b5b7a84e1c677de54f3e99bc9610fb3565b901c90505b620200008216156109ae5760806109a9826e5d6af8dedb81196699c329225ee604610fb3565b901c90505b620400008216156109d85760806109d3826d2216e584f5fa1ea926041bedfe98610fb3565b901c90505b62080000821615610a005760806109fb826b048a170391f7dc42444e8fa2610fb3565b901c90505b60008460020b1315610a1b57610a1881600019611361565b90505b610a2a64010000000082611375565b15610a36576001610a39565b60005b610a4a9060ff16602083901c611389565b949350505050565b600080836001600160a01b0316856001600160a01b03161115610a73579293925b846001600160a01b0316866001600160a01b031611610a9e57610a97858585610d06565b9150610ae5565b836001600160a01b0316866001600160a01b03161015610ad757610ac3868585610d06565b9150610ad0858785610d79565b9050610ae5565b610ae2858585610d79565b90505b94509492505050565b6000808060001985870985870292508281108382030391505080600003610b275760008411610b1c57600080fd5b508290049050610c5f565b808411610b3357600080fd5b600084868809808403938111909203919050600085610b5181611323565b16958690049593849004936000819003046001019050610b718184610fb3565b909317926000610b82876003610fb3565b6002189050610b918188610fb3565b610b9c9060026113a1565b610ba69082610fb3565b9050610bb28188610fb3565b610bbd9060026113a1565b610bc79082610fb3565b9050610bd38188610fb3565b610bde9060026113a1565b610be89082610fb3565b9050610bf48188610fb3565b610bff9060026113a1565b610c099082610fb3565b9050610c158188610fb3565b610c209060026113a1565b610c2a9082610fb3565b9050610c368188610fb3565b610c419060026113a1565b610c4b9082610fb3565b9050610c578186610fb3565b955050505050505b9392505050565b6000826001600160a01b0316846001600160a01b03161115610c86579192915b6000610ca9856001600160a01b0316856001600160a01b0316600160601b610aee565b905061015c610ccb8483610cbd898961122d565b6001600160a01b0316610aee565b610dc3565b6000826001600160a01b0316846001600160a01b03161115610cf0579192915b610a4a610ccb83600160601b610cbd888861122d565b6000826001600160a01b0316846001600160a01b03161115610d26579192915b6001600160a01b038416610d6f6fffffffffffffffffffffffffffffffff60601b606085901b16610d57878761122d565b6001600160a01b0316866001600160a01b0316610aee565b610a4a9190611361565b6000826001600160a01b0316846001600160a01b03161115610d99579192915b610a4a6001600160801b038316610db0868661122d565b6001600160a01b0316600160601b610aee565b806001600160801b03811681146101d457600080fd5b8035600281900b81146101d457600080fd5b80356001600160801b03811681146101d457600080fd5b6001600160a01b0381168114610e1757600080fd5b50565b60008060008060808587031215610e3057600080fd5b610e3985610dd9565b9350610e4760208601610deb565b92506040850135610e5781610e02565b91506060850135610e6781610e02565b939692955090935050565b600080600080600060a08688031215610e8a57600080fd5b8535610e9581610e02565b94506020860135610ea581610e02565b93506040860135610eb581610e02565b94979396509394606081013594506080013592915050565b600060208284031215610edf57600080fd5b5035919050565b60008060408385031215610ef957600080fd5b8235610f0481610e02565b9150602083013563ffffffff81168114610f1d57600080fd5b809150509250929050565b600060208284031215610f3a57600080fd5b610c5f82610dd9565b60008060008060808587031215610f5957600080fd5b8435610f6481610e02565b93506020850135610f7481610e02565b92506040850135610f8481610e02565b9150610f9260608601610deb565b905092959194509250565b634e487b7160e01b600052601160045260246000fd5b6000816000190483118215151615610fcd57610fcd610f9d565b500290565b634e487b7160e01b600052604160045260246000fd5b634e487b7160e01b600052603260045260246000fd5b6020808252825182820181905260009190848201906040850190845b8181101561103c57835163ffffffff168352928401929184019160010161101a565b50909695505050505050565b604051601f8201601f1916810167ffffffffffffffff8111828210171561107157611071610fd2565b604052919050565b600067ffffffffffffffff82111561109357611093610fd2565b5060051b60200190565b600082601f8301126110ae57600080fd5b815160206110c36110be83611079565b611048565b82815260059290921b840181019181810190868411156110e257600080fd5b8286015b848110156111065780516110f981610e02565b83529183019183016110e6565b509695505050505050565b6000806040838503121561112457600080fd5b825167ffffffffffffffff8082111561113c57600080fd5b818501915085601f83011261115057600080fd5b815160206111606110be83611079565b82815260059290921b8401810191818101908984111561117f57600080fd5b948201945b838610156111ad5785518060060b811461119e5760008081fd5b82529482019490820190611184565b918801519196509093505050808211156111c657600080fd5b506111d38582860161109d565b9150509250929050565b60008160060b8360060b6000811281667fffffffffffff190183128115161561120857611208610f9d565b81667fffffffffffff01831381161561122357611223610f9d565b5090039392505050565b60006001600160a01b038381169083168181101561124d5761124d610f9d565b039392505050565b634e487b7160e01b600052601260045260246000fd5b600066ffffffffffffff8084168061128557611285611255565b92169190910492915050565b600066ffffffffffffff808416806112ab576112ab611255565b92169190910692915050565b60008160020b627fffff1981036112d0576112d0610f9d565b6000190192915050565b60006001600160c01b038281168482168115158284048211161561130057611300610f9d565b02949350505050565b60006001600160c01b038381168061128557611285611255565b6000600160ff1b820161133857611338610f9d565b5060000390565b60008160020b627fffff19810361135857611358610f9d565b60000392915050565b60008261137057611370611255565b500490565b60008261138457611384611255565b500690565b6000821982111561139c5761139c610f9d565b500190565b6000828210156113b3576113b3610f9d565b50039056fea164736f6c634300080e000a",
  "devdoc": {
    "kind": "dev",
    "methods": {
      "toUint128(uint256)": {
        "params": {
          "y": "The uint256 to be downcasted"
        },
        "returns": {
          "z": "The downcasted integer, now type uint128"
        }
      }
    },
    "stateVariables": {
      "MAX_SQRT_RATIO": {
        "details": "The maximum value that can be returned from #getSqrtRatioAtTick. Equivalent to getSqrtRatioAtTick(MAX_TICK)"
      },
      "MIN_SQRT_RATIO": {
        "details": "The minimum value that can be returned from #getSqrtRatioAtTick. Equivalent to getSqrtRatioAtTick(MIN_TICK)"
      }
    },
    "version": 1
  },
  "userdoc": {
    "kind": "user",
    "methods": {
      "toUint128(uint256)": {
        "notice": "Cast a uint256 to a uint128, revert on overflow"
      }
    },
    "version": 1
  },
  "storageLayout": {
    "storage": [],
    "types": null
  }
}