{
  "address": "0x45540e7ac63DA89B653C1c8192f69D3a731eeeaE",
  "abi": [
    {
      "inputs": [
        {
          "internalType": "uint256",
          "name": "x",
          "type": "uint256"
        },
        {
          "internalType": "uint256",
          "name": "y",
          "type": "uint256"
        }
      ],
      "name": "PRBMath_MulDiv18_Overflow",
      "type": "error"
    },
    {
      "inputs": [
        {
          "internalType": "uint256",
          "name": "x",
          "type": "uint256"
        },
        {
          "internalType": "uint256",
          "name": "y",
          "type": "uint256"
        },
        {
          "internalType": "uint256",
          "name": "denominator",
          "type": "uint256"
        }
      ],
      "name": "PRBMath_MulDiv_Overflow",
      "type": "error"
    },
    {
      "inputs": [],
      "name": "PRBMath_SD59x18_Div_InputTooSmall",
      "type": "error"
    },
    {
      "inputs": [
        {
          "internalType": "SD59x18",
          "name": "x",
          "type": "int256"
        },
        {
          "internalType": "SD59x18",
          "name": "y",
          "type": "int256"
        }
      ],
      "name": "PRBMath_SD59x18_Div_Overflow",
      "type": "error"
    },
    {
      "inputs": [],
      "name": "PRBMath_SD59x18_Mul_InputTooSmall",
      "type": "error"
    },
    {
      "inputs": [
        {
          "internalType": "SD59x18",
          "name": "x",
          "type": "int256"
        },
        {
          "internalType": "SD59x18",
          "name": "y",
          "type": "int256"
        }
      ],
      "name": "PRBMath_SD59x18_Mul_Overflow",
      "type": "error"
    },
    {
      "inputs": [
        {
          "internalType": "UD60x18",
          "name": "x",
          "type": "uint256"
        }
      ],
      "name": "PRBMath_UD60x18_Exp2_InputTooBig",
      "type": "error"
    },
    {
      "inputs": [
        {
          "internalType": "UD60x18",
          "name": "x",
          "type": "uint256"
        }
      ],
      "name": "PRBMath_UD60x18_Log_InputTooSmall",
      "type": "error"
    },
    {
      "inputs": [
        {
          "internalType": "UD60x18",
          "name": "x",
          "type": "uint256"
        }
      ],
      "name": "PRBMath_UD60x18_Sqrt_Overflow",
      "type": "error"
    },
    {
      "inputs": [
        {
          "internalType": "string",
          "name": "reason",
          "type": "string"
        }
      ],
      "name": "Unacceptable",
      "type": "error"
    },
    {
      "inputs": [
        {
          "internalType": "uint256",
          "name": "_price",
          "type": "uint256"
        },
        {
          "internalType": "uint256",
          "name": "_decimals",
          "type": "uint256"
        }
      ],
      "name": "_priceToSqrtX96",
      "outputs": [
        {
          "internalType": "uint160",
          "name": "sqrtX96",
          "type": "uint160"
        }
      ],
      "stateMutability": "pure",
      "type": "function"
    },
    {
      "inputs": [
        {
          "internalType": "uint256",
          "name": "x",
          "type": "uint256"
        }
      ],
      "name": "_uint128Safe",
      "outputs": [
        {
          "internalType": "uint128",
          "name": "",
          "type": "uint128"
        }
      ],
      "stateMutability": "pure",
      "type": "function"
    },
    {
      "inputs": [
        {
          "internalType": "uint256",
          "name": "x",
          "type": "uint256"
        }
      ],
      "name": "_uint160Safe",
      "outputs": [
        {
          "internalType": "uint160",
          "name": "",
          "type": "uint160"
        }
      ],
      "stateMutability": "pure",
      "type": "function"
    },
    {
      "inputs": [
        {
          "internalType": "UD60x18",
          "name": "amountY",
          "type": "uint256"
        },
        {
          "internalType": "UD60x18",
          "name": "sqrtPMin",
          "type": "uint256"
        },
        {
          "internalType": "UD60x18",
          "name": "sqrtP",
          "type": "uint256"
        },
        {
          "internalType": "UD60x18",
          "name": "sqrtPMax",
          "type": "uint256"
        }
      ],
      "name": "computeAmountOfX",
      "outputs": [
        {
          "internalType": "UD60x18",
          "name": "amountX",
          "type": "uint256"
        }
      ],
      "stateMutability": "pure",
      "type": "function"
    },
    {
      "inputs": [
        {
          "internalType": "UD60x18",
          "name": "amountX",
          "type": "uint256"
        },
        {
          "internalType": "UD60x18",
          "name": "sqrtPMin",
          "type": "uint256"
        },
        {
          "internalType": "UD60x18",
          "name": "sqrtP",
          "type": "uint256"
        },
        {
          "internalType": "UD60x18",
          "name": "sqrtPMax",
          "type": "uint256"
        }
      ],
      "name": "computeAmountOfY",
      "outputs": [
        {
          "internalType": "UD60x18",
          "name": "amountY",
          "type": "uint256"
        }
      ],
      "stateMutability": "pure",
      "type": "function"
    },
    {
      "inputs": [
        {
          "internalType": "address",
          "name": "pool",
          "type": "address"
        }
      ],
      "name": "currentTick",
      "outputs": [
        {
          "internalType": "int24",
          "name": "tick",
          "type": "int24"
        }
      ],
      "stateMutability": "view",
      "type": "function"
    },
    {
      "inputs": [
        {
          "internalType": "UD60x18",
          "name": "dPct",
          "type": "uint256"
        }
      ],
      "name": "dPctString",
      "outputs": [
        {
          "internalType": "string",
          "name": "shortString",
          "type": "string"
        }
      ],
      "stateMutability": "pure",
      "type": "function"
    },
    {
      "inputs": [
        {
          "internalType": "UD60x18",
          "name": "a",
          "type": "uint256"
        },
        {
          "internalType": "UD60x18",
          "name": "b",
          "type": "uint256"
        }
      ],
      "name": "eq",
      "outputs": [
        {
          "internalType": "bool",
          "name": "equal",
          "type": "bool"
        }
      ],
      "stateMutability": "pure",
      "type": "function"
    },
    {
      "inputs": [
        {
          "internalType": "SD59x18",
          "name": "a",
          "type": "int256"
        },
        {
          "internalType": "SD59x18",
          "name": "b",
          "type": "int256"
        }
      ],
      "name": "eqS",
      "outputs": [
        {
          "internalType": "bool",
          "name": "equal",
          "type": "bool"
        }
      ],
      "stateMutability": "pure",
      "type": "function"
    },
    {
      "inputs": [],
      "name": "four",
      "outputs": [
        {
          "internalType": "UD60x18",
          "name": "sdFour",
          "type": "uint256"
        }
      ],
      "stateMutability": "pure",
      "type": "function"
    },
    {
      "inputs": [
        {
          "internalType": "address",
          "name": "pool",
          "type": "address"
        },
        {
          "internalType": "address",
          "name": "depositToken_",
          "type": "address"
        },
        {
          "internalType": "address",
          "name": "quoteToken_",
          "type": "address"
        },
        {
          "internalType": "SD59x18",
          "name": "tick",
          "type": "int256"
        }
      ],
      "name": "getPrbSqrtRatioAtTickSimple",
      "outputs": [
        {
          "internalType": "UD60x18",
          "name": "sqrtRatio",
          "type": "uint256"
        }
      ],
      "stateMutability": "view",
      "type": "function"
    },
    {
      "inputs": [
        {
          "internalType": "int24",
          "name": "tickMin",
          "type": "int24"
        }
      ],
      "name": "getSqrtRatioAtTick",
      "outputs": [
        {
          "internalType": "uint160",
          "name": "sqrtRatio",
          "type": "uint160"
        }
      ],
      "stateMutability": "pure",
      "type": "function"
    },
    {
      "inputs": [
        {
          "internalType": "address",
          "name": "pool",
          "type": "address"
        },
        {
          "internalType": "address",
          "name": "depositToken_",
          "type": "address"
        },
        {
          "internalType": "address",
          "name": "quoteToken_",
          "type": "address"
        },
        {
          "internalType": "int24",
          "name": "tick_",
          "type": "int24"
        }
      ],
      "name": "getSqrtRatioAtTickSimple",
      "outputs": [
        {
          "internalType": "uint160",
          "name": "sqrtRatio",
          "type": "uint160"
        }
      ],
      "stateMutability": "view",
      "type": "function"
    },
    {
      "inputs": [
        {
          "internalType": "UD60x18",
          "name": "a",
          "type": "uint256"
        },
        {
          "internalType": "UD60x18",
          "name": "b",
          "type": "uint256"
        }
      ],
      "name": "gt",
      "outputs": [
        {
          "internalType": "bool",
          "name": "aGtB",
          "type": "bool"
        }
      ],
      "stateMutability": "pure",
      "type": "function"
    },
    {
      "inputs": [
        {
          "internalType": "UD60x18",
          "name": "a",
          "type": "uint256"
        },
        {
          "internalType": "UD60x18",
          "name": "b",
          "type": "uint256"
        }
      ],
      "name": "gte",
      "outputs": [
        {
          "internalType": "bool",
          "name": "aGteB",
          "type": "bool"
        }
      ],
      "stateMutability": "pure",
      "type": "function"
    },
    {
      "inputs": [
        {
          "internalType": "address",
          "name": "pool",
          "type": "address"
        },
        {
          "internalType": "int24",
          "name": "tickLower",
          "type": "int24"
        },
        {
          "internalType": "int24",
          "name": "tickUpper",
          "type": "int24"
        },
        {
          "internalType": "uint256",
          "name": "amount0",
          "type": "uint256"
        },
        {
          "internalType": "uint256",
          "name": "amount1",
          "type": "uint256"
        }
      ],
      "name": "liquidityForAmounts",
      "outputs": [
        {
          "internalType": "uint128",
          "name": "",
          "type": "uint128"
        }
      ],
      "stateMutability": "view",
      "type": "function"
    },
    {
      "inputs": [
        {
          "internalType": "address",
          "name": "token0",
          "type": "address"
        },
        {
          "internalType": "address",
          "name": "token1",
          "type": "address"
        },
        {
          "internalType": "UD60x18",
          "name": "dPct",
          "type": "uint256"
        }
      ],
      "name": "lpName",
      "outputs": [
        {
          "internalType": "string",
          "name": "lpName_",
          "type": "string"
        }
      ],
      "stateMutability": "view",
      "type": "function"
    },
    {
      "inputs": [
        {
          "internalType": "address",
          "name": "token0",
          "type": "address"
        },
        {
          "internalType": "address",
          "name": "token1",
          "type": "address"
        },
        {
          "internalType": "UD60x18",
          "name": "dPct",
          "type": "uint256"
        }
      ],
      "name": "lpSymbol",
      "outputs": [
        {
          "internalType": "string",
          "name": "lpSymbol_",
          "type": "string"
        }
      ],
      "stateMutability": "view",
      "type": "function"
    },
    {
      "inputs": [
        {
          "internalType": "UD60x18",
          "name": "a",
          "type": "uint256"
        },
        {
          "internalType": "UD60x18",
          "name": "b",
          "type": "uint256"
        }
      ],
      "name": "lt",
      "outputs": [
        {
          "internalType": "bool",
          "name": "aLtB",
          "type": "bool"
        }
      ],
      "stateMutability": "pure",
      "type": "function"
    },
    {
      "inputs": [
        {
          "internalType": "UD60x18",
          "name": "a",
          "type": "uint256"
        },
        {
          "internalType": "UD60x18",
          "name": "b",
          "type": "uint256"
        }
      ],
      "name": "lte",
      "outputs": [
        {
          "internalType": "bool",
          "name": "aLteB",
          "type": "bool"
        }
      ],
      "stateMutability": "pure",
      "type": "function"
    },
    {
      "inputs": [
        {
          "internalType": "UD60x18",
          "name": "a",
          "type": "uint256"
        },
        {
          "internalType": "UD60x18",
          "name": "b",
          "type": "uint256"
        }
      ],
      "name": "max",
      "outputs": [
        {
          "internalType": "UD60x18",
          "name": "maxAB",
          "type": "uint256"
        }
      ],
      "stateMutability": "pure",
      "type": "function"
    },
    {
      "inputs": [
        {
          "internalType": "SD59x18",
          "name": "a",
          "type": "int256"
        },
        {
          "internalType": "SD59x18",
          "name": "b",
          "type": "int256"
        }
      ],
      "name": "maxS",
      "outputs": [
        {
          "internalType": "SD59x18",
          "name": "maxAB",
          "type": "int256"
        }
      ],
      "stateMutability": "pure",
      "type": "function"
    },
    {
      "inputs": [],
      "name": "maxTick",
      "outputs": [
        {
          "internalType": "SD59x18",
          "name": "sdMaxTick",
          "type": "int256"
        }
      ],
      "stateMutability": "pure",
      "type": "function"
    },
    {
      "inputs": [
        {
          "internalType": "UD60x18",
          "name": "a",
          "type": "uint256"
        },
        {
          "internalType": "UD60x18",
          "name": "b",
          "type": "uint256"
        }
      ],
      "name": "min",
      "outputs": [
        {
          "internalType": "UD60x18",
          "name": "minAB",
          "type": "uint256"
        }
      ],
      "stateMutability": "pure",
      "type": "function"
    },
    {
      "inputs": [
        {
          "internalType": "SD59x18",
          "name": "a",
          "type": "int256"
        },
        {
          "internalType": "SD59x18",
          "name": "b",
          "type": "int256"
        }
      ],
      "name": "minS",
      "outputs": [
        {
          "internalType": "SD59x18",
          "name": "minAB",
          "type": "int256"
        }
      ],
      "stateMutability": "pure",
      "type": "function"
    },
    {
      "inputs": [],
      "name": "minTick",
      "outputs": [
        {
          "internalType": "SD59x18",
          "name": "sdMinTick",
          "type": "int256"
        }
      ],
      "stateMutability": "pure",
      "type": "function"
    },
    {
      "inputs": [],
      "name": "one",
      "outputs": [
        {
          "internalType": "UD60x18",
          "name": "sdOne",
          "type": "uint256"
        }
      ],
      "stateMutability": "pure",
      "type": "function"
    },
    {
      "inputs": [],
      "name": "oneSigned",
      "outputs": [
        {
          "internalType": "SD59x18",
          "name": "sdOneSigned",
          "type": "int256"
        }
      ],
      "stateMutability": "pure",
      "type": "function"
    },
    {
      "inputs": [
        {
          "internalType": "address",
          "name": "pool",
          "type": "address"
        },
        {
          "internalType": "address",
          "name": "tokenIn",
          "type": "address"
        },
        {
          "internalType": "address",
          "name": "tokenOut",
          "type": "address"
        },
        {
          "internalType": "uint256",
          "name": "amountIn",
          "type": "uint256"
        }
      ],
      "name": "spot",
      "outputs": [
        {
          "internalType": "uint160",
          "name": "amountOut",
          "type": "uint160"
        }
      ],
      "stateMutability": "view",
      "type": "function"
    },
    {
      "inputs": [
        {
          "internalType": "UD60x18",
          "name": "a",
          "type": "uint256"
        }
      ],
      "name": "sq",
      "outputs": [
        {
          "internalType": "UD60x18",
          "name": "square",
          "type": "uint256"
        }
      ],
      "stateMutability": "pure",
      "type": "function"
    },
    {
      "inputs": [
        {
          "internalType": "uint256",
          "name": "y",
          "type": "uint256"
        }
      ],
      "name": "sqrtSimple",
      "outputs": [
        {
          "internalType": "uint256",
          "name": "z",
          "type": "uint256"
        }
      ],
      "stateMutability": "pure",
      "type": "function"
    },
    {
      "inputs": [
        {
          "components": [
            {
              "internalType": "UD60x18",
              "name": "fax",
              "type": "uint256"
            },
            {
              "internalType": "UD60x18",
              "name": "fay",
              "type": "uint256"
            },
            {
              "internalType": "UD60x18",
              "name": "cax",
              "type": "uint256"
            },
            {
              "internalType": "UD60x18",
              "name": "cay",
              "type": "uint256"
            },
            {
              "internalType": "UD60x18",
              "name": "acx",
              "type": "uint256"
            },
            {
              "internalType": "UD60x18",
              "name": "acy",
              "type": "uint256"
            },
            {
              "internalType": "UD60x18",
              "name": "cox",
              "type": "uint256"
            },
            {
              "internalType": "UD60x18",
              "name": "coy",
              "type": "uint256"
            },
            {
              "internalType": "UD60x18",
              "name": "ox",
              "type": "uint256"
            },
            {
              "internalType": "UD60x18",
              "name": "oy",
              "type": "uint256"
            },
            {
              "internalType": "int256",
              "name": "fox",
              "type": "int256"
            },
            {
              "internalType": "int256",
              "name": "foy",
              "type": "int256"
            },
            {
              "internalType": "uint256",
              "name": "concentratedSwapPrice",
              "type": "uint256"
            },
            {
              "internalType": "bool",
              "name": "xForY",
              "type": "bool"
            },
            {
              "internalType": "bool",
              "name": "resetsConcentratedPosition",
              "type": "bool"
            }
          ],
          "internalType": "struct SoloMath.TradeState",
          "name": "ts",
          "type": "tuple"
        },
        {
          "components": [
            {
              "internalType": "UD60x18",
              "name": "rax",
              "type": "uint256"
            },
            {
              "internalType": "UD60x18",
              "name": "ray",
              "type": "uint256"
            },
            {
              "internalType": "UD60x18",
              "name": "fee",
              "type": "uint256"
            },
            {
              "internalType": "UD60x18",
              "name": "bMin",
              "type": "uint256"
            },
            {
              "internalType": "UD60x18",
              "name": "s_",
              "type": "uint256"
            }
          ],
          "internalType": "struct SoloMath.TradeReq",
          "name": "t",
          "type": "tuple"
        }
      ],
      "name": "step0",
      "outputs": [
        {
          "components": [
            {
              "internalType": "UD60x18",
              "name": "fax",
              "type": "uint256"
            },
            {
              "internalType": "UD60x18",
              "name": "fay",
              "type": "uint256"
            },
            {
              "internalType": "UD60x18",
              "name": "cax",
              "type": "uint256"
            },
            {
              "internalType": "UD60x18",
              "name": "cay",
              "type": "uint256"
            },
            {
              "internalType": "UD60x18",
              "name": "acx",
              "type": "uint256"
            },
            {
              "internalType": "UD60x18",
              "name": "acy",
              "type": "uint256"
            },
            {
              "internalType": "UD60x18",
              "name": "cox",
              "type": "uint256"
            },
            {
              "internalType": "UD60x18",
              "name": "coy",
              "type": "uint256"
            },
            {
              "internalType": "UD60x18",
              "name": "ox",
              "type": "uint256"
            },
            {
              "internalType": "UD60x18",
              "name": "oy",
              "type": "uint256"
            },
            {
              "internalType": "int256",
              "name": "fox",
              "type": "int256"
            },
            {
              "internalType": "int256",
              "name": "foy",
              "type": "int256"
            },
            {
              "internalType": "uint256",
              "name": "concentratedSwapPrice",
              "type": "uint256"
            },
            {
              "internalType": "bool",
              "name": "xForY",
              "type": "bool"
            },
            {
              "internalType": "bool",
              "name": "resetsConcentratedPosition",
              "type": "bool"
            }
          ],
          "internalType": "struct SoloMath.TradeState",
          "name": "",
          "type": "tuple"
        }
      ],
      "stateMutability": "pure",
      "type": "function"
    },
    {
      "inputs": [
        {
          "components": [
            {
              "internalType": "UD60x18",
              "name": "fax",
              "type": "uint256"
            },
            {
              "internalType": "UD60x18",
              "name": "fay",
              "type": "uint256"
            },
            {
              "internalType": "UD60x18",
              "name": "cax",
              "type": "uint256"
            },
            {
              "internalType": "UD60x18",
              "name": "cay",
              "type": "uint256"
            },
            {
              "internalType": "UD60x18",
              "name": "acx",
              "type": "uint256"
            },
            {
              "internalType": "UD60x18",
              "name": "acy",
              "type": "uint256"
            },
            {
              "internalType": "UD60x18",
              "name": "cox",
              "type": "uint256"
            },
            {
              "internalType": "UD60x18",
              "name": "coy",
              "type": "uint256"
            },
            {
              "internalType": "UD60x18",
              "name": "ox",
              "type": "uint256"
            },
            {
              "internalType": "UD60x18",
              "name": "oy",
              "type": "uint256"
            },
            {
              "internalType": "int256",
              "name": "fox",
              "type": "int256"
            },
            {
              "internalType": "int256",
              "name": "foy",
              "type": "int256"
            },
            {
              "internalType": "uint256",
              "name": "concentratedSwapPrice",
              "type": "uint256"
            },
            {
              "internalType": "bool",
              "name": "xForY",
              "type": "bool"
            },
            {
              "internalType": "bool",
              "name": "resetsConcentratedPosition",
              "type": "bool"
            }
          ],
          "internalType": "struct SoloMath.TradeState",
          "name": "ts",
          "type": "tuple"
        },
        {
          "components": [
            {
              "internalType": "UD60x18",
              "name": "ax",
              "type": "uint256"
            },
            {
              "internalType": "UD60x18",
              "name": "ay",
              "type": "uint256"
            },
            {
              "internalType": "UD60x18",
              "name": "xMax",
              "type": "uint256"
            },
            {
              "internalType": "UD60x18",
              "name": "yMax",
              "type": "uint256"
            },
            {
              "internalType": "UD60x18",
              "name": "deltaFx",
              "type": "uint256"
            },
            {
              "internalType": "UD60x18",
              "name": "deltaFy",
              "type": "uint256"
            },
            {
              "internalType": "UD60x18",
              "name": "pa",
              "type": "uint256"
            },
            {
              "internalType": "UD60x18",
              "name": "pb",
              "type": "uint256"
            },
            {
              "internalType": "UD60x18",
              "name": "cPct",
              "type": "uint256"
            },
            {
              "internalType": "UD60x18",
              "name": "b",
              "type": "uint256"
            }
          ],
          "internalType": "struct SoloMath.ScratchPad",
          "name": "s",
          "type": "tuple"
        },
        {
          "components": [
            {
              "internalType": "UD60x18",
              "name": "rax",
              "type": "uint256"
            },
            {
              "internalType": "UD60x18",
              "name": "ray",
              "type": "uint256"
            },
            {
              "internalType": "UD60x18",
              "name": "fee",
              "type": "uint256"
            },
            {
              "internalType": "UD60x18",
              "name": "bMin",
              "type": "uint256"
            },
            {
              "internalType": "UD60x18",
              "name": "s_",
              "type": "uint256"
            }
          ],
          "internalType": "struct SoloMath.TradeReq",
          "name": "t",
          "type": "tuple"
        }
      ],
      "name": "step1",
      "outputs": [
        {
          "components": [
            {
              "internalType": "UD60x18",
              "name": "fax",
              "type": "uint256"
            },
            {
              "internalType": "UD60x18",
              "name": "fay",
              "type": "uint256"
            },
            {
              "internalType": "UD60x18",
              "name": "cax",
              "type": "uint256"
            },
            {
              "internalType": "UD60x18",
              "name": "cay",
              "type": "uint256"
            },
            {
              "internalType": "UD60x18",
              "name": "acx",
              "type": "uint256"
            },
            {
              "internalType": "UD60x18",
              "name": "acy",
              "type": "uint256"
            },
            {
              "internalType": "UD60x18",
              "name": "cox",
              "type": "uint256"
            },
            {
              "internalType": "UD60x18",
              "name": "coy",
              "type": "uint256"
            },
            {
              "internalType": "UD60x18",
              "name": "ox",
              "type": "uint256"
            },
            {
              "internalType": "UD60x18",
              "name": "oy",
              "type": "uint256"
            },
            {
              "internalType": "int256",
              "name": "fox",
              "type": "int256"
            },
            {
              "internalType": "int256",
              "name": "foy",
              "type": "int256"
            },
            {
              "internalType": "uint256",
              "name": "concentratedSwapPrice",
              "type": "uint256"
            },
            {
              "internalType": "bool",
              "name": "xForY",
              "type": "bool"
            },
            {
              "internalType": "bool",
              "name": "resetsConcentratedPosition",
              "type": "bool"
            }
          ],
          "internalType": "struct SoloMath.TradeState",
          "name": "",
          "type": "tuple"
        },
        {
          "components": [
            {
              "internalType": "UD60x18",
              "name": "ax",
              "type": "uint256"
            },
            {
              "internalType": "UD60x18",
              "name": "ay",
              "type": "uint256"
            },
            {
              "internalType": "UD60x18",
              "name": "xMax",
              "type": "uint256"
            },
            {
              "internalType": "UD60x18",
              "name": "yMax",
              "type": "uint256"
            },
            {
              "internalType": "UD60x18",
              "name": "deltaFx",
              "type": "uint256"
            },
            {
              "internalType": "UD60x18",
              "name": "deltaFy",
              "type": "uint256"
            },
            {
              "internalType": "UD60x18",
              "name": "pa",
              "type": "uint256"
            },
            {
              "internalType": "UD60x18",
              "name": "pb",
              "type": "uint256"
            },
            {
              "internalType": "UD60x18",
              "name": "cPct",
              "type": "uint256"
            },
            {
              "internalType": "UD60x18",
              "name": "b",
              "type": "uint256"
            }
          ],
          "internalType": "struct SoloMath.ScratchPad",
          "name": "",
          "type": "tuple"
        }
      ],
      "stateMutability": "pure",
      "type": "function"
    },
    {
      "inputs": [
        {
          "components": [
            {
              "internalType": "UD60x18",
              "name": "fax",
              "type": "uint256"
            },
            {
              "internalType": "UD60x18",
              "name": "fay",
              "type": "uint256"
            },
            {
              "internalType": "UD60x18",
              "name": "cax",
              "type": "uint256"
            },
            {
              "internalType": "UD60x18",
              "name": "cay",
              "type": "uint256"
            },
            {
              "internalType": "UD60x18",
              "name": "acx",
              "type": "uint256"
            },
            {
              "internalType": "UD60x18",
              "name": "acy",
              "type": "uint256"
            },
            {
              "internalType": "UD60x18",
              "name": "cox",
              "type": "uint256"
            },
            {
              "internalType": "UD60x18",
              "name": "coy",
              "type": "uint256"
            },
            {
              "internalType": "UD60x18",
              "name": "ox",
              "type": "uint256"
            },
            {
              "internalType": "UD60x18",
              "name": "oy",
              "type": "uint256"
            },
            {
              "internalType": "int256",
              "name": "fox",
              "type": "int256"
            },
            {
              "internalType": "int256",
              "name": "foy",
              "type": "int256"
            },
            {
              "internalType": "uint256",
              "name": "concentratedSwapPrice",
              "type": "uint256"
            },
            {
              "internalType": "bool",
              "name": "xForY",
              "type": "bool"
            },
            {
              "internalType": "bool",
              "name": "resetsConcentratedPosition",
              "type": "bool"
            }
          ],
          "internalType": "struct SoloMath.TradeState",
          "name": "ts",
          "type": "tuple"
        },
        {
          "components": [
            {
              "internalType": "UD60x18",
              "name": "ax",
              "type": "uint256"
            },
            {
              "internalType": "UD60x18",
              "name": "ay",
              "type": "uint256"
            },
            {
              "internalType": "UD60x18",
              "name": "xMax",
              "type": "uint256"
            },
            {
              "internalType": "UD60x18",
              "name": "yMax",
              "type": "uint256"
            },
            {
              "internalType": "UD60x18",
              "name": "deltaFx",
              "type": "uint256"
            },
            {
              "internalType": "UD60x18",
              "name": "deltaFy",
              "type": "uint256"
            },
            {
              "internalType": "UD60x18",
              "name": "pa",
              "type": "uint256"
            },
            {
              "internalType": "UD60x18",
              "name": "pb",
              "type": "uint256"
            },
            {
              "internalType": "UD60x18",
              "name": "cPct",
              "type": "uint256"
            },
            {
              "internalType": "UD60x18",
              "name": "b",
              "type": "uint256"
            }
          ],
          "internalType": "struct SoloMath.ScratchPad",
          "name": "s",
          "type": "tuple"
        }
      ],
      "name": "step3c",
      "outputs": [
        {
          "components": [
            {
              "internalType": "UD60x18",
              "name": "fax",
              "type": "uint256"
            },
            {
              "internalType": "UD60x18",
              "name": "fay",
              "type": "uint256"
            },
            {
              "internalType": "UD60x18",
              "name": "cax",
              "type": "uint256"
            },
            {
              "internalType": "UD60x18",
              "name": "cay",
              "type": "uint256"
            },
            {
              "internalType": "UD60x18",
              "name": "acx",
              "type": "uint256"
            },
            {
              "internalType": "UD60x18",
              "name": "acy",
              "type": "uint256"
            },
            {
              "internalType": "UD60x18",
              "name": "cox",
              "type": "uint256"
            },
            {
              "internalType": "UD60x18",
              "name": "coy",
              "type": "uint256"
            },
            {
              "internalType": "UD60x18",
              "name": "ox",
              "type": "uint256"
            },
            {
              "internalType": "UD60x18",
              "name": "oy",
              "type": "uint256"
            },
            {
              "internalType": "int256",
              "name": "fox",
              "type": "int256"
            },
            {
              "internalType": "int256",
              "name": "foy",
              "type": "int256"
            },
            {
              "internalType": "uint256",
              "name": "concentratedSwapPrice",
              "type": "uint256"
            },
            {
              "internalType": "bool",
              "name": "xForY",
              "type": "bool"
            },
            {
              "internalType": "bool",
              "name": "resetsConcentratedPosition",
              "type": "bool"
            }
          ],
          "internalType": "struct SoloMath.TradeState",
          "name": "",
          "type": "tuple"
        },
        {
          "components": [
            {
              "internalType": "UD60x18",
              "name": "ax",
              "type": "uint256"
            },
            {
              "internalType": "UD60x18",
              "name": "ay",
              "type": "uint256"
            },
            {
              "internalType": "UD60x18",
              "name": "xMax",
              "type": "uint256"
            },
            {
              "internalType": "UD60x18",
              "name": "yMax",
              "type": "uint256"
            },
            {
              "internalType": "UD60x18",
              "name": "deltaFx",
              "type": "uint256"
            },
            {
              "internalType": "UD60x18",
              "name": "deltaFy",
              "type": "uint256"
            },
            {
              "internalType": "UD60x18",
              "name": "pa",
              "type": "uint256"
            },
            {
              "internalType": "UD60x18",
              "name": "pb",
              "type": "uint256"
            },
            {
              "internalType": "UD60x18",
              "name": "cPct",
              "type": "uint256"
            },
            {
              "internalType": "UD60x18",
              "name": "b",
              "type": "uint256"
            }
          ],
          "internalType": "struct SoloMath.ScratchPad",
          "name": "",
          "type": "tuple"
        }
      ],
      "stateMutability": "pure",
      "type": "function"
    },
    {
      "inputs": [
        {
          "components": [
            {
              "internalType": "UD60x18",
              "name": "cX",
              "type": "uint256"
            },
            {
              "internalType": "UD60x18",
              "name": "cY",
              "type": "uint256"
            },
            {
              "internalType": "UD60x18",
              "name": "fX",
              "type": "uint256"
            },
            {
              "internalType": "UD60x18",
              "name": "fY",
              "type": "uint256"
            },
            {
              "internalType": "UD60x18",
              "name": "sqrtP",
              "type": "uint256"
            },
            {
              "internalType": "SD59x18",
              "name": "tC",
              "type": "int256"
            }
          ],
          "internalType": "struct SoloMath.SoloContext",
          "name": "ctx",
          "type": "tuple"
        },
        {
          "components": [
            {
              "internalType": "UD60x18",
              "name": "fax",
              "type": "uint256"
            },
            {
              "internalType": "UD60x18",
              "name": "fay",
              "type": "uint256"
            },
            {
              "internalType": "UD60x18",
              "name": "cax",
              "type": "uint256"
            },
            {
              "internalType": "UD60x18",
              "name": "cay",
              "type": "uint256"
            },
            {
              "internalType": "UD60x18",
              "name": "acx",
              "type": "uint256"
            },
            {
              "internalType": "UD60x18",
              "name": "acy",
              "type": "uint256"
            },
            {
              "internalType": "UD60x18",
              "name": "cox",
              "type": "uint256"
            },
            {
              "internalType": "UD60x18",
              "name": "coy",
              "type": "uint256"
            },
            {
              "internalType": "UD60x18",
              "name": "ox",
              "type": "uint256"
            },
            {
              "internalType": "UD60x18",
              "name": "oy",
              "type": "uint256"
            },
            {
              "internalType": "int256",
              "name": "fox",
              "type": "int256"
            },
            {
              "internalType": "int256",
              "name": "foy",
              "type": "int256"
            },
            {
              "internalType": "uint256",
              "name": "concentratedSwapPrice",
              "type": "uint256"
            },
            {
              "internalType": "bool",
              "name": "xForY",
              "type": "bool"
            },
            {
              "internalType": "bool",
              "name": "resetsConcentratedPosition",
              "type": "bool"
            }
          ],
          "internalType": "struct SoloMath.TradeState",
          "name": "ts",
          "type": "tuple"
        },
        {
          "components": [
            {
              "internalType": "UD60x18",
              "name": "ax",
              "type": "uint256"
            },
            {
              "internalType": "UD60x18",
              "name": "ay",
              "type": "uint256"
            },
            {
              "internalType": "UD60x18",
              "name": "xMax",
              "type": "uint256"
            },
            {
              "internalType": "UD60x18",
              "name": "yMax",
              "type": "uint256"
            },
            {
              "internalType": "UD60x18",
              "name": "deltaFx",
              "type": "uint256"
            },
            {
              "internalType": "UD60x18",
              "name": "deltaFy",
              "type": "uint256"
            },
            {
              "internalType": "UD60x18",
              "name": "pa",
              "type": "uint256"
            },
            {
              "internalType": "UD60x18",
              "name": "pb",
              "type": "uint256"
            },
            {
              "internalType": "UD60x18",
              "name": "cPct",
              "type": "uint256"
            },
            {
              "internalType": "UD60x18",
              "name": "b",
              "type": "uint256"
            }
          ],
          "internalType": "struct SoloMath.ScratchPad",
          "name": "s",
          "type": "tuple"
        }
      ],
      "name": "step5",
      "outputs": [
        {
          "components": [
            {
              "internalType": "UD60x18",
              "name": "fax",
              "type": "uint256"
            },
            {
              "internalType": "UD60x18",
              "name": "fay",
              "type": "uint256"
            },
            {
              "internalType": "UD60x18",
              "name": "cax",
              "type": "uint256"
            },
            {
              "internalType": "UD60x18",
              "name": "cay",
              "type": "uint256"
            },
            {
              "internalType": "UD60x18",
              "name": "acx",
              "type": "uint256"
            },
            {
              "internalType": "UD60x18",
              "name": "acy",
              "type": "uint256"
            },
            {
              "internalType": "UD60x18",
              "name": "cox",
              "type": "uint256"
            },
            {
              "internalType": "UD60x18",
              "name": "coy",
              "type": "uint256"
            },
            {
              "internalType": "UD60x18",
              "name": "ox",
              "type": "uint256"
            },
            {
              "internalType": "UD60x18",
              "name": "oy",
              "type": "uint256"
            },
            {
              "internalType": "int256",
              "name": "fox",
              "type": "int256"
            },
            {
              "internalType": "int256",
              "name": "foy",
              "type": "int256"
            },
            {
              "internalType": "uint256",
              "name": "concentratedSwapPrice",
              "type": "uint256"
            },
            {
              "internalType": "bool",
              "name": "xForY",
              "type": "bool"
            },
            {
              "internalType": "bool",
              "name": "resetsConcentratedPosition",
              "type": "bool"
            }
          ],
          "internalType": "struct SoloMath.TradeState",
          "name": "",
          "type": "tuple"
        },
        {
          "components": [
            {
              "internalType": "UD60x18",
              "name": "ax",
              "type": "uint256"
            },
            {
              "internalType": "UD60x18",
              "name": "ay",
              "type": "uint256"
            },
            {
              "internalType": "UD60x18",
              "name": "xMax",
              "type": "uint256"
            },
            {
              "internalType": "UD60x18",
              "name": "yMax",
              "type": "uint256"
            },
            {
              "internalType": "UD60x18",
              "name": "deltaFx",
              "type": "uint256"
            },
            {
              "internalType": "UD60x18",
              "name": "deltaFy",
              "type": "uint256"
            },
            {
              "internalType": "UD60x18",
              "name": "pa",
              "type": "uint256"
            },
            {
              "internalType": "UD60x18",
              "name": "pb",
              "type": "uint256"
            },
            {
              "internalType": "UD60x18",
              "name": "cPct",
              "type": "uint256"
            },
            {
              "internalType": "UD60x18",
              "name": "b",
              "type": "uint256"
            }
          ],
          "internalType": "struct SoloMath.ScratchPad",
          "name": "",
          "type": "tuple"
        }
      ],
      "stateMutability": "pure",
      "type": "function"
    },
    {
      "inputs": [
        {
          "internalType": "address",
          "name": "pool",
          "type": "address"
        },
        {
          "internalType": "address",
          "name": "depositToken_",
          "type": "address"
        },
        {
          "internalType": "address",
          "name": "quoteToken_",
          "type": "address"
        },
        {
          "internalType": "int24",
          "name": "tick_",
          "type": "int24"
        }
      ],
      "name": "tickToPrice",
      "outputs": [
        {
          "internalType": "uint256",
          "name": "price",
          "type": "uint256"
        }
      ],
      "stateMutability": "view",
      "type": "function"
    },
    {
      "inputs": [
        {
          "internalType": "uint256",
          "name": "_x",
          "type": "uint256"
        },
        {
          "internalType": "uint256",
          "name": "_decimals",
          "type": "uint256"
        }
      ],
      "name": "toSqrtX96",
      "outputs": [
        {
          "internalType": "uint160",
          "name": "",
          "type": "uint160"
        }
      ],
      "stateMutability": "pure",
      "type": "function"
    },
    {
      "inputs": [
        {
          "internalType": "uint256",
          "name": "_x",
          "type": "uint256"
        },
        {
          "internalType": "uint256",
          "name": "_decimals",
          "type": "uint256"
        }
      ],
      "name": "toSqrtX96_lower",
      "outputs": [
        {
          "internalType": "uint160",
          "name": "",
          "type": "uint160"
        }
      ],
      "stateMutability": "pure",
      "type": "function"
    },
    {
      "inputs": [
        {
          "internalType": "address",
          "name": "pool",
          "type": "address"
        },
        {
          "internalType": "address",
          "name": "depositToken_",
          "type": "address"
        },
        {
          "internalType": "address",
          "name": "quoteToken_",
          "type": "address"
        },
        {
          "internalType": "uint32",
          "name": "_twapPeriod",
          "type": "uint32"
        },
        {
          "internalType": "uint256",
          "name": "_amountIn",
          "type": "uint256"
        }
      ],
      "name": "twap",
      "outputs": [
        {
          "internalType": "uint256",
          "name": "amountOut",
          "type": "uint256"
        }
      ],
      "stateMutability": "view",
      "type": "function"
    },
    {
      "inputs": [],
      "name": "two",
      "outputs": [
        {
          "internalType": "UD60x18",
          "name": "sdTwo",
          "type": "uint256"
        }
      ],
      "stateMutability": "pure",
      "type": "function"
    },
    {
      "inputs": [],
      "name": "twoSigned",
      "outputs": [
        {
          "internalType": "SD59x18",
          "name": "sdTwoSigned",
          "type": "int256"
        }
      ],
      "stateMutability": "pure",
      "type": "function"
    },
    {
      "inputs": [],
      "name": "zero",
      "outputs": [
        {
          "internalType": "UD60x18",
          "name": "sdOne",
          "type": "uint256"
        }
      ],
      "stateMutability": "pure",
      "type": "function"
    }
  ],
  "transactionHash": "0x772996ed5a310b54247e5fe3b2599f5c9ce5b1048716183bc1265323ef88c66e",
  "args": [],
  "numDeployments": 1,
  "solcInputHash": "202685d64c80c16845f01a2495a1aa69",
  "bytecode": "0x614cac61003a600b82828239805160001a60731461002d57634e487b7160e01b600052600060045260246000fd5b30600052607381538281f3fe73000000000000000000000000000000000000000030146080604052600436106103ae5760003560e01c806392550593116101f3578063bc1b392d11610119578063e8ffd56f116100b7578063f104732611610086578063f10473261461066d578063f4aab35814610881578063f599848114610894578063f7815235146108a757600080fd5b8063e8ffd56f14610822578063e92ceeb914610848578063ea6515c41461085b578063ee89e3d21461086e57600080fd5b8063c93515c7116100f3578063c93515c7146107dc578063cbbcdf23146107ef578063db6be7e51461080f578063e54a1660146105d857600080fd5b8063bc1b392d146107a1578063be7fdafc146107a9578063c61f361a146107bc57600080fd5b8063ae788ecf11610191578063b22e2b5211610160578063b22e2b5214610755578063b27aab6714610768578063b47733291461077b578063bade10c61461078e57600080fd5b8063ae788ecf146106fc578063af12d5d81461070f578063b03b3d081461072f578063b1d5db1b1461074257600080fd5b8063a1fca2b6116101cd578063a1fca2b6146106bb578063a8e4e543146106c3578063ab791114146106d6578063adb9138c146106e957600080fd5b8063925505931461067557806392ad6e0014610695578063986cfba3146106a857600080fd5b80633ecbeab0116102d85780636d5433e6116102765780637df1cbfe116102455780637df1cbfe14610634578063858afc2f1461064757806388b77fae1461065a578063901717d11461066d57600080fd5b80636d5433e61461060657806372fcfbf81461061957806377d7e6571461054c5780637ae2b5c71461062157600080fd5b806354552b72116102b257806354552b72146105b75780635fdf05d7146105d8578063664ae8b4146105e0578063688077fa146105f357600080fd5b80633ecbeab01461055e5780634532de9e1461058057806348483d17146105a457600080fd5b80631db3b6dd116103505780632a4c02bd1161031f5780632a4c02bd146104fb5780632e2491291461050e5780632fa5aaae1461052157806332148d731461054c57600080fd5b80631db3b6dd146104a15780631fdc090c146104a957806321e5749b146104c957806328fe7535146104db57600080fd5b80630fc7fda11161038c5780630fc7fda1146103ff578063118fc88c1461042a5780631ae212c51461044c5780631d6d760a1461046c57600080fd5b8063054a2672146103b357806308fe23ca146103d95780630e3e2d88146103ec575b600080fd5b6103c66103c1366004613a8d565b6108ba565b6040519081526020015b60405180910390f35b6103c66103e7366004613ae9565b61094e565b6103c66103fa366004613b02565b6109cd565b61041261040d366004613b02565b6109e6565b6040516001600160a01b0390911681526020016103d0565b61043c610438366004613b02565b1190565b60405190151581526020016103d0565b61045f61045a366004613b24565b610a1b565b6040516103d09190613bbd565b81801561047857600080fd5b5061048c610487366004613bd0565b610a50565b604080519283526020830191909152016103d0565b6103c6610a79565b6104bc6104b7366004613de5565b610a9c565b6040516103d09190613ec2565b61043c6104d7366004613b02565b1090565b8180156104e757600080fd5b5061048c6104f6366004613ee6565b610ac6565b6103c6610509366004613b02565b610b76565b61048c61051c366004613fb1565b610b80565b61053461052f366004613fe8565b610ba5565b6040516001600160801b0390911681526020016103d0565b61043c61055a366004613b02565b1490565b81801561056a57600080fd5b5061057e61057936600461406d565b610cd0565b005b81801561058c57600080fd5b5061057e61059b366004613ae9565b43600990910155565b6104126105b23660046140fc565b610da7565b6105ca6105c53660046141d2565b610ea5565b6040516103d0929190614224565b6103c6610f61565b6104126105ee366004613ae9565b610f74565b6105ca6106013660046142a7565b610fbd565b6103c6610614366004613b02565b6110b1565b6103c66110bb565b6103c661062f366004613b02565b6110d1565b6105ca6106423660046142d5565b6110db565b61045f610655366004613ae9565b6111a3565b610534610668366004613ae9565b6111be565b6103c6611203565b81801561068157600080fd5b5061057e610690366004613b02565b611216565b6105ca6106a33660046142d5565b611238565b6104126106b636600461431d565b6112a5565b6103c66112b0565b61043c6106d136600461433a565b6112c3565b6103c66106e4366004613ae9565b6112f4565b6104126106f7366004613a8d565b611363565b61048c61070a36600461433a565b611393565b81801561071b57600080fd5b5061057e61072a36600461435e565b6113ce565b61041261073d366004613b02565b61154f565b6103c66107503660046143e3565b61156d565b6103c66107633660046140fc565b6115a3565b6105ca610776366004614415565b6115c3565b61043c610789366004613b02565b111590565b61045f61079c366004613b24565b61173d565b6103c66118af565b6103c66107b7366004613fb1565b6118bb565b8180156107c857600080fd5b5061057e6107d736600461406d565b61193e565b6104126107ea366004613b02565b611a10565b8180156107fb57600080fd5b5061048c61080a36600461445e565b611a41565b61048c61081d366004613fb1565b611bfb565b6108356108303660046144e0565b611c83565b60405160029190910b81526020016103d0565b6105ca6108563660046144fd565b611d52565b61043c610869366004613b02565b101590565b6103c661087c36600461454e565b611e5c565b6103c661088f3660046143e3565b61201b565b61043c6108a23660046145b2565b612044565b6103c66108b5366004613fb1565b6120b1565b6040516343c57a2760e01b815260009073eD2d5EB3fbcDdF4e2e972F8C6CF37EffB7851d52906343c57a2790610902908590670de0b6b3a764000090899089906004016145f0565b602060405180830381865af415801561091f573d6000803e3d6000fd5b505050506040513d601f19601f820116820180604052508101906109439190614625565b90505b949350505050565b600061095a82806120ff565b905061096c6109676118af565b831490565b80610984575061098261097d6118af565b821490565b155b6109c85760405162461bcd60e51b815260206004820152601060248201526f0737120726573756c74656420696e20360841b60448201526064015b60405180910390fd5b919050565b60008282125b6109dd57816109df565b825b9392505050565b60006109f382600a614738565b831015610a0b57610a04838361154f565b9050610a15565b610a048383611a10565b92915050565b6060610a2884848461173d565b604051602001610a389190614744565b60405160208183030381529060405290509392505050565b600080610a5f878787876115a3565b9150610a6d878787866115a3565b90509550959350505050565b6000610a97610a9269bbe31c8b3778369fffff19614771565b612111565b905090565b610aa4613999565b610ab7610ab16000612111565b83511190565b15156101a08401525090919050565b6000806001600160801b03831615610b6d57604080513060208083018290528351808403909101815282840193849052633c8a7d8d60e01b9093526001600160a01b03891692633c8a7d8d92610b2592918a918a918a9160440161478d565b60408051808303816000875af1158015610b43573d6000803e3d6000fd5b505050506040513d601f19601f82011682018060405250810190610b6791906147cf565b90925090505b94509492505050565b60008282136109d3565b600080610b8e8585856120b1565b9150610b9b8585856118bb565b9050935093915050565b600080866001600160a01b0316633850c7bd6040518163ffffffff1660e01b815260040160e060405180830381865afa158015610be6573d6000803e3d6000fd5b505050506040513d601f19601f82011682018060405250810190610c0a9190614805565b505050505050905073eD2d5EB3fbcDdF4e2e972F8C6CF37EffB7851d52636098fd4a82610c36896112a5565b610c3f896112a5565b60405160e085901b6001600160e01b03191681526001600160a01b03938416600482015291831660248301529091166044820152606481018790526084810186905260a401602060405180830381865af4158015610ca1573d6000803e3d6000fd5b505050506040513d601f19601f82011682018060405250810190610cc5919061489d565b979650505050505050565b336001600160a01b03881614610d0e5760405162461bcd60e51b815260206004820152600360248201526263623160e81b60448201526064016109bf565b6000610d1c828401846144e0565b9050306001600160a01b03821603610d67578415610d4857610d486001600160a01b0388163387612119565b8315610d6257610d626001600160a01b0387163386612119565b610d9d565b8415610d8257610d826001600160a01b03881682338861217c565b8315610d9d57610d9d6001600160a01b03871682338761217c565b5050505050505050565b600061094373eD2d5EB3fbcDdF4e2e972F8C6CF37EffB7851d526343c57a27610dcf88611c83565b60405163809fdd3360e01b81526004810187905273eD2d5EB3fbcDdF4e2e972F8C6CF37EffB7851d529063809fdd3390602401602060405180830381865af4158015610e1f573d6000803e3d6000fd5b505050506040513d601f19601f82011682018060405250810190610e43919061489d565b88886040518563ffffffff1660e01b8152600401610e6494939291906145f0565b602060405180830381865af4158015610e81573d6000803e3d6000fd5b505050506040513d601f19601f820116820180604052508101906105ee9190614625565b610ead613999565b610eb5613a13565b6000610ec4866080015161094e565b9050846101a0015115610f125760c08401518111610eee57610ee46118af565b6060850152610f54565b610ee48660400151610f038660c001516121ba565b88608001518a6006015461201b565b60e08401518110610f2f57610f256118af565b6040850152610f54565b610f4e8660600151886005015488608001516107508860e001516121ba565b60408501525b5092959194509092505050565b6000610a97671bc16d674ec80000612111565b60006001600160801b03821115610fb95760405162461bcd60e51b815260206004820152600960248201526824ab17189b182fa7a360b91b60448201526064016109bf565b5090565b610fc5613999565b610fcd613a13565b60006101c08501526101a08401511561103f57825160c08401516060850151610ffb92916104d79190612210565b1561103a578251845261100e6000612111565b602085015261101d6000612111565b604085015261102c6000612111565b606085015260016101c08501525b6110a4565b61106283602001516104d78560e0015186604001516120ff90919063ffffffff16565b156110a4576110716000612111565b8452602080840151908501526110876000612111565b60408501526110966000612111565b606085015260016101c08501525b50829050815b9250929050565b60008282106109d3565b6000610a9769bbe31c8b3778369fffff19612111565b60008282116109d3565b6110e3613999565b6110eb613a13565b611111670de0b6b3a764000087600901544361110791906148ba565b610a9291906148d1565b61012085018190526060840151106111385761112d6000612111565b610100850152611197565b61119061118261117a61116b866080015161116588606001518a610120015161222890919063ffffffff16565b90612210565b6725b946ebc0b3617390612237565b611165611203565b61118a611203565b90612228565b6101008501525b50929491935090915050565b6060610a156111b9662386f26fc1000084614906565b61229c565b60006001600160801b03821115610fb95760405162461bcd60e51b815260206004820152600960248201526824ab1718991c2fa7a360b91b60448201526064016109bf565b6000610a97670de0b6b3a7640000612111565b600982015443908111156112335760098301819055600483018290555b505050565b611240613999565b611248613a13565b846101a001511561127b57611271611266846040015161118a611203565b6004880154906120ff565b60c0850152611197565b611294611266846040015161128e611203565b9061232f565b60e085015250929491935090915050565b6000610a158261233e565b6000610a97673782dace9d900000612111565b60006109df6112eb6112d3611203565b6111656112e3866080015161094e565b8754906120ff565b60018501541190565b60006003821115611355575080600061130e600283614906565b61131990600161491a565b90505b8181101561134f579050806002816113348186614906565b61133e919061491a565b6113489190614906565b905061131c565b50919050565b81156109c857506001919050565b600080611372868686866108ba565b90506113896106e482670de0b6b3a76400006148d1565b9695505050505050565b6040810151825460009182916113a891612228565b91506113c58360600151856001015461222890919063ffffffff16565b90509250929050565b60006113db8260126109e6565b60405163f637731d60e01b81526001600160a01b0380831660048301529192509089169063f637731d90602401600060405180830381600087803b15801561142257600080fd5b505af1158015611436573d6000803e3d6000fd5b50505050600061144589611c83565b905061145c6114548583614932565b60020b612111565b60038b015561146e611454858361497a565b60028b015561148861147e6110bb565b60038c0154121590565b80156114a457506114a461149a610a79565b60028c0154131590565b6114de5760405162461bcd60e51b815260206004820152600b60248201526a6c617267652072616e676560a81b60448201526064016109bf565b6114f38989898d600301548e60020154610a50565b60068c015560058b01556115126001600160a01b03891633308961217c565b6115276001600160a01b03881633308861217c565b61153086612111565b8a5561153b85612111565b8a6001018190555050505050505050505050565b60006109df61155f83600a614738565b6106e49060c086901b614906565b600061094361158f61157f8587612228565b61158986866120ff565b906120ff565b61116561159c8587612228565b88906120ff565b6000816113896115b587878785611363565b6001600160a01b0316612111565b6115cb613999565b6115d3613a13565b6115e66115e06000612111565b84511190565b801561160357506116036115fa6000612111565b60208501511190565b1561165157604051636415329d60e01b815260206004820152601e60248201527f72617820616e64207261792063616e6e6f7420626f7468206265203e2030000060448201526064016109bf565b61166461165e6000612111565b84511490565b801561168157506116816116786000612111565b60208501511490565b156116cf57604051636415329d60e01b815260206004820152601c60248201527f72617820616e64207261792063616e6e6f7420626f746820626520300000000060448201526064016109bf565b6116dc6115e06000612111565b1580156101a087015261170b576117046116fc846040015161118a611203565b8451906120ff565b845261172f565b61172961171e846040015161118a611203565b6020850151906120ff565b60208501525b50839050825b935093915050565b6060600084905060008490506000826001600160a01b03166395d89b416040518163ffffffff1660e01b8152600401600060405180830381865afa158015611789573d6000803e3d6000fd5b505050506040513d6000823e601f3d908101601f191682016040526117b191908101906149c1565b90506000826001600160a01b03166395d89b416040518163ffffffff1660e01b8152600401600060405180830381865afa1580156117f3573d6000803e3d6000fd5b505050506040513d6000823e601f3d908101601f1916820160405261181b91908101906149c1565b90508160405160200161182e9190614a63565b60408051601f198184030181529082905261184d918390602001614a88565b60408051601f198184030181529082905261186a91602001614ab7565b604051602081830303815290604052611882876111a3565b604051602001611893929190614a88565b6040516020818303038152906040529450505050509392505050565b6000610a976000612111565b60028301546119106118f96118ce610f61565b6118f3856118ed89600301548a6002015461275890919063ffffffff16565b90612767565b90612834565b60a0850151600287015461190c91612758565b1290565b156109df57610946611920610a79565b61050986600301546119388760a001516118ed610f61565b90612758565b336001600160a01b0388161461197c5760405162461bcd60e51b815260206004820152600360248201526231b11960e91b60448201526064016109bf565b600061198a828401846144e0565b905060008513156119ce57306001600160a01b038216036119b957610d626001600160a01b0388163387612119565b610d626001600160a01b03881682338861217c565b6000841315610d9d57306001600160a01b038216036119fb57610d626001600160a01b0387163386612119565b610d9d6001600160a01b03871682338761217c565b6000611a206106e483600a614738565b611a29846112f4565b611a3790600160601b6148d1565b6109df9190614906565b6000806001600160801b03871615611bf05760405163a34123a760e01b8152600287810b600483015286900b60248201526001600160801b038816604482015260009081906001600160a01b038b169063a34123a79060640160408051808303816000875af1158015611ab8573d6000803e3d6000fd5b505050506040513d601f19601f82011682018060405250810190611adc91906147cf565b91509150600085611af557611af0836111be565b611afe565b6001600160801b035b9050600086611b1557611b10836111be565b611b1e565b6001600160801b035b90506000826001600160801b03161180611b4157506000816001600160801b0316115b15611beb576040516309e3d67b60e31b81526001600160a01b03898116600483015260028c810b60248401528b900b60448301526001600160801b038085166064840152831660848301528d1690634f1eb3d89060a40160408051808303816000875af1158015611bb6573d6000803e3d6000fd5b505050506040513d601f19601f82011682018060405250810190611bda9190614adc565b6001600160801b0391821697501694505b505050505b965096945050505050565b600080611c0885856112c3565b15611c4557611c24611c18611203565b865461116590866120ff565b9150611c3e8286600501548660800151886006015461201b565b9050611735565b611c5f611c50611203565b600187015461116590866120ff565b9050611c798186600501548660800151886006015461156d565b9150935093915050565b6000806000836001600160a01b0316633850c7bd6040518163ffffffff1660e01b815260040160e060405180830381865afa158015611cc6573d6000803e3d6000fd5b505050506040513d601f19601f82011682018060405250810190611cea9190614805565b96505050505092505080611d4b5760405162461bcd60e51b815260206004820152602260248201527f49562e63757272656e745469636b3a2074686520706f6f6c206973206c6f636b604482015261195960f21b60648201526084016109bf565b5092915050565b611d5a613999565b611d62613a13565b836101a0015115611dd8576101008301516020860151611d81916120ff565b60a08501526080850151611d98906116fc9061094e565b60a0808501829052850151611dc0916116fc91611db5919061232f565b60a086015190612210565b8085528351611dce91612228565b6040850152611e52565b6101008301518551611de9916120ff565b846080018181525050611e0d611e02866080015161094e565b602085015190612210565b6080808501829052850151611e3891611e259161232f565b60808501516020860151611165916120ff565b6020808601829052840151611e4c91612228565b60608501525b5091939092509050565b600080611e68876128e1565b90508063ffffffff168463ffffffff1610611e835780611e85565b835b604051638241348960e01b81526001600160a01b038916600482015263ffffffff8216602482015290945060009073eD2d5EB3fbcDdF4e2e972F8C6CF37EffB7851d5290638241348990604401602060405180830381865af4158015611eef573d6000803e3d6000fd5b505050506040513d601f19601f82011682018060405250810190611f139190614b16565b60020b905073eD2d5EB3fbcDdF4e2e972F8C6CF37EffB7851d526343c57a278273eD2d5EB3fbcDdF4e2e972F8C6CF37EffB7851d5263809fdd33886040518263ffffffff1660e01b8152600401611f6c91815260200190565b602060405180830381865af4158015611f89573d6000803e3d6000fd5b505050506040513d601f19601f82011682018060405250810190611fad919061489d565b8a8a6040518563ffffffff1660e01b8152600401611fce94939291906145f0565b602060405180830381865af4158015611feb573d6000803e3d6000fd5b505050506040513d601f19601f8201168201806040525081019061200f9190614625565b98975050505050505050565b600061094361202a8385612228565b61116561159c61203a8789612228565b61158988886120ff565b600061205085856112c3565b156120855761207e6120726120678461128e611203565b6040870151906120ff565b865461043890866120ff565b9050610946565b6109436120a26120978461128e611203565b6060870151906120ff565b600187015461043890866120ff565b60038301546120d76120c46118ce610f61565b600386015460a086015161190c91612758565b156109df576109466120e76110bb565b6103fa86600201546119388760a001516118ed610f61565b60006109df61210e8484612a9a565b90565b600081610a15565b6040516001600160a01b03831660248201526044810182905261123390849063a9059cbb60e01b906064015b60408051601f198184030181529190526020810180516001600160e01b03166001600160e01b031990931692909217909152612b4e565b6040516001600160a01b03808516602483015283166044820152606481018290526121b49085906323b872dd60e01b90608401612145565b50505050565b6000817812725dd1d243aba0e75fe645cc4873f9e65afe688c928e1f218111156121fa5760405163edc236ad60e01b8152600481018490526024016109bf565b6109df61210e670de0b6b3a76400008302612c20565b60006109df61210e84670de0b6b3a764000085612d98565b60006109df61210e83856148ba565b6000828281830361226057801561224f576000612259565b670de0b6b3a76400005b9250612294565b670de0b6b3a7640000810361227757849250612294565b61229161228c61228687612e6c565b866120ff565b612f93565b92505b505092915050565b606060006122a983612fe8565b600101905060008167ffffffffffffffff8111156122c9576122c9613c2b565b6040519080825280601f01601f1916602001820160405280156122f3576020820181803683370190505b5090508181016020015b600019016f181899199a1a9b1b9c1cb0b131b232b360811b600a86061a8153600a85049450846122fd57509392505050565b60006109df61210e838561491a565b60008060008360020b12612355578260020b612362565b8260020b61236290614771565b9050612371620d89e719614b33565b62ffffff168111156123a95760405162461bcd60e51b81526020600482015260016024820152601560fa1b60448201526064016109bf565b6000816001166000036123c057600160801b6123d2565b6ffffcb933bd6fad37aa2d162d1a5940015b70ffffffffffffffffffffffffffffffffff169050600282161561241157608061240c826ffff97272373d413259a46990580e213a6148d1565b901c90505b600482161561243b576080612436826ffff2e50f5f656932ef12357cf3c7fdcc6148d1565b901c90505b6008821615612465576080612460826fffe5caca7e10e4e61c3624eaa0941cd06148d1565b901c90505b601082161561248f57608061248a826fffcb9843d60f6159c9db58835c9266446148d1565b901c90505b60208216156124b95760806124b4826fff973b41fa98c081472e6896dfb254c06148d1565b901c90505b60408216156124e35760806124de826fff2ea16466c96a3843ec78b326b528616148d1565b901c90505b608082161561250d576080612508826ffe5dee046a99a2a811c461f1969c30536148d1565b901c90505b610100821615612538576080612533826ffcbe86c7900a88aedcffc83b479aa3a46148d1565b901c90505b61020082161561256357608061255e826ff987a7253ac413176f2b074cf7815e546148d1565b901c90505b61040082161561258e576080612589826ff3392b0822b70005940c7a398e4b70f36148d1565b901c90505b6108008216156125b95760806125b4826fe7159475a2c29b7443b29c7fa6e889d96148d1565b901c90505b6110008216156125e45760806125df826fd097f3bdfd2022b8845ad8f792aa58256148d1565b901c90505b61200082161561260f57608061260a826fa9f746462d870fdf8a65dc1f90e061e56148d1565b901c90505b61400082161561263a576080612635826f70d869a156d2a1b890bb3df62baf32f76148d1565b901c90505b618000821615612665576080612660826f31be135f97d08fd981231505542fcfa66148d1565b901c90505b6201000082161561269157608061268c826f09aa508b5b7a84e1c677de54f3e99bc96148d1565b901c90505b620200008216156126bc5760806126b7826e5d6af8dedb81196699c329225ee6046148d1565b901c90505b620400008216156126e65760806126e1826d2216e584f5fa1ea926041bedfe986148d1565b901c90505b6208000082161561270e576080612709826b048a170391f7dc42444e8fa26148d1565b901c90505b60008460020b13156127295761272681600019614906565b90505b61273864010000000082614b55565b15612744576001612747565b60005b6109469060ff16602083901c61491a565b60006109df61210e8385614b69565b60008282600160ff1b8214806127805750600160ff1b81145b1561279e5760405163a6070c2560e01b815260040160405180910390fd5b600080600084126127af57836127b4565b836000035b9150600083126127c457826127c9565b826000035b905060006127d78383612a9a565b90506001600160ff1b0381111561280b5760405163120b5b4360e01b815260048101899052602481018890526044016109bf565b6000198585181361282781612823578260000361210e565b8290565b9998505050505050505050565b60008282600160ff1b82148061284d5750600160ff1b81145b1561286b576040516309fe2b4560e41b815260040160405180910390fd5b6000806000841261287c5783612881565b836000035b9150600083126128915782612896565b826000035b905060006128ad83670de0b6b3a764000084612d98565b90506001600160ff1b0381111561280b5760405163d49c26b360e01b815260048101899052602481018890526044016109bf565b6000806000836001600160a01b0316633850c7bd6040518163ffffffff1660e01b815260040160e060405180830381865afa158015612924573d6000803e3d6000fd5b505050506040513d601f19601f820116820180604052508101906129489190614805565b50505093509350505060008161ffff161161298a5760405162461bcd60e51b81526020600482015260026024820152614e4960f01b60448201526064016109bf565b6000806001600160a01b03861663252c09d7846129a8876001614ba8565b6129b29190614bc5565b6040516001600160e01b031960e084901b16815261ffff9091166004820152602401608060405180830381865afa1580156129f1573d6000803e3d6000fd5b505050506040513d601f19601f82011682018060405250810190612a159190614be6565b93505050915080612a905760405163252c09d760e01b8152600060048201526001600160a01b0387169063252c09d790602401608060405180830381865afa158015612a65573d6000803e3d6000fd5b505050506040513d601f19601f82011682018060405250810190612a899190614be6565b5091935050505b6113898242614c41565b60008080600019848609848602925082811083820303915050670de0b6b3a76400008110612ae557604051635173648d60e01b815260048101869052602481018590526044016109bf565b6000670de0b6b3a7640000858709905081600003612b11575050670de0b6b3a764000090049050610a15565b620400008184030492109003600160ee1b02177faccb18165bd6fe31ae1cf318dc5b51eee0e1ba569b88cd74c1773b91fac1066902905092915050565b6000612ba3826040518060400160405280602081526020017f5361666545524332303a206c6f772d6c6576656c2063616c6c206661696c6564815250856001600160a01b03166130c09092919063ffffffff16565b8051909150156112335780806020019051810190612bc19190614c66565b6112335760405162461bcd60e51b815260206004820152602a60248201527f5361666545524332303a204552433230206f7065726174696f6e20646964206e6044820152691bdd081cdd58d8d9595960b21b60648201526084016109bf565b600081600003612c3257506000919050565b50600181600160801b8110612c4c5760409190911b9060801c5b680100000000000000008110612c675760209190911b9060401c5b6401000000008110612c7e5760109190911b9060201c5b620100008110612c935760089190911b9060101c5b6101008110612ca75760049190911b9060081c5b60108110612cba5760029190911b9060041c5b60048110612cca57600182901b91505b6001828481612cdb57612cdb6148f0565b048301901c91506001828481612cf357612cf36148f0565b048301901c91506001828481612d0b57612d0b6148f0565b048301901c91506001828481612d2357612d236148f0565b048301901c91506001828481612d3b57612d3b6148f0565b048301901c91506001828481612d5357612d536148f0565b048301901c91506001828481612d6b57612d6b6148f0565b048301901c91506000828481612d8357612d836148f0565b049050808310612d91578092505b5050919050565b6000808060001985870985870292508281108382030391505080600003612dd257838281612dc857612dc86148f0565b04925050506109df565b838110612e0357604051630c740aef60e31b81526004810187905260248101869052604481018590526064016109bf565b60008486880960026001871981018816978890046003810283188082028403028082028403028082028403028082028403028082028403029081029092039091026000889003889004909101858311909403939093029303949094049190911702949350505050565b600081670de0b6b3a7640000811015612e9b5760405163036d32ef60e41b8152600481018490526024016109bf565b6000612f1e670de0b6b3a7640000830460016001600160801b03821160071b91821c67ffffffffffffffff811160061b90811c63ffffffff811160051b90811c61ffff811160041b90811c60ff8111600390811b91821c600f811160021b90811c918211871b91821c969096119490961792909217171791909117919091171790565b9050670de0b6b3a7640000810282821c670de0b6b3a763ffff198101612f445781611389565b671bc16d674ec800006706f05b59d3b200005b8015612f8757670de0b6b3a7640000838002049250818310612f7f579283019260019290921c915b60011c612f57565b50919695505050505050565b600081680a688906bd8b0000008110612fc25760405163b3b6ba1f60e01b8152600481018490526024016109bf565b6000612fda670de0b6b3a7640000604084901b614906565b905061094661210e826130cf565b60008072184f03e93ff9f4daa797ed6e38ed64bf6a1f0160401b83106130275772184f03e93ff9f4daa797ed6e38ed64bf6a1f0160401b830492506040015b6d04ee2d6d415b85acef81000000008310613053576d04ee2d6d415b85acef8100000000830492506020015b662386f26fc10000831061307157662386f26fc10000830492506010015b6305f5e1008310613089576305f5e100830492506008015b612710831061309d57612710830492506004015b606483106130af576064830492506002015b600a8310610a155760010192915050565b60606109468484600085613830565b600160bf1b67ff000000000000008216156131dc576780000000000000008216156131035768016a09e667f3bcc9090260401c5b674000000000000000821615613122576801306fe0a31b7152df0260401c5b672000000000000000821615613141576801172b83c7d517adce0260401c5b6710000000000000008216156131605768010b5586cf9890f62a0260401c5b67080000000000000082161561317f576801059b0d31585743ae0260401c5b67040000000000000082161561319e57680102c9a3e778060ee70260401c5b6702000000000000008216156131bd5768010163da9fb33356d80260401c5b6701000000000000008216156131dc57680100b1afa5abcbed610260401c5b66ff0000000000008216156132db5766800000000000008216156132095768010058c86da1c09ea20260401c5b6640000000000000821615613227576801002c605e2e8cec500260401c5b662000000000000082161561324557680100162f3904051fa10260401c5b6610000000000000821615613263576801000b175effdc76ba0260401c5b660800000000000082161561328157680100058ba01fb9f96d0260401c5b660400000000000082161561329f5768010002c5cc37da94920260401c5b66020000000000008216156132bd576801000162e525ee05470260401c5b66010000000000008216156132db5768010000b17255775c040260401c5b65ff00000000008216156133d15765800000000000821615613306576801000058b91b5bc9ae0260401c5b6540000000000082161561332357680100002c5c89d5ec6d0260401c5b652000000000008216156133405768010000162e43f4f8310260401c5b6510000000000082161561335d57680100000b1721bcfc9a0260401c5b6508000000000082161561337a5768010000058b90cf1e6e0260401c5b65040000000000821615613397576801000002c5c863b73f0260401c5b650200000000008216156133b457680100000162e430e5a20260401c5b650100000000008216156133d1576801000000b1721835510260401c5b64ff000000008216156134be576480000000008216156133fa57680100000058b90c0b490260401c5b6440000000008216156134165768010000002c5c8601cc0260401c5b642000000000821615613432576801000000162e42fff00260401c5b64100000000082161561344e5768010000000b17217fbb0260401c5b64080000000082161561346a576801000000058b90bfce0260401c5b64040000000082161561348657680100000002c5c85fe30260401c5b6402000000008216156134a25768010000000162e42ff10260401c5b6401000000008216156134be57680100000000b17217f80260401c5b64ff000000008216156135a35763800000008216156134e65768010000000058b90bfc0260401c5b6340000000821615613501576801000000002c5c85fe0260401c5b632000000082161561351c57680100000000162e42ff0260401c5b6310000000821615613537576801000000000b17217f0260401c5b630800000082161561355257680100000000058b90c00260401c5b630400000082161561356d5768010000000002c5c8600260401c5b6302000000821615613588576801000000000162e4300260401c5b63010000008216156135a35768010000000000b172180260401c5b62ff000082161561367e57628000008216156135c8576801000000000058b90c0260401c5b624000008216156135e257680100000000002c5c860260401c5b622000008216156135fc5768010000000000162e430260401c5b6210000082161561361657680100000000000b17210260401c5b620800008216156136305768010000000000058b910260401c5b6204000082161561364a576801000000000002c5c80260401c5b6202000082161561366457680100000000000162e40260401c5b6201000082161561367e576801000000000000b1720260401c5b61ff00821615613750576180008216156136a157680100000000000058b90260401c5b6140008216156136ba5768010000000000002c5d0260401c5b6120008216156136d3576801000000000000162e0260401c5b6110008216156136ec5768010000000000000b170260401c5b610800821615613705576801000000000000058c0260401c5b61040082161561371e57680100000000000002c60260401c5b61020082161561373757680100000000000001630260401c5b61010082161561375057680100000000000000b10260401c5b60ff82161561381957608082161561377157680100000000000000590260401c5b6040821615613789576801000000000000002c0260401c5b60208216156137a157680100000000000000160260401c5b60108216156137b9576801000000000000000b0260401c5b60088216156137d157680100000000000000060260401c5b60048216156137e957680100000000000000030260401c5b600282161561380157680100000000000000010260401c5b600182161561381957680100000000000000010260401c5b670de0b6b3a76400000260409190911c60bf031c90565b6060824710156138915760405162461bcd60e51b815260206004820152602660248201527f416464726573733a20696e73756666696369656e742062616c616e636520666f6044820152651c8818d85b1b60d21b60648201526084016109bf565b600080866001600160a01b031685876040516138ad9190614c83565b60006040518083038185875af1925050503d80600081146138ea576040519150601f19603f3d011682016040523d82523d6000602084013e6138ef565b606091505b5091509150610cc5878383876060831561396a578251600003613963576001600160a01b0385163b6139635760405162461bcd60e51b815260206004820152601d60248201527f416464726573733a2063616c6c20746f206e6f6e2d636f6e747261637400000060448201526064016109bf565b5081610946565b610946838381511561397f5781518083602001fd5b8060405162461bcd60e51b81526004016109bf9190613bbd565b604051806101e00160405280600081526020016000815260200160008152602001600081526020016000815260200160008152602001600081526020016000815260200160008152602001600081526020016000815260200160008152602001600081526020016000151581526020016000151581525090565b604051806101400160405280600081526020016000815260200160008152602001600081526020016000815260200160008152602001600081526020016000815260200160008152602001600081525090565b6001600160a01b0381168114613a7b57600080fd5b50565b8060020b8114613a7b57600080fd5b60008060008060808587031215613aa357600080fd5b8435613aae81613a66565b93506020850135613abe81613a66565b92506040850135613ace81613a66565b91506060850135613ade81613a7e565b939692955090935050565b600060208284031215613afb57600080fd5b5035919050565b60008060408385031215613b1557600080fd5b50508035926020909101359150565b600080600060608486031215613b3957600080fd5b8335613b4481613a66565b92506020840135613b5481613a66565b929592945050506040919091013590565b60005b83811015613b80578181015183820152602001613b68565b838111156121b45750506000910152565b60008151808452613ba9816020860160208601613b65565b601f01601f19169290920160200192915050565b6020815260006109df6020830184613b91565b600080600080600060a08688031215613be857600080fd5b8535613bf381613a66565b94506020860135613c0381613a66565b93506040860135613c1381613a66565b94979396509394606081013594506080013592915050565b634e487b7160e01b600052604160045260246000fd5b6040516101e0810167ffffffffffffffff81118282101715613c6557613c65613c2b565b60405290565b604051610140810167ffffffffffffffff81118282101715613c6557613c65613c2b565b8015158114613a7b57600080fd5b80356109c881613c8f565b60006101e08284031215613cbb57600080fd5b613cc3613c41565b9050813581526020820135602082015260408201356040820152606082013560608201526080820135608082015260a082013560a082015260c082013560c082015260e082013560e08201526101008083013581830152506101208083013581830152506101408083013581830152506101608083013581830152506101808083013581830152506101a0613d59818401613c9d565b908201526101c0613d6b838201613c9d565b9082015292915050565b600060a08284031215613d8757600080fd5b60405160a0810181811067ffffffffffffffff82111715613daa57613daa613c2b565b806040525080915082358152602083013560208201526040830135604082015260608301356060820152608083013560808201525092915050565b6000806102808385031215613df957600080fd5b613e038484613ca8565b91506113c5846101e08501613d75565b805182526020810151602083015260408101516040830152606081015160608301526080810151608083015260a081015160a083015260c081015160c083015260e081015160e08301526101008082015181840152506101208082015181840152506101408082015181840152506101608082015181840152506101808082015181840152506101a080820151613ead8285018215159052565b50506101c081810151801515848301526121b4565b6101e08101610a158284613e13565b6001600160801b0381168114613a7b57600080fd5b60008060008060808587031215613efc57600080fd5b8435613f0781613a66565b93506020850135613f1781613a7e565b92506040850135613f2781613a7e565b91506060850135613ade81613ed1565b600060c08284031215613f4957600080fd5b60405160c0810181811067ffffffffffffffff82111715613f6c57613f6c613c2b565b8060405250809150823581526020830135602082015260408301356040820152606083013560608201526080830135608082015260a083013560a08201525092915050565b60008060006101008486031215613fc757600080fd5b83359250613fd88560208601613f37565b915060e084013590509250925092565b600080600080600060a0868803121561400057600080fd5b853561400b81613a66565b9450602086013561401b81613a7e565b93506040860135613c1381613a7e565b60008083601f84011261403d57600080fd5b50813567ffffffffffffffff81111561405557600080fd5b6020830191508360208285010111156110aa57600080fd5b600080600080600080600060c0888a03121561408857600080fd5b873561409381613a66565b965060208801356140a381613a66565b955060408801356140b381613a66565b9450606088013593506080880135925060a088013567ffffffffffffffff8111156140dd57600080fd5b6140e98a828b0161402b565b989b979a50959850939692959293505050565b6000806000806080858703121561411257600080fd5b843561411d81613a66565b9350602085013561412d81613a66565b9250604085013561413d81613a66565b9396929550929360600135925050565b6000610140828403121561416057600080fd5b614168613c6b565b9050813581526020820135602082015260408201356040820152606082013560608201526080820135608082015260a082013560a082015260c082013560c082015260e082013560e082015261010080830135818301525061012080830135818301525092915050565b60008060008061040085870312156141e957600080fd5b843593506141fa8660208701613f37565b92506142098660e08701613ca8565b9150614219866102c0870161414d565b905092959194509250565b61032081016142338285613e13565b82516101e0830152602083015161020083015260408301516102208301526060830151610240830152608083015161026083015260a083015161028083015260c08301516102a083015260e08301516102c08301526101008301516102e08301526101208301516103008301529392505050565b60008061032083850312156142bb57600080fd5b6142c58484613ca8565b91506113c5846101e0850161414d565b6000806000806103e085870312156142ec57600080fd5b843593506142fd8660208701613ca8565b925061430d86610200870161414d565b9150614219866103408701613d75565b60006020828403121561432f57600080fd5b81356109df81613a7e565b60008060e0838503121561434d57600080fd5b823591506113c58460208501613f37565b600080600080600080600080610100898b03121561437b57600080fd5b88359750602089013561438d81613a66565b9650604089013561439d81613a66565b955060608901356143ad81613a66565b94506080890135935060a0890135925060c08901356143cb81613a7e565b8092505060e089013590509295985092959890939650565b600080600080608085870312156143f957600080fd5b5050823594602084013594506040840135936060013592509050565b60008060006103c0848603121561442b57600080fd5b6144358585613ca8565b9250614445856101e0860161414d565b9150614455856103208601613d75565b90509250925092565b60008060008060008060c0878903121561447757600080fd5b863561448281613a66565b9550602087013561449281613ed1565b945060408701356144a281613a7e565b935060608701356144b281613a7e565b925060808701356144c281613a66565b915060a08701356144d281613c8f565b809150509295509295509295565b6000602082840312156144f257600080fd5b81356109df81613a66565b60008060006103e0848603121561451357600080fd5b61451d8585613f37565b925061452c8560c08601613ca8565b9150614455856102a0860161414d565b63ffffffff81168114613a7b57600080fd5b600080600080600060a0868803121561456657600080fd5b853561457181613a66565b9450602086013561458181613a66565b9350604086013561459181613a66565b925060608601356145a18161453c565b949793965091946080013592915050565b60008060008061012085870312156145c957600080fd5b843593506145da8660208701613f37565b939693955050505060e082013591610100013590565b60029490940b84526001600160801b039290921660208401526001600160a01b03908116604084015216606082015260800190565b60006020828403121561463757600080fd5b5051919050565b634e487b7160e01b600052601160045260246000fd5b600181815b8085111561468f5781600019048211156146755761467561463e565b8085161561468257918102915b93841c9390800290614659565b509250929050565b6000826146a657506001610a15565b816146b357506000610a15565b81600181146146c957600281146146d3576146ef565b6001915050610a15565b60ff8411156146e4576146e461463e565b50506001821b610a15565b5060208310610133831016604e8410600b8410161715614712575081810a610a15565b61471c8383614654565b80600019048211156147305761473061463e565b029392505050565b60006109df8383614697565b64029b7b637960dd1b815260008251614764816005850160208701613b65565b9190910160050192915050565b6000600160ff1b82016147865761478661463e565b5060000390565b60018060a01b03861681528460020b60208201528360020b60408201526001600160801b038316606082015260a060808201526000610cc560a0830184613b91565b600080604083850312156147e257600080fd5b505080516020909101519092909150565b805161ffff811681146109c857600080fd5b600080600080600080600060e0888a03121561482057600080fd5b875161482b81613a66565b602089015190975061483c81613a7e565b955061484a604089016147f3565b9450614858606089016147f3565b9350614866608089016147f3565b925060a088015160ff8116811461487c57600080fd5b60c089015190925061488d81613c8f565b8091505092959891949750929550565b6000602082840312156148af57600080fd5b81516109df81613ed1565b6000828210156148cc576148cc61463e565b500390565b60008160001904831182151516156148eb576148eb61463e565b500290565b634e487b7160e01b600052601260045260246000fd5b600082614915576149156148f0565b500490565b6000821982111561492d5761492d61463e565b500190565b60008160020b8360020b6000811281627fffff19018312811516156149595761495961463e565b81627fffff0183138116156149705761497061463e565b5090039392505050565b60008160020b8360020b6000821282627fffff038213811516156149a0576149a061463e565b82627fffff190382128116156149b8576149b861463e565b50019392505050565b6000602082840312156149d357600080fd5b815167ffffffffffffffff808211156149eb57600080fd5b818401915084601f8301126149ff57600080fd5b815181811115614a1157614a11613c2b565b604051601f8201601f19908116603f01168101908382118183101715614a3957614a39613c2b565b81604052828152876020848701011115614a5257600080fd5b610cc5836020830160208801613b65565b60008251614a75818460208701613b65565b602d60f81b920191825250600101919050565b60008351614a9a818460208801613b65565b835190830190614aae818360208801613b65565b01949350505050565b60008251614ac9818460208701613b65565b601d60f91b920191825250600101919050565b60008060408385031215614aef57600080fd5b8251614afa81613ed1565b6020840151909250614b0b81613ed1565b809150509250929050565b600060208284031215614b2857600080fd5b81516109df81613a7e565b60008160020b627fffff198103614b4c57614b4c61463e565b60000392915050565b600082614b6457614b646148f0565b500690565b60008083128015600160ff1b850184121615614b8757614b8761463e565b6001600160ff1b0384018313811615614ba257614ba261463e565b50500390565b600061ffff808316818516808303821115614aae57614aae61463e565b600061ffff80841680614bda57614bda6148f0565b92169190910692915050565b60008060008060808587031215614bfc57600080fd5b8451614c078161453c565b8094505060208501518060060b8114614c1f57600080fd5b6040860151909350614c3081613a66565b6060860151909250613ade81613c8f565b600063ffffffff83811690831681811015614c5e57614c5e61463e565b039392505050565b600060208284031215614c7857600080fd5b81516109df81613c8f565b60008251614c95818460208701613b65565b919091019291505056fea164736f6c634300080e000a",
  "deployedBytecode": "0x73000000000000000000000000000000000000000030146080604052600436106103ae5760003560e01c806392550593116101f3578063bc1b392d11610119578063e8ffd56f116100b7578063f104732611610086578063f10473261461066d578063f4aab35814610881578063f599848114610894578063f7815235146108a757600080fd5b8063e8ffd56f14610822578063e92ceeb914610848578063ea6515c41461085b578063ee89e3d21461086e57600080fd5b8063c93515c7116100f3578063c93515c7146107dc578063cbbcdf23146107ef578063db6be7e51461080f578063e54a1660146105d857600080fd5b8063bc1b392d146107a1578063be7fdafc146107a9578063c61f361a146107bc57600080fd5b8063ae788ecf11610191578063b22e2b5211610160578063b22e2b5214610755578063b27aab6714610768578063b47733291461077b578063bade10c61461078e57600080fd5b8063ae788ecf146106fc578063af12d5d81461070f578063b03b3d081461072f578063b1d5db1b1461074257600080fd5b8063a1fca2b6116101cd578063a1fca2b6146106bb578063a8e4e543146106c3578063ab791114146106d6578063adb9138c146106e957600080fd5b8063925505931461067557806392ad6e0014610695578063986cfba3146106a857600080fd5b80633ecbeab0116102d85780636d5433e6116102765780637df1cbfe116102455780637df1cbfe14610634578063858afc2f1461064757806388b77fae1461065a578063901717d11461066d57600080fd5b80636d5433e61461060657806372fcfbf81461061957806377d7e6571461054c5780637ae2b5c71461062157600080fd5b806354552b72116102b257806354552b72146105b75780635fdf05d7146105d8578063664ae8b4146105e0578063688077fa146105f357600080fd5b80633ecbeab01461055e5780634532de9e1461058057806348483d17146105a457600080fd5b80631db3b6dd116103505780632a4c02bd1161031f5780632a4c02bd146104fb5780632e2491291461050e5780632fa5aaae1461052157806332148d731461054c57600080fd5b80631db3b6dd146104a15780631fdc090c146104a957806321e5749b146104c957806328fe7535146104db57600080fd5b80630fc7fda11161038c5780630fc7fda1146103ff578063118fc88c1461042a5780631ae212c51461044c5780631d6d760a1461046c57600080fd5b8063054a2672146103b357806308fe23ca146103d95780630e3e2d88146103ec575b600080fd5b6103c66103c1366004613a8d565b6108ba565b6040519081526020015b60405180910390f35b6103c66103e7366004613ae9565b61094e565b6103c66103fa366004613b02565b6109cd565b61041261040d366004613b02565b6109e6565b6040516001600160a01b0390911681526020016103d0565b61043c610438366004613b02565b1190565b60405190151581526020016103d0565b61045f61045a366004613b24565b610a1b565b6040516103d09190613bbd565b81801561047857600080fd5b5061048c610487366004613bd0565b610a50565b604080519283526020830191909152016103d0565b6103c6610a79565b6104bc6104b7366004613de5565b610a9c565b6040516103d09190613ec2565b61043c6104d7366004613b02565b1090565b8180156104e757600080fd5b5061048c6104f6366004613ee6565b610ac6565b6103c6610509366004613b02565b610b76565b61048c61051c366004613fb1565b610b80565b61053461052f366004613fe8565b610ba5565b6040516001600160801b0390911681526020016103d0565b61043c61055a366004613b02565b1490565b81801561056a57600080fd5b5061057e61057936600461406d565b610cd0565b005b81801561058c57600080fd5b5061057e61059b366004613ae9565b43600990910155565b6104126105b23660046140fc565b610da7565b6105ca6105c53660046141d2565b610ea5565b6040516103d0929190614224565b6103c6610f61565b6104126105ee366004613ae9565b610f74565b6105ca6106013660046142a7565b610fbd565b6103c6610614366004613b02565b6110b1565b6103c66110bb565b6103c661062f366004613b02565b6110d1565b6105ca6106423660046142d5565b6110db565b61045f610655366004613ae9565b6111a3565b610534610668366004613ae9565b6111be565b6103c6611203565b81801561068157600080fd5b5061057e610690366004613b02565b611216565b6105ca6106a33660046142d5565b611238565b6104126106b636600461431d565b6112a5565b6103c66112b0565b61043c6106d136600461433a565b6112c3565b6103c66106e4366004613ae9565b6112f4565b6104126106f7366004613a8d565b611363565b61048c61070a36600461433a565b611393565b81801561071b57600080fd5b5061057e61072a36600461435e565b6113ce565b61041261073d366004613b02565b61154f565b6103c66107503660046143e3565b61156d565b6103c66107633660046140fc565b6115a3565b6105ca610776366004614415565b6115c3565b61043c610789366004613b02565b111590565b61045f61079c366004613b24565b61173d565b6103c66118af565b6103c66107b7366004613fb1565b6118bb565b8180156107c857600080fd5b5061057e6107d736600461406d565b61193e565b6104126107ea366004613b02565b611a10565b8180156107fb57600080fd5b5061048c61080a36600461445e565b611a41565b61048c61081d366004613fb1565b611bfb565b6108356108303660046144e0565b611c83565b60405160029190910b81526020016103d0565b6105ca6108563660046144fd565b611d52565b61043c610869366004613b02565b101590565b6103c661087c36600461454e565b611e5c565b6103c661088f3660046143e3565b61201b565b61043c6108a23660046145b2565b612044565b6103c66108b5366004613fb1565b6120b1565b6040516343c57a2760e01b815260009073__$f74b04122c2dfd4e484a1fbae5c5c2e341$__906343c57a2790610902908590670de0b6b3a764000090899089906004016145f0565b602060405180830381865af415801561091f573d6000803e3d6000fd5b505050506040513d601f19601f820116820180604052508101906109439190614625565b90505b949350505050565b600061095a82806120ff565b905061096c6109676118af565b831490565b80610984575061098261097d6118af565b821490565b155b6109c85760405162461bcd60e51b815260206004820152601060248201526f0737120726573756c74656420696e20360841b60448201526064015b60405180910390fd5b919050565b60008282125b6109dd57816109df565b825b9392505050565b60006109f382600a614738565b831015610a0b57610a04838361154f565b9050610a15565b610a048383611a10565b92915050565b6060610a2884848461173d565b604051602001610a389190614744565b60405160208183030381529060405290509392505050565b600080610a5f878787876115a3565b9150610a6d878787866115a3565b90509550959350505050565b6000610a97610a9269bbe31c8b3778369fffff19614771565b612111565b905090565b610aa4613999565b610ab7610ab16000612111565b83511190565b15156101a08401525090919050565b6000806001600160801b03831615610b6d57604080513060208083018290528351808403909101815282840193849052633c8a7d8d60e01b9093526001600160a01b03891692633c8a7d8d92610b2592918a918a918a9160440161478d565b60408051808303816000875af1158015610b43573d6000803e3d6000fd5b505050506040513d601f19601f82011682018060405250810190610b6791906147cf565b90925090505b94509492505050565b60008282136109d3565b600080610b8e8585856120b1565b9150610b9b8585856118bb565b9050935093915050565b600080866001600160a01b0316633850c7bd6040518163ffffffff1660e01b815260040160e060405180830381865afa158015610be6573d6000803e3d6000fd5b505050506040513d601f19601f82011682018060405250810190610c0a9190614805565b505050505050905073__$f74b04122c2dfd4e484a1fbae5c5c2e341$__636098fd4a82610c36896112a5565b610c3f896112a5565b60405160e085901b6001600160e01b03191681526001600160a01b03938416600482015291831660248301529091166044820152606481018790526084810186905260a401602060405180830381865af4158015610ca1573d6000803e3d6000fd5b505050506040513d601f19601f82011682018060405250810190610cc5919061489d565b979650505050505050565b336001600160a01b03881614610d0e5760405162461bcd60e51b815260206004820152600360248201526263623160e81b60448201526064016109bf565b6000610d1c828401846144e0565b9050306001600160a01b03821603610d67578415610d4857610d486001600160a01b0388163387612119565b8315610d6257610d626001600160a01b0387163386612119565b610d9d565b8415610d8257610d826001600160a01b03881682338861217c565b8315610d9d57610d9d6001600160a01b03871682338761217c565b5050505050505050565b600061094373__$f74b04122c2dfd4e484a1fbae5c5c2e341$__6343c57a27610dcf88611c83565b60405163809fdd3360e01b81526004810187905273__$f74b04122c2dfd4e484a1fbae5c5c2e341$__9063809fdd3390602401602060405180830381865af4158015610e1f573d6000803e3d6000fd5b505050506040513d601f19601f82011682018060405250810190610e43919061489d565b88886040518563ffffffff1660e01b8152600401610e6494939291906145f0565b602060405180830381865af4158015610e81573d6000803e3d6000fd5b505050506040513d601f19601f820116820180604052508101906105ee9190614625565b610ead613999565b610eb5613a13565b6000610ec4866080015161094e565b9050846101a0015115610f125760c08401518111610eee57610ee46118af565b6060850152610f54565b610ee48660400151610f038660c001516121ba565b88608001518a6006015461201b565b60e08401518110610f2f57610f256118af565b6040850152610f54565b610f4e8660600151886005015488608001516107508860e001516121ba565b60408501525b5092959194509092505050565b6000610a97671bc16d674ec80000612111565b60006001600160801b03821115610fb95760405162461bcd60e51b815260206004820152600960248201526824ab17189b182fa7a360b91b60448201526064016109bf565b5090565b610fc5613999565b610fcd613a13565b60006101c08501526101a08401511561103f57825160c08401516060850151610ffb92916104d79190612210565b1561103a578251845261100e6000612111565b602085015261101d6000612111565b604085015261102c6000612111565b606085015260016101c08501525b6110a4565b61106283602001516104d78560e0015186604001516120ff90919063ffffffff16565b156110a4576110716000612111565b8452602080840151908501526110876000612111565b60408501526110966000612111565b606085015260016101c08501525b50829050815b9250929050565b60008282106109d3565b6000610a9769bbe31c8b3778369fffff19612111565b60008282116109d3565b6110e3613999565b6110eb613a13565b611111670de0b6b3a764000087600901544361110791906148ba565b610a9291906148d1565b61012085018190526060840151106111385761112d6000612111565b610100850152611197565b61119061118261117a61116b866080015161116588606001518a610120015161222890919063ffffffff16565b90612210565b6725b946ebc0b3617390612237565b611165611203565b61118a611203565b90612228565b6101008501525b50929491935090915050565b6060610a156111b9662386f26fc1000084614906565b61229c565b60006001600160801b03821115610fb95760405162461bcd60e51b815260206004820152600960248201526824ab1718991c2fa7a360b91b60448201526064016109bf565b6000610a97670de0b6b3a7640000612111565b600982015443908111156112335760098301819055600483018290555b505050565b611240613999565b611248613a13565b846101a001511561127b57611271611266846040015161118a611203565b6004880154906120ff565b60c0850152611197565b611294611266846040015161128e611203565b9061232f565b60e085015250929491935090915050565b6000610a158261233e565b6000610a97673782dace9d900000612111565b60006109df6112eb6112d3611203565b6111656112e3866080015161094e565b8754906120ff565b60018501541190565b60006003821115611355575080600061130e600283614906565b61131990600161491a565b90505b8181101561134f579050806002816113348186614906565b61133e919061491a565b6113489190614906565b905061131c565b50919050565b81156109c857506001919050565b600080611372868686866108ba565b90506113896106e482670de0b6b3a76400006148d1565b9695505050505050565b6040810151825460009182916113a891612228565b91506113c58360600151856001015461222890919063ffffffff16565b90509250929050565b60006113db8260126109e6565b60405163f637731d60e01b81526001600160a01b0380831660048301529192509089169063f637731d90602401600060405180830381600087803b15801561142257600080fd5b505af1158015611436573d6000803e3d6000fd5b50505050600061144589611c83565b905061145c6114548583614932565b60020b612111565b60038b015561146e611454858361497a565b60028b015561148861147e6110bb565b60038c0154121590565b80156114a457506114a461149a610a79565b60028c0154131590565b6114de5760405162461bcd60e51b815260206004820152600b60248201526a6c617267652072616e676560a81b60448201526064016109bf565b6114f38989898d600301548e60020154610a50565b60068c015560058b01556115126001600160a01b03891633308961217c565b6115276001600160a01b03881633308861217c565b61153086612111565b8a5561153b85612111565b8a6001018190555050505050505050505050565b60006109df61155f83600a614738565b6106e49060c086901b614906565b600061094361158f61157f8587612228565b61158986866120ff565b906120ff565b61116561159c8587612228565b88906120ff565b6000816113896115b587878785611363565b6001600160a01b0316612111565b6115cb613999565b6115d3613a13565b6115e66115e06000612111565b84511190565b801561160357506116036115fa6000612111565b60208501511190565b1561165157604051636415329d60e01b815260206004820152601e60248201527f72617820616e64207261792063616e6e6f7420626f7468206265203e2030000060448201526064016109bf565b61166461165e6000612111565b84511490565b801561168157506116816116786000612111565b60208501511490565b156116cf57604051636415329d60e01b815260206004820152601c60248201527f72617820616e64207261792063616e6e6f7420626f746820626520300000000060448201526064016109bf565b6116dc6115e06000612111565b1580156101a087015261170b576117046116fc846040015161118a611203565b8451906120ff565b845261172f565b61172961171e846040015161118a611203565b6020850151906120ff565b60208501525b50839050825b935093915050565b6060600084905060008490506000826001600160a01b03166395d89b416040518163ffffffff1660e01b8152600401600060405180830381865afa158015611789573d6000803e3d6000fd5b505050506040513d6000823e601f3d908101601f191682016040526117b191908101906149c1565b90506000826001600160a01b03166395d89b416040518163ffffffff1660e01b8152600401600060405180830381865afa1580156117f3573d6000803e3d6000fd5b505050506040513d6000823e601f3d908101601f1916820160405261181b91908101906149c1565b90508160405160200161182e9190614a63565b60408051601f198184030181529082905261184d918390602001614a88565b60408051601f198184030181529082905261186a91602001614ab7565b604051602081830303815290604052611882876111a3565b604051602001611893929190614a88565b6040516020818303038152906040529450505050509392505050565b6000610a976000612111565b60028301546119106118f96118ce610f61565b6118f3856118ed89600301548a6002015461275890919063ffffffff16565b90612767565b90612834565b60a0850151600287015461190c91612758565b1290565b156109df57610946611920610a79565b61050986600301546119388760a001516118ed610f61565b90612758565b336001600160a01b0388161461197c5760405162461bcd60e51b815260206004820152600360248201526231b11960e91b60448201526064016109bf565b600061198a828401846144e0565b905060008513156119ce57306001600160a01b038216036119b957610d626001600160a01b0388163387612119565b610d626001600160a01b03881682338861217c565b6000841315610d9d57306001600160a01b038216036119fb57610d626001600160a01b0387163386612119565b610d9d6001600160a01b03871682338761217c565b6000611a206106e483600a614738565b611a29846112f4565b611a3790600160601b6148d1565b6109df9190614906565b6000806001600160801b03871615611bf05760405163a34123a760e01b8152600287810b600483015286900b60248201526001600160801b038816604482015260009081906001600160a01b038b169063a34123a79060640160408051808303816000875af1158015611ab8573d6000803e3d6000fd5b505050506040513d601f19601f82011682018060405250810190611adc91906147cf565b91509150600085611af557611af0836111be565b611afe565b6001600160801b035b9050600086611b1557611b10836111be565b611b1e565b6001600160801b035b90506000826001600160801b03161180611b4157506000816001600160801b0316115b15611beb576040516309e3d67b60e31b81526001600160a01b03898116600483015260028c810b60248401528b900b60448301526001600160801b038085166064840152831660848301528d1690634f1eb3d89060a40160408051808303816000875af1158015611bb6573d6000803e3d6000fd5b505050506040513d601f19601f82011682018060405250810190611bda9190614adc565b6001600160801b0391821697501694505b505050505b965096945050505050565b600080611c0885856112c3565b15611c4557611c24611c18611203565b865461116590866120ff565b9150611c3e8286600501548660800151886006015461201b565b9050611735565b611c5f611c50611203565b600187015461116590866120ff565b9050611c798186600501548660800151886006015461156d565b9150935093915050565b6000806000836001600160a01b0316633850c7bd6040518163ffffffff1660e01b815260040160e060405180830381865afa158015611cc6573d6000803e3d6000fd5b505050506040513d601f19601f82011682018060405250810190611cea9190614805565b96505050505092505080611d4b5760405162461bcd60e51b815260206004820152602260248201527f49562e63757272656e745469636b3a2074686520706f6f6c206973206c6f636b604482015261195960f21b60648201526084016109bf565b5092915050565b611d5a613999565b611d62613a13565b836101a0015115611dd8576101008301516020860151611d81916120ff565b60a08501526080850151611d98906116fc9061094e565b60a0808501829052850151611dc0916116fc91611db5919061232f565b60a086015190612210565b8085528351611dce91612228565b6040850152611e52565b6101008301518551611de9916120ff565b846080018181525050611e0d611e02866080015161094e565b602085015190612210565b6080808501829052850151611e3891611e259161232f565b60808501516020860151611165916120ff565b6020808601829052840151611e4c91612228565b60608501525b5091939092509050565b600080611e68876128e1565b90508063ffffffff168463ffffffff1610611e835780611e85565b835b604051638241348960e01b81526001600160a01b038916600482015263ffffffff8216602482015290945060009073__$f74b04122c2dfd4e484a1fbae5c5c2e341$__90638241348990604401602060405180830381865af4158015611eef573d6000803e3d6000fd5b505050506040513d601f19601f82011682018060405250810190611f139190614b16565b60020b905073__$f74b04122c2dfd4e484a1fbae5c5c2e341$__6343c57a278273__$f74b04122c2dfd4e484a1fbae5c5c2e341$__63809fdd33886040518263ffffffff1660e01b8152600401611f6c91815260200190565b602060405180830381865af4158015611f89573d6000803e3d6000fd5b505050506040513d601f19601f82011682018060405250810190611fad919061489d565b8a8a6040518563ffffffff1660e01b8152600401611fce94939291906145f0565b602060405180830381865af4158015611feb573d6000803e3d6000fd5b505050506040513d601f19601f8201168201806040525081019061200f9190614625565b98975050505050505050565b600061094361202a8385612228565b61116561159c61203a8789612228565b61158988886120ff565b600061205085856112c3565b156120855761207e6120726120678461128e611203565b6040870151906120ff565b865461043890866120ff565b9050610946565b6109436120a26120978461128e611203565b6060870151906120ff565b600187015461043890866120ff565b60038301546120d76120c46118ce610f61565b600386015460a086015161190c91612758565b156109df576109466120e76110bb565b6103fa86600201546119388760a001516118ed610f61565b60006109df61210e8484612a9a565b90565b600081610a15565b6040516001600160a01b03831660248201526044810182905261123390849063a9059cbb60e01b906064015b60408051601f198184030181529190526020810180516001600160e01b03166001600160e01b031990931692909217909152612b4e565b6040516001600160a01b03808516602483015283166044820152606481018290526121b49085906323b872dd60e01b90608401612145565b50505050565b6000817812725dd1d243aba0e75fe645cc4873f9e65afe688c928e1f218111156121fa5760405163edc236ad60e01b8152600481018490526024016109bf565b6109df61210e670de0b6b3a76400008302612c20565b60006109df61210e84670de0b6b3a764000085612d98565b60006109df61210e83856148ba565b6000828281830361226057801561224f576000612259565b670de0b6b3a76400005b9250612294565b670de0b6b3a7640000810361227757849250612294565b61229161228c61228687612e6c565b866120ff565b612f93565b92505b505092915050565b606060006122a983612fe8565b600101905060008167ffffffffffffffff8111156122c9576122c9613c2b565b6040519080825280601f01601f1916602001820160405280156122f3576020820181803683370190505b5090508181016020015b600019016f181899199a1a9b1b9c1cb0b131b232b360811b600a86061a8153600a85049450846122fd57509392505050565b60006109df61210e838561491a565b60008060008360020b12612355578260020b612362565b8260020b61236290614771565b9050612371620d89e719614b33565b62ffffff168111156123a95760405162461bcd60e51b81526020600482015260016024820152601560fa1b60448201526064016109bf565b6000816001166000036123c057600160801b6123d2565b6ffffcb933bd6fad37aa2d162d1a5940015b70ffffffffffffffffffffffffffffffffff169050600282161561241157608061240c826ffff97272373d413259a46990580e213a6148d1565b901c90505b600482161561243b576080612436826ffff2e50f5f656932ef12357cf3c7fdcc6148d1565b901c90505b6008821615612465576080612460826fffe5caca7e10e4e61c3624eaa0941cd06148d1565b901c90505b601082161561248f57608061248a826fffcb9843d60f6159c9db58835c9266446148d1565b901c90505b60208216156124b95760806124b4826fff973b41fa98c081472e6896dfb254c06148d1565b901c90505b60408216156124e35760806124de826fff2ea16466c96a3843ec78b326b528616148d1565b901c90505b608082161561250d576080612508826ffe5dee046a99a2a811c461f1969c30536148d1565b901c90505b610100821615612538576080612533826ffcbe86c7900a88aedcffc83b479aa3a46148d1565b901c90505b61020082161561256357608061255e826ff987a7253ac413176f2b074cf7815e546148d1565b901c90505b61040082161561258e576080612589826ff3392b0822b70005940c7a398e4b70f36148d1565b901c90505b6108008216156125b95760806125b4826fe7159475a2c29b7443b29c7fa6e889d96148d1565b901c90505b6110008216156125e45760806125df826fd097f3bdfd2022b8845ad8f792aa58256148d1565b901c90505b61200082161561260f57608061260a826fa9f746462d870fdf8a65dc1f90e061e56148d1565b901c90505b61400082161561263a576080612635826f70d869a156d2a1b890bb3df62baf32f76148d1565b901c90505b618000821615612665576080612660826f31be135f97d08fd981231505542fcfa66148d1565b901c90505b6201000082161561269157608061268c826f09aa508b5b7a84e1c677de54f3e99bc96148d1565b901c90505b620200008216156126bc5760806126b7826e5d6af8dedb81196699c329225ee6046148d1565b901c90505b620400008216156126e65760806126e1826d2216e584f5fa1ea926041bedfe986148d1565b901c90505b6208000082161561270e576080612709826b048a170391f7dc42444e8fa26148d1565b901c90505b60008460020b13156127295761272681600019614906565b90505b61273864010000000082614b55565b15612744576001612747565b60005b6109469060ff16602083901c61491a565b60006109df61210e8385614b69565b60008282600160ff1b8214806127805750600160ff1b81145b1561279e5760405163a6070c2560e01b815260040160405180910390fd5b600080600084126127af57836127b4565b836000035b9150600083126127c457826127c9565b826000035b905060006127d78383612a9a565b90506001600160ff1b0381111561280b5760405163120b5b4360e01b815260048101899052602481018890526044016109bf565b6000198585181361282781612823578260000361210e565b8290565b9998505050505050505050565b60008282600160ff1b82148061284d5750600160ff1b81145b1561286b576040516309fe2b4560e41b815260040160405180910390fd5b6000806000841261287c5783612881565b836000035b9150600083126128915782612896565b826000035b905060006128ad83670de0b6b3a764000084612d98565b90506001600160ff1b0381111561280b5760405163d49c26b360e01b815260048101899052602481018890526044016109bf565b6000806000836001600160a01b0316633850c7bd6040518163ffffffff1660e01b815260040160e060405180830381865afa158015612924573d6000803e3d6000fd5b505050506040513d601f19601f820116820180604052508101906129489190614805565b50505093509350505060008161ffff161161298a5760405162461bcd60e51b81526020600482015260026024820152614e4960f01b60448201526064016109bf565b6000806001600160a01b03861663252c09d7846129a8876001614ba8565b6129b29190614bc5565b6040516001600160e01b031960e084901b16815261ffff9091166004820152602401608060405180830381865afa1580156129f1573d6000803e3d6000fd5b505050506040513d601f19601f82011682018060405250810190612a159190614be6565b93505050915080612a905760405163252c09d760e01b8152600060048201526001600160a01b0387169063252c09d790602401608060405180830381865afa158015612a65573d6000803e3d6000fd5b505050506040513d601f19601f82011682018060405250810190612a899190614be6565b5091935050505b6113898242614c41565b60008080600019848609848602925082811083820303915050670de0b6b3a76400008110612ae557604051635173648d60e01b815260048101869052602481018590526044016109bf565b6000670de0b6b3a7640000858709905081600003612b11575050670de0b6b3a764000090049050610a15565b620400008184030492109003600160ee1b02177faccb18165bd6fe31ae1cf318dc5b51eee0e1ba569b88cd74c1773b91fac1066902905092915050565b6000612ba3826040518060400160405280602081526020017f5361666545524332303a206c6f772d6c6576656c2063616c6c206661696c6564815250856001600160a01b03166130c09092919063ffffffff16565b8051909150156112335780806020019051810190612bc19190614c66565b6112335760405162461bcd60e51b815260206004820152602a60248201527f5361666545524332303a204552433230206f7065726174696f6e20646964206e6044820152691bdd081cdd58d8d9595960b21b60648201526084016109bf565b600081600003612c3257506000919050565b50600181600160801b8110612c4c5760409190911b9060801c5b680100000000000000008110612c675760209190911b9060401c5b6401000000008110612c7e5760109190911b9060201c5b620100008110612c935760089190911b9060101c5b6101008110612ca75760049190911b9060081c5b60108110612cba5760029190911b9060041c5b60048110612cca57600182901b91505b6001828481612cdb57612cdb6148f0565b048301901c91506001828481612cf357612cf36148f0565b048301901c91506001828481612d0b57612d0b6148f0565b048301901c91506001828481612d2357612d236148f0565b048301901c91506001828481612d3b57612d3b6148f0565b048301901c91506001828481612d5357612d536148f0565b048301901c91506001828481612d6b57612d6b6148f0565b048301901c91506000828481612d8357612d836148f0565b049050808310612d91578092505b5050919050565b6000808060001985870985870292508281108382030391505080600003612dd257838281612dc857612dc86148f0565b04925050506109df565b838110612e0357604051630c740aef60e31b81526004810187905260248101869052604481018590526064016109bf565b60008486880960026001871981018816978890046003810283188082028403028082028403028082028403028082028403028082028403029081029092039091026000889003889004909101858311909403939093029303949094049190911702949350505050565b600081670de0b6b3a7640000811015612e9b5760405163036d32ef60e41b8152600481018490526024016109bf565b6000612f1e670de0b6b3a7640000830460016001600160801b03821160071b91821c67ffffffffffffffff811160061b90811c63ffffffff811160051b90811c61ffff811160041b90811c60ff8111600390811b91821c600f811160021b90811c918211871b91821c969096119490961792909217171791909117919091171790565b9050670de0b6b3a7640000810282821c670de0b6b3a763ffff198101612f445781611389565b671bc16d674ec800006706f05b59d3b200005b8015612f8757670de0b6b3a7640000838002049250818310612f7f579283019260019290921c915b60011c612f57565b50919695505050505050565b600081680a688906bd8b0000008110612fc25760405163b3b6ba1f60e01b8152600481018490526024016109bf565b6000612fda670de0b6b3a7640000604084901b614906565b905061094661210e826130cf565b60008072184f03e93ff9f4daa797ed6e38ed64bf6a1f0160401b83106130275772184f03e93ff9f4daa797ed6e38ed64bf6a1f0160401b830492506040015b6d04ee2d6d415b85acef81000000008310613053576d04ee2d6d415b85acef8100000000830492506020015b662386f26fc10000831061307157662386f26fc10000830492506010015b6305f5e1008310613089576305f5e100830492506008015b612710831061309d57612710830492506004015b606483106130af576064830492506002015b600a8310610a155760010192915050565b60606109468484600085613830565b600160bf1b67ff000000000000008216156131dc576780000000000000008216156131035768016a09e667f3bcc9090260401c5b674000000000000000821615613122576801306fe0a31b7152df0260401c5b672000000000000000821615613141576801172b83c7d517adce0260401c5b6710000000000000008216156131605768010b5586cf9890f62a0260401c5b67080000000000000082161561317f576801059b0d31585743ae0260401c5b67040000000000000082161561319e57680102c9a3e778060ee70260401c5b6702000000000000008216156131bd5768010163da9fb33356d80260401c5b6701000000000000008216156131dc57680100b1afa5abcbed610260401c5b66ff0000000000008216156132db5766800000000000008216156132095768010058c86da1c09ea20260401c5b6640000000000000821615613227576801002c605e2e8cec500260401c5b662000000000000082161561324557680100162f3904051fa10260401c5b6610000000000000821615613263576801000b175effdc76ba0260401c5b660800000000000082161561328157680100058ba01fb9f96d0260401c5b660400000000000082161561329f5768010002c5cc37da94920260401c5b66020000000000008216156132bd576801000162e525ee05470260401c5b66010000000000008216156132db5768010000b17255775c040260401c5b65ff00000000008216156133d15765800000000000821615613306576801000058b91b5bc9ae0260401c5b6540000000000082161561332357680100002c5c89d5ec6d0260401c5b652000000000008216156133405768010000162e43f4f8310260401c5b6510000000000082161561335d57680100000b1721bcfc9a0260401c5b6508000000000082161561337a5768010000058b90cf1e6e0260401c5b65040000000000821615613397576801000002c5c863b73f0260401c5b650200000000008216156133b457680100000162e430e5a20260401c5b650100000000008216156133d1576801000000b1721835510260401c5b64ff000000008216156134be576480000000008216156133fa57680100000058b90c0b490260401c5b6440000000008216156134165768010000002c5c8601cc0260401c5b642000000000821615613432576801000000162e42fff00260401c5b64100000000082161561344e5768010000000b17217fbb0260401c5b64080000000082161561346a576801000000058b90bfce0260401c5b64040000000082161561348657680100000002c5c85fe30260401c5b6402000000008216156134a25768010000000162e42ff10260401c5b6401000000008216156134be57680100000000b17217f80260401c5b64ff000000008216156135a35763800000008216156134e65768010000000058b90bfc0260401c5b6340000000821615613501576801000000002c5c85fe0260401c5b632000000082161561351c57680100000000162e42ff0260401c5b6310000000821615613537576801000000000b17217f0260401c5b630800000082161561355257680100000000058b90c00260401c5b630400000082161561356d5768010000000002c5c8600260401c5b6302000000821615613588576801000000000162e4300260401c5b63010000008216156135a35768010000000000b172180260401c5b62ff000082161561367e57628000008216156135c8576801000000000058b90c0260401c5b624000008216156135e257680100000000002c5c860260401c5b622000008216156135fc5768010000000000162e430260401c5b6210000082161561361657680100000000000b17210260401c5b620800008216156136305768010000000000058b910260401c5b6204000082161561364a576801000000000002c5c80260401c5b6202000082161561366457680100000000000162e40260401c5b6201000082161561367e576801000000000000b1720260401c5b61ff00821615613750576180008216156136a157680100000000000058b90260401c5b6140008216156136ba5768010000000000002c5d0260401c5b6120008216156136d3576801000000000000162e0260401c5b6110008216156136ec5768010000000000000b170260401c5b610800821615613705576801000000000000058c0260401c5b61040082161561371e57680100000000000002c60260401c5b61020082161561373757680100000000000001630260401c5b61010082161561375057680100000000000000b10260401c5b60ff82161561381957608082161561377157680100000000000000590260401c5b6040821615613789576801000000000000002c0260401c5b60208216156137a157680100000000000000160260401c5b60108216156137b9576801000000000000000b0260401c5b60088216156137d157680100000000000000060260401c5b60048216156137e957680100000000000000030260401c5b600282161561380157680100000000000000010260401c5b600182161561381957680100000000000000010260401c5b670de0b6b3a76400000260409190911c60bf031c90565b6060824710156138915760405162461bcd60e51b815260206004820152602660248201527f416464726573733a20696e73756666696369656e742062616c616e636520666f6044820152651c8818d85b1b60d21b60648201526084016109bf565b600080866001600160a01b031685876040516138ad9190614c83565b60006040518083038185875af1925050503d80600081146138ea576040519150601f19603f3d011682016040523d82523d6000602084013e6138ef565b606091505b5091509150610cc5878383876060831561396a578251600003613963576001600160a01b0385163b6139635760405162461bcd60e51b815260206004820152601d60248201527f416464726573733a2063616c6c20746f206e6f6e2d636f6e747261637400000060448201526064016109bf565b5081610946565b610946838381511561397f5781518083602001fd5b8060405162461bcd60e51b81526004016109bf9190613bbd565b604051806101e00160405280600081526020016000815260200160008152602001600081526020016000815260200160008152602001600081526020016000815260200160008152602001600081526020016000815260200160008152602001600081526020016000151581526020016000151581525090565b604051806101400160405280600081526020016000815260200160008152602001600081526020016000815260200160008152602001600081526020016000815260200160008152602001600081525090565b6001600160a01b0381168114613a7b57600080fd5b50565b8060020b8114613a7b57600080fd5b60008060008060808587031215613aa357600080fd5b8435613aae81613a66565b93506020850135613abe81613a66565b92506040850135613ace81613a66565b91506060850135613ade81613a7e565b939692955090935050565b600060208284031215613afb57600080fd5b5035919050565b60008060408385031215613b1557600080fd5b50508035926020909101359150565b600080600060608486031215613b3957600080fd5b8335613b4481613a66565b92506020840135613b5481613a66565b929592945050506040919091013590565b60005b83811015613b80578181015183820152602001613b68565b838111156121b45750506000910152565b60008151808452613ba9816020860160208601613b65565b601f01601f19169290920160200192915050565b6020815260006109df6020830184613b91565b600080600080600060a08688031215613be857600080fd5b8535613bf381613a66565b94506020860135613c0381613a66565b93506040860135613c1381613a66565b94979396509394606081013594506080013592915050565b634e487b7160e01b600052604160045260246000fd5b6040516101e0810167ffffffffffffffff81118282101715613c6557613c65613c2b565b60405290565b604051610140810167ffffffffffffffff81118282101715613c6557613c65613c2b565b8015158114613a7b57600080fd5b80356109c881613c8f565b60006101e08284031215613cbb57600080fd5b613cc3613c41565b9050813581526020820135602082015260408201356040820152606082013560608201526080820135608082015260a082013560a082015260c082013560c082015260e082013560e08201526101008083013581830152506101208083013581830152506101408083013581830152506101608083013581830152506101808083013581830152506101a0613d59818401613c9d565b908201526101c0613d6b838201613c9d565b9082015292915050565b600060a08284031215613d8757600080fd5b60405160a0810181811067ffffffffffffffff82111715613daa57613daa613c2b565b806040525080915082358152602083013560208201526040830135604082015260608301356060820152608083013560808201525092915050565b6000806102808385031215613df957600080fd5b613e038484613ca8565b91506113c5846101e08501613d75565b805182526020810151602083015260408101516040830152606081015160608301526080810151608083015260a081015160a083015260c081015160c083015260e081015160e08301526101008082015181840152506101208082015181840152506101408082015181840152506101608082015181840152506101808082015181840152506101a080820151613ead8285018215159052565b50506101c081810151801515848301526121b4565b6101e08101610a158284613e13565b6001600160801b0381168114613a7b57600080fd5b60008060008060808587031215613efc57600080fd5b8435613f0781613a66565b93506020850135613f1781613a7e565b92506040850135613f2781613a7e565b91506060850135613ade81613ed1565b600060c08284031215613f4957600080fd5b60405160c0810181811067ffffffffffffffff82111715613f6c57613f6c613c2b565b8060405250809150823581526020830135602082015260408301356040820152606083013560608201526080830135608082015260a083013560a08201525092915050565b60008060006101008486031215613fc757600080fd5b83359250613fd88560208601613f37565b915060e084013590509250925092565b600080600080600060a0868803121561400057600080fd5b853561400b81613a66565b9450602086013561401b81613a7e565b93506040860135613c1381613a7e565b60008083601f84011261403d57600080fd5b50813567ffffffffffffffff81111561405557600080fd5b6020830191508360208285010111156110aa57600080fd5b600080600080600080600060c0888a03121561408857600080fd5b873561409381613a66565b965060208801356140a381613a66565b955060408801356140b381613a66565b9450606088013593506080880135925060a088013567ffffffffffffffff8111156140dd57600080fd5b6140e98a828b0161402b565b989b979a50959850939692959293505050565b6000806000806080858703121561411257600080fd5b843561411d81613a66565b9350602085013561412d81613a66565b9250604085013561413d81613a66565b9396929550929360600135925050565b6000610140828403121561416057600080fd5b614168613c6b565b9050813581526020820135602082015260408201356040820152606082013560608201526080820135608082015260a082013560a082015260c082013560c082015260e082013560e082015261010080830135818301525061012080830135818301525092915050565b60008060008061040085870312156141e957600080fd5b843593506141fa8660208701613f37565b92506142098660e08701613ca8565b9150614219866102c0870161414d565b905092959194509250565b61032081016142338285613e13565b82516101e0830152602083015161020083015260408301516102208301526060830151610240830152608083015161026083015260a083015161028083015260c08301516102a083015260e08301516102c08301526101008301516102e08301526101208301516103008301529392505050565b60008061032083850312156142bb57600080fd5b6142c58484613ca8565b91506113c5846101e0850161414d565b6000806000806103e085870312156142ec57600080fd5b843593506142fd8660208701613ca8565b925061430d86610200870161414d565b9150614219866103408701613d75565b60006020828403121561432f57600080fd5b81356109df81613a7e565b60008060e0838503121561434d57600080fd5b823591506113c58460208501613f37565b600080600080600080600080610100898b03121561437b57600080fd5b88359750602089013561438d81613a66565b9650604089013561439d81613a66565b955060608901356143ad81613a66565b94506080890135935060a0890135925060c08901356143cb81613a7e565b8092505060e089013590509295985092959890939650565b600080600080608085870312156143f957600080fd5b5050823594602084013594506040840135936060013592509050565b60008060006103c0848603121561442b57600080fd5b6144358585613ca8565b9250614445856101e0860161414d565b9150614455856103208601613d75565b90509250925092565b60008060008060008060c0878903121561447757600080fd5b863561448281613a66565b9550602087013561449281613ed1565b945060408701356144a281613a7e565b935060608701356144b281613a7e565b925060808701356144c281613a66565b915060a08701356144d281613c8f565b809150509295509295509295565b6000602082840312156144f257600080fd5b81356109df81613a66565b60008060006103e0848603121561451357600080fd5b61451d8585613f37565b925061452c8560c08601613ca8565b9150614455856102a0860161414d565b63ffffffff81168114613a7b57600080fd5b600080600080600060a0868803121561456657600080fd5b853561457181613a66565b9450602086013561458181613a66565b9350604086013561459181613a66565b925060608601356145a18161453c565b949793965091946080013592915050565b60008060008061012085870312156145c957600080fd5b843593506145da8660208701613f37565b939693955050505060e082013591610100013590565b60029490940b84526001600160801b039290921660208401526001600160a01b03908116604084015216606082015260800190565b60006020828403121561463757600080fd5b5051919050565b634e487b7160e01b600052601160045260246000fd5b600181815b8085111561468f5781600019048211156146755761467561463e565b8085161561468257918102915b93841c9390800290614659565b509250929050565b6000826146a657506001610a15565b816146b357506000610a15565b81600181146146c957600281146146d3576146ef565b6001915050610a15565b60ff8411156146e4576146e461463e565b50506001821b610a15565b5060208310610133831016604e8410600b8410161715614712575081810a610a15565b61471c8383614654565b80600019048211156147305761473061463e565b029392505050565b60006109df8383614697565b64029b7b637960dd1b815260008251614764816005850160208701613b65565b9190910160050192915050565b6000600160ff1b82016147865761478661463e565b5060000390565b60018060a01b03861681528460020b60208201528360020b60408201526001600160801b038316606082015260a060808201526000610cc560a0830184613b91565b600080604083850312156147e257600080fd5b505080516020909101519092909150565b805161ffff811681146109c857600080fd5b600080600080600080600060e0888a03121561482057600080fd5b875161482b81613a66565b602089015190975061483c81613a7e565b955061484a604089016147f3565b9450614858606089016147f3565b9350614866608089016147f3565b925060a088015160ff8116811461487c57600080fd5b60c089015190925061488d81613c8f565b8091505092959891949750929550565b6000602082840312156148af57600080fd5b81516109df81613ed1565b6000828210156148cc576148cc61463e565b500390565b60008160001904831182151516156148eb576148eb61463e565b500290565b634e487b7160e01b600052601260045260246000fd5b600082614915576149156148f0565b500490565b6000821982111561492d5761492d61463e565b500190565b60008160020b8360020b6000811281627fffff19018312811516156149595761495961463e565b81627fffff0183138116156149705761497061463e565b5090039392505050565b60008160020b8360020b6000821282627fffff038213811516156149a0576149a061463e565b82627fffff190382128116156149b8576149b861463e565b50019392505050565b6000602082840312156149d357600080fd5b815167ffffffffffffffff808211156149eb57600080fd5b818401915084601f8301126149ff57600080fd5b815181811115614a1157614a11613c2b565b604051601f8201601f19908116603f01168101908382118183101715614a3957614a39613c2b565b81604052828152876020848701011115614a5257600080fd5b610cc5836020830160208801613b65565b60008251614a75818460208701613b65565b602d60f81b920191825250600101919050565b60008351614a9a818460208801613b65565b835190830190614aae818360208801613b65565b01949350505050565b60008251614ac9818460208701613b65565b601d60f91b920191825250600101919050565b60008060408385031215614aef57600080fd5b8251614afa81613ed1565b6020840151909250614b0b81613ed1565b809150509250929050565b600060208284031215614b2857600080fd5b81516109df81613a7e565b60008160020b627fffff198103614b4c57614b4c61463e565b60000392915050565b600082614b6457614b646148f0565b500690565b60008083128015600160ff1b850184121615614b8757614b8761463e565b6001600160ff1b0384018313811615614ba257614ba261463e565b50500390565b600061ffff808316818516808303821115614aae57614aae61463e565b600061ffff80841680614bda57614bda6148f0565b92169190910692915050565b60008060008060808587031215614bfc57600080fd5b8451614c078161453c565b8094505060208501518060060b8114614c1f57600080fd5b6040860151909350614c3081613a66565b6060860151909250613ade81613c8f565b600063ffffffff83811690831681811015614c5e57614c5e61463e565b039392505050565b600060208284031215614c7857600080fd5b81516109df81613c8f565b60008251614c95818460208701613b65565b919091019291505056fea164736f6c634300080e000a",
  "libraries": {
    "SoloUV3Math": "0xeD2d5EB3fbcDdF4e2e972F8C6CF37EffB7851d52"
  },
  "devdoc": {
    "details": "Percentages are high-precision decimals. 1e18 (1.0) is 100%.",
    "kind": "dev",
    "methods": {
      "_burnLiquidity(address,uint128,int24,int24,address,bool)": {
        "params": {
          "amount0": "released amount of token0",
          "amount1": "released amount of token1",
          "collectAll": "Flag that indicates whether all token0 and token1 tokens should be collected or only the ones released during this burn",
          "liquidity": "amount of liquidity to burn",
          "tickLower": "The lower tick of the flex liquidity position",
          "tickUpper": "The upper tick of the flex liquidity position",
          "to": "The account to receive token0 and token1 amounts"
        }
      },
      "_mintLiquidity(address,int24,int24,uint128)": {
        "params": {
          "amount0": "Used amount of token0",
          "amount1": "Used amount of token1",
          "liquidity": "Amount of liquidity to mint",
          "tickLower": "The lower tick of the liquidity position",
          "tickUpper": "The upper tick of the liquidity position"
        }
      },
      "_priceToSqrtX96(uint256,uint256)": {
        "params": {
          "_decimals": "price token decimals",
          "_price": "The price to use"
        },
        "returns": {
          "sqrtX96": "The computed tick corresponding to that price"
        }
      },
      "_uint128Safe(uint256)": {
        "params": {
          "x": "input value."
        },
        "returns": {
          "_0": "uint128 x, provided overflow has not occured."
        }
      },
      "_uint160Safe(uint256)": {
        "params": {
          "x": "input value."
        },
        "returns": {
          "_0": "uint160 x, provided overflow has not occured."
        }
      },
      "currentTick(address)": {
        "params": {
          "tick": "Uniswap pool's current price tick"
        }
      },
      "liquidityForAmounts(address,int24,int24,uint256,uint256)": {
        "params": {
          "amount0": "token0 amount",
          "amount1": "token1 amount",
          "tickLower": "The lower tick of the liquidity position",
          "tickUpper": "The upper tick of the liquidity position"
        }
      },
      "spot(address,address,address,uint256)": {
        "params": {
          "amountIn": "amount in _tokenIn",
          "tokenIn": "token the input amount is in",
          "tokenOut": "token for the output amount"
        },
        "returns": {
          "amountOut": "equivalent anount in _tokenOut"
        }
      },
      "tickToPrice(address,address,address,int24)": {
        "params": {
          "depositToken_": "depositToken",
          "pool": "pool",
          "quoteToken_": "quoteToken",
          "tick_": "tick"
        },
        "returns": {
          "price": "price"
        }
      },
      "twap(address,address,address,uint32,uint256)": {
        "params": {
          "_amountIn": "amount in _tokenIn",
          "_twapPeriod": "the averaging time period",
          "amountOut": "equivalent anount in _tokenOut"
        }
      }
    },
    "version": 1
  },
  "userdoc": {
    "errors": {
      "PRBMath_MulDiv18_Overflow(uint256,uint256)": [
        {
          "notice": "Emitted when the ending result in the fixed-point version of `mulDiv` would overflow uint256."
        }
      ],
      "PRBMath_MulDiv_Overflow(uint256,uint256,uint256)": [
        {
          "notice": "Emitted when the ending result in `mulDiv` would overflow uint256."
        }
      ],
      "PRBMath_SD59x18_Div_InputTooSmall()": [
        {
          "notice": "Emitted when dividing two numbers and one of them is `MIN_SD59x18`."
        }
      ],
      "PRBMath_SD59x18_Div_Overflow(int256,int256)": [
        {
          "notice": "Emitted when dividing two numbers and one of the intermediary unsigned results overflows SD59x18."
        }
      ],
      "PRBMath_SD59x18_Mul_InputTooSmall()": [
        {
          "notice": "Emitted when multiplying two numbers and one of the inputs is `MIN_SD59x18`."
        }
      ],
      "PRBMath_SD59x18_Mul_Overflow(int256,int256)": [
        {
          "notice": "Emitted when multiplying two numbers and the intermediary absolute result overflows SD59x18."
        }
      ],
      "PRBMath_UD60x18_Exp2_InputTooBig(uint256)": [
        {
          "notice": "Emitted when taking the binary exponent of a base greater than 192."
        }
      ],
      "PRBMath_UD60x18_Log_InputTooSmall(uint256)": [
        {
          "notice": "Emitted when taking the logarithm of a number less than 1."
        }
      ],
      "PRBMath_UD60x18_Sqrt_Overflow(uint256)": [
        {
          "notice": "Emitted when calculating the square root overflows UD60x18."
        }
      ]
    },
    "kind": "user",
    "methods": {
      "_burnLiquidity(address,uint128,int24,int24,address,bool)": {
        "notice": "Burn liquidity in Uniswap V3 pool."
      },
      "_mintLiquidity(address,int24,int24,uint128)": {
        "notice": "Mint liquidity in Uniswap V3 pool."
      },
      "_priceToSqrtX96(uint256,uint256)": {
        "notice": "Converts a price into a sqrtX96"
      },
      "_uint128Safe(uint256)": {
        "notice": "uint128Safe function."
      },
      "_uint160Safe(uint256)": {
        "notice": "uint160Safe function."
      },
      "currentTick(address)": {
        "notice": "Returns current price tick"
      },
      "liquidityForAmounts(address,int24,int24,uint256,uint256)": {
        "notice": "Calculates amount of liquidity in a position for given token0 and token1 amounts"
      },
      "spot(address,address,address,uint256)": {
        "notice": "returns equivalent _tokenOut for _amountIn, _tokenIn using spot price"
      },
      "tickToPrice(address,address,address,int24)": {
        "notice": "returns price at a specfic tick"
      },
      "twap(address,address,address,uint32,uint256)": {
        "notice": "returns equivalent _tokenOut for _amountIn, _tokenIn using TWAP price"
      }
    },
    "version": 1
  },
  "storageLayout": {
    "storage": [],
    "types": null
  }
}