{
  "address": "0xa4E0DDfb2d0c43a196695E7c2EAD78267c3281d9",
  "abi": [
    {
      "inputs": [
        {
          "internalType": "address",
          "name": "poolFactory_",
          "type": "address"
        }
      ],
      "stateMutability": "nonpayable",
      "type": "constructor"
    },
    {
      "inputs": [
        {
          "internalType": "address",
          "name": "tokenX",
          "type": "address"
        },
        {
          "internalType": "address",
          "name": "tokenY",
          "type": "address"
        },
        {
          "internalType": "bool",
          "name": "xIsDeposit",
          "type": "bool"
        },
        {
          "internalType": "uint256",
          "name": "fee",
          "type": "uint256"
        },
        {
          "internalType": "UD60x18",
          "name": "bMin",
          "type": "uint256"
        },
        {
          "internalType": "SD59x18",
          "name": "tPct",
          "type": "int256"
        },
        {
          "internalType": "UD60x18",
          "name": "s",
          "type": "uint256"
        },
        {
          "internalType": "UD60x18",
          "name": "dPct",
          "type": "uint256"
        },
        {
          "internalType": "UD60x18",
          "name": "fPct",
          "type": "uint256"
        },
        {
          "internalType": "UD60x18",
          "name": "rPct",
          "type": "uint256"
        }
      ],
      "name": "createSoloPool",
      "outputs": [
        {
          "internalType": "contract Solo",
          "name": "soloPool",
          "type": "address"
        }
      ],
      "stateMutability": "nonpayable",
      "type": "function"
    },
    {
      "inputs": [
        {
          "internalType": "uint256",
          "name": "",
          "type": "uint256"
        }
      ],
      "name": "deployedPools",
      "outputs": [
        {
          "internalType": "address",
          "name": "",
          "type": "address"
        }
      ],
      "stateMutability": "view",
      "type": "function"
    },
    {
      "inputs": [],
      "name": "poolFactory",
      "outputs": [
        {
          "internalType": "address",
          "name": "",
          "type": "address"
        }
      ],
      "stateMutability": "view",
      "type": "function"
    }
  ],
  "transactionHash": "0x8b9540b98e5f8fb7e9e1dbceb1cfdd59ae43a0ac1ee0ca07e8ee5076c118bfd8",
  "args": [
    "0x1Efb4242106d1532143245AfD050d9e8C70473f5"
  ],
  "numDeployments": 1,
  "solcInputHash": "202685d64c80c16845f01a2495a1aa69",
  "bytecode": "0x60a060405234801561001057600080fd5b50604051615b2e380380615b2e83398101604081905261002f91610088565b6001600160a01b0381166100775760405162461bcd60e51b815260040161006e906020808252600490820152631395531360e21b604082015260600190565b60405180910390fd5b6001600160a01b03166080526100b8565b60006020828403121561009a57600080fd5b81516001600160a01b03811681146100b157600080fd5b9392505050565b608051615a556100d960003960008181608401526101f10152615a556000f3fe60806040523480156200001157600080fd5b5060043610620000465760003560e01c80630bb4024f146200004b5780634219dc40146200007e57806391d5f15e14620000a6575b600080fd5b620000626200005c3660046200047b565b620000bd565b6040516001600160a01b03909116815260200160405180910390f35b620000627f000000000000000000000000000000000000000000000000000000000000000081565b62000062620000b73660046200050c565b62000334565b600080620001118b6001600160a01b03168d6001600160a01b031610620000e5578b620000e7565b8c5b8c6001600160a01b03168e6001600160a01b03161062000108578d6200010a565b8c5b876200035f565b90506000620001668c6001600160a01b03168e6001600160a01b0316106200013a578c6200013c565b8d5b8d6001600160a01b03168f6001600160a01b0316106200015d578e6200015f565b8d5b88620003fd565b905060008c6001600160a01b03168e6001600160a01b0316106200018b578c6200018d565b8d5b8d6001600160a01b03168f6001600160a01b031610620001ae578e620001b0565b8d5b604080516001600160a01b039384166020820152929091169082015260608101889052608001604051602081830303815290604052805190602001209050807f00000000000000000000000000000000000000000000000000000000000000008f8f8f8f8888604051620002249062000450565b62000236979695949392919062000587565b8190604051809103906000f590508015801562000257573d6000803e3d6000fd5b50604051631b9820b160e21b8152600481018c9052602481018b9052604481018a9052606481018990526084810188905260a481018790529094506001600160a01b03851690636e6082c49060c401600060405180830381600087803b158015620002c157600080fd5b505af1158015620002d6573d6000803e3d6000fd5b5050600080546001810182559080527f290decd9548b62a8d60345a988386fc84ba6bc95484008f6362f93160ef3e5630180546001600160a01b0319166001600160a01b03881617905550939e9d5050505050505050505050505050565b600081815481106200034557600080fd5b6000918252602090912001546001600160a01b0316905081565b604051631ae212c560e01b81526001600160a01b03808516600483015283166024820152604481018290526060907345540e7ac63DA89B653C1c8192f69D3a731eeeaE90631ae212c5906064015b600060405180830381865af4158015620003cb573d6000803e3d6000fd5b505050506040513d6000823e601f3d908101601f19168201604052620003f5919081019062000604565b949350505050565b604051635d6f086360e11b81526001600160a01b03808516600483015283166024820152604481018290526060907345540e7ac63DA89B653C1c8192f69D3a731eeeaE9063bade10c690606401620003ad565b61538b80620006be83390190565b80356001600160a01b03811681146200047657600080fd5b919050565b6000806000806000806000806000806101408b8d0312156200049c57600080fd5b620004a78b6200045e565b9950620004b760208c016200045e565b985060408b01358015158114620004cd57600080fd5b999c989b5098996060810135995060808101359860a0820135985060c0820135975060e082013596506101008201359550610120909101359350915050565b6000602082840312156200051f57600080fd5b5035919050565b60005b838110156200054357818101518382015260200162000529565b8381111562000553576000848401525b50505050565b600081518084526200057381602086016020860162000526565b601f01601f19169290920160200192915050565b6001600160a01b03888116825287811660208301528616604082015284151560608201526080810184905260e060a08201819052600090620005cc9083018562000559565b82810360c0840152620005e0818562000559565b9a9950505050505050505050565b634e487b7160e01b600052604160045260246000fd5b6000602082840312156200061757600080fd5b815167ffffffffffffffff808211156200063057600080fd5b818401915084601f8301126200064557600080fd5b8151818111156200065a576200065a620005ee565b604051601f8201601f19908116603f01168101908382118183101715620006855762000685620005ee565b816040528281528760208487010111156200069f57600080fd5b620006b283602083016020880162000526565b97965050505050505056fe6101006040523480156200001257600080fd5b506040516200538b3803806200538b8339810160408190526200003591620002fb565b8151829082906200004e9060039060208501906200016b565b508051620000649060049060208401906200016b565b505060016006555060405163a167129560e01b81526001600160a01b03878116600483015286811660248301526064604483018190529089169163a167129591016020604051808303816000875af1158015620000c5573d6000803e3d6000fd5b505050506040513d601f19601f82011682018060405250810190620000eb9190620003c0565b6001600160a01b03908116608052858116908716108080156200010b5750845b806200011f5750801580156200011f575084155b151560e0528062000131578562000133565b865b6001600160a01b031660a052806200014c57866200014e565b855b6001600160a01b031660c052505050600a55506200042192505050565b8280546200017990620003e5565b90600052602060002090601f0160209004810192826200019d5760008555620001e8565b82601f10620001b857805160ff1916838001178555620001e8565b82800160010185558215620001e8579182015b82811115620001e8578251825591602001919060010190620001cb565b50620001f6929150620001fa565b5090565b5b80821115620001f65760008155600101620001fb565b80516001600160a01b03811681146200022957600080fd5b919050565b634e487b7160e01b600052604160045260246000fd5b600082601f8301126200025657600080fd5b81516001600160401b03808211156200027357620002736200022e565b604051601f8301601f19908116603f011681019082821181831017156200029e576200029e6200022e565b81604052838152602092508683858801011115620002bb57600080fd5b600091505b83821015620002df5785820183015181830184015290820190620002c0565b83821115620002f15760008385830101525b9695505050505050565b600080600080600080600060e0888a0312156200031757600080fd5b620003228862000211565b9650620003326020890162000211565b9550620003426040890162000211565b9450606088015180151581146200035857600080fd5b608089015160a08a015191955093506001600160401b03808211156200037d57600080fd5b6200038b8b838c0162000244565b935060c08a0151915080821115620003a257600080fd5b50620003b18a828b0162000244565b91505092959891949750929550565b600060208284031215620003d357600080fd5b620003de8262000211565b9392505050565b600181811c90821680620003fa57607f821691505b6020821081036200041b57634e487b7160e01b600052602260045260246000fd5b50919050565b60805160a05160c05160e051614e0a62000581600039600081816104280152818161084b01528181610ce101528181610d2501528181611b1a01528181612182015281816124f0015281816128830152612bbc0152600081816105e7015281816112c3015281816114e40152818161195101528181611b6501528181611c63015281816128a9015281816129630152612a5d01526000818161030f015281816112fd0152818161158201528181611ace01528181611b4001528181611bca015281816128ce015281816129410152612a3b0152600081816103cb01528181610685015281816107b50152818161094b01528181610d8e01528181610fe00152818161115d01528181611347015281816116130152818161174801528181611df101528181611e44015281816126080152818161291f01528181612a19015281816130690152818161310d015281816131dc0152613cc40152614e0a6000f3fe608060405234801561001057600080fd5b506004361061025d5760003560e01c806354b541ca1161014657806395d89b41116100c3578063c89039c511610087578063c89039c5146105da578063d21220a7146105e2578063d348799714610609578063dd62ed3e1461061c578063ddca3f431461062f578063fa461e331461063857600080fd5b806395d89b41146105855780639a02b3341461058d578063a457c2d7146105ab578063a9059cbb146105be578063b763ef74146105d157600080fd5b80636e6082c41161010a5780636e6082c4146105225780636f8d76df1461053557806370a082311461054057806370c07dcf1461056957806386b714e21461057c57600080fd5b806354b541ca146104745780635e66b9ea1461047d57806361e40d6b146104fe57806362177a54146105065780636e553f651461050f57600080fd5b806315432475116101df578063217a4b70116101a3578063217a4b701461040857806323b872dd146104105780632762d34a146104235780632eb888ae1461044a578063313ce56714610452578063395093511461046157600080fd5b806315432475146103735780631603648c1461037b57806316f0115b146103c657806318160ddd146103ed5780631e1c4c47146103f557600080fd5b80630d0350a9116102265780630d0350a9146102ea5780630d59058e146103015780630dfe16811461030a57806311a1829714610349578063127f0f071461035e57600080fd5b8062f714ce14610262578063065e53601461028f57806306fdde03146102aa578063095ea7b3146102bf5780630c5a5ad2146102e2575b600080fd5b6102756102703660046141f1565b61064b565b604080519283526020830191909152015b60405180910390f35b61029761093c565b60405160029190910b8152602001610286565b6102b26109e0565b6040516102869190614279565b6102d26102cd36600461428c565b610a72565b6040519015158152602001610286565b610275610a8c565b6102f3600c5481565b604051908152602001610286565b6102f360075481565b6103317f000000000000000000000000000000000000000000000000000000000000000081565b6040516001600160a01b039091168152602001610286565b61035c6103573660046142c7565b610d70565b005b610366610fad565b6040516102869190614340565b601154610297565b601854601954601a54601b54601c54601d5461039995949392919086565b604080519687526020870195909552938501929092526060840152608083015260a082015260c001610286565b6103317f000000000000000000000000000000000000000000000000000000000000000081565b6002546102f3565b61027561040336600461434e565b6110e3565b610331611b16565b6102d261041e366004614370565b611b87565b6102d27f000000000000000000000000000000000000000000000000000000000000000081565b610275611bad565b60405160128152602001610286565b6102d261046f36600461428c565b611ce6565b6102f3600d5481565b610485611d08565b6040516102869190600061014082019050825182526020830151602083015260408301516040830152606083015160608301526080830151608083015260a083015160a083015260c083015160c083015260e083015160e083015261010080840151818401525061012080840151818401525092915050565b601054610297565b6102f360085481565b6102f361051d3660046141f1565b611dbe565b61035c6105303660046143b1565b61238a565b601554601654610275565b6102f361054e3660046143f4565b6001600160a01b031660009081526020819052604090205490565b6102f3610577366004614411565b6124b7565b6102f360095481565b6102b261259f565b6105956125ae565b6040516102869a9998979695949392919061442a565b6102d26105b936600461428c565b6127eb565b6102d26105cc36600461428c565b612871565b6102f3600b5481565b61033161287f565b6103317f000000000000000000000000000000000000000000000000000000000000000081565b61035c6106173660046144db565b6128f0565b6102f361062a36600461452e565b6129bf565b6102f3600a5481565b61035c6106463660046144db565b6129ea565b600080610656612a8d565b7345540e7ac63DA89B653C1c8192f69D3a731eeeaE6392550593600e61072c836348483d176001600160a01b037f0000000000000000000000000000000000000000000000000000000000000000166106ad61287f565b6106b5611b16565b670de0b6b3a76400006040518563ffffffff1660e01b81526004016106dd949392919061455c565b602060405180830381865af41580156106fa573d6000803e3d6000fd5b505050506040513d601f19601f8201168201806040525081019061071e9190614586565b6001600160a01b0316612ae6565b6040516001600160e01b031960e085901b1681526004810192909252602482015260440160006040518083038186803b15801561076857600080fd5b505af415801561077c573d6000803e3d6000fd5b5050505061078984612aee565b601154601054929450909250906000807345540e7ac63DA89B653C1c8192f69D3a731eeeaE63cbbcdf237f00000000000000000000000000000000000000000000000000000000000000006107df87878d612c88565b87873060006040518763ffffffff1660e01b8152600401610805969594939291906145a3565b6040805180830381865af4158015610821573d6000803e3d6000fd5b505050506040513d601f19601f8201168201806040525081019061084591906145e9565b915091507f0000000000000000000000000000000000000000000000000000000000000000156108bc576108798287614623565b95506108858186614623565b945061089c61089383612ae6565b600e5490612d3d565b600e556108b46108ab82612ae6565b600f5490612d3d565b600f556108f3565b6108c68187614623565b95506108d28286614623565b94506108e061089382612ae6565b600e556108ef6108ab83612ae6565b600f555b6108fd3389612d4f565b61091a878761090a61287f565b6001600160a01b03169190612e83565b610927878661090a611b16565b505050506109356001600655565b9250929050565b60405163e8ffd56f60e01b81527f00000000000000000000000000000000000000000000000000000000000000006001600160a01b031660048201526000907345540e7ac63DA89B653C1c8192f69D3a731eeeaE9063e8ffd56f90602401602060405180830381865af41580156109b7573d6000803e3d6000fd5b505050506040513d601f19601f820116820180604052508101906109db919061463b565b905090565b6060600380546109ef90614658565b80601f0160208091040260200160405190810160405280929190818152602001828054610a1b90614658565b8015610a685780601f10610a3d57610100808354040283529160200191610a68565b820191906000526020600020905b815481529060010190602001808311610a4b57829003601f168201915b5050505050905090565b600033610a80818585612ee6565b60019150505b92915050565b6000806000610a9a60115490565b90506000610aa760105490565b90506000610ab58383613002565b5050905060008073eD2d5EB3fbcDdF4e2e972F8C6CF37EffB7851d5263c72e160b7345540e7ac63DA89B653C1c8192f69D3a731eeeaE63986cfba3610af861093c565b6040516001600160e01b031960e084901b16815260029190910b6004820152602401602060405180830381865af4158015610b37573d6000803e3d6000fd5b505050506040513d601f19601f82011682018060405250810190610b5b9190614586565b60405163986cfba360e01b8152600289900b60048201527345540e7ac63DA89B653C1c8192f69D3a731eeeaE9063986cfba390602401602060405180830381865af4158015610bae573d6000803e3d6000fd5b505050506040513d601f19601f82011682018060405250810190610bd29190614586565b60405163986cfba360e01b8152600289900b60048201527345540e7ac63DA89B653C1c8192f69D3a731eeeaE9063986cfba390602401602060405180830381865af4158015610c25573d6000803e3d6000fd5b505050506040513d601f19601f82011682018060405250810190610c499190614586565b610c556103e8896146a8565b6040516001600160e01b031960e087901b1681526001600160a01b0394851660048201529284166024840152921660448201526001600160801b0390911660648201526084016040805180830381865af4158015610cb7573d6000803e3d6000fd5b505050506040513d601f19601f82011682018060405250810190610cdb91906145e9565b915091507f0000000000000000000000000000000000000000000000000000000000000000610d1557610d10816103e86146ce565b610d21565b610d21826103e86146ce565b96507f0000000000000000000000000000000000000000000000000000000000000000610d5957610d54826103e86146ce565b610d65565b610d65816103e86146ce565b955050505050509091565b7345540e7ac63DA89B653C1c8192f69D3a731eeeaE63af12d5d8600e7f0000000000000000000000000000000000000000000000000000000000000000610db561287f565b610dbd611b16565b6040516001600160e01b031960e087901b16815260048101949094526001600160a01b03928316602485015290821660448401521660648201526084810187905260a48101869052600285900b60c482015260e481018490526101040160006040518083038186803b158015610e3257600080fd5b505af4158015610e46573d6000803e3d6000fd5b505050506000610e54610fad565b600c5460405163db6be7e560e01b81529192507345540e7ac63DA89B653C1c8192f69D3a731eeeaE9163db6be7e591610e9491600e9186916004016146ed565b6040805180830381865af4158015610eb0573d6000803e3d6000fd5b505050506040513d601f19601f82011682018060405250810190610ed491906145e9565b60608301526040820152610ee7816130ee565b50506011546010546000610f1e610f0f610f0087612ae6565b610f098b612ae6565b90613294565b610f1889612ae6565b906132a3565b90507345540e7ac63DA89B653C1c8192f69D3a731eeeaE6392550593600e610f4588612ae6565b6040516001600160e01b031960e085901b1681526004810192909252602482015260440160006040518083038186803b158015610f8157600080fd5b505af4158015610f95573d6000803e3d6000fd5b50505050610fa333826132b2565b5050505050505050565b610fb5614129565b600080610fc061093c565b905060007345540e7ac63DA89B653C1c8192f69D3a731eeeaE63adb9138c7f000000000000000000000000000000000000000000000000000000000000000061100761287f565b61100f611b16565b60405160e085901b6001600160e01b03191681526001600160a01b03938416600482015291831660248301529091166044820152600285900b6064820152608401602060405180830381865af415801561106d573d6000803e3d6000fd5b505050506040513d601f19601f820116820180604052508101906110919190614586565b6001600160a01b031690506040518060c001604052808481526020018481526020018481526020018481526020016110c883612ae6565b81526020016110d98460020b612ae6565b9052949350505050565b6000806110ee612a8d565b6110f883856146ce565b1561112e5760405162461bcd60e51b81526020600482015260016024820152606160f81b60448201526064015b60405180910390fd5b7345540e7ac63DA89B653C1c8192f69D3a731eeeaE6392550593600e611185836348483d176001600160a01b037f0000000000000000000000000000000000000000000000000000000000000000166106ad61287f565b6040516001600160e01b031960e085901b1681526004810192909252602482015260440160006040518083038186803b1580156111c157600080fd5b505af41580156111d5573d6000803e3d6000fd5b5050505060006111e3610fad565b90506111ed61415f565b60006040518060a0016040528061120389612ae6565b815260200161121188612ae6565b8152602001600a548152602001600754815260200160095481525090507345540e7ac63DA89B653C1c8192f69D3a731eeeaE631fdc090c83836040518363ffffffff1660e01b81526004016112679291906147bf565b6101e060405180830381865af4158015611285573d6000803e3d6000fd5b505050506040513d601f19601f820116820180604052508101906112a99190614953565b91506112b58383613371565b50600087116112f8576112f37f00000000000000000000000000000000000000000000000000000000000000006001600160a01b031633308961368e565b61132d565b61132d7f00000000000000000000000000000000000000000000000000000000000000006001600160a01b031633308a61368e565b6113388282856136cc565b9150816101c0015115611611577f00000000000000000000000000000000000000000000000000000000000000006001600160a01b031663128acb0830846101a00151856101a0015161138b578961138d565b8a5b866101a001516113bb576113b6600173fffd8963efd1fc6a506488495d951d5263988d26614970565b6113cb565b6113cb6401000276a36001614998565b60408051306020820152016040516020818303038152906040526040518663ffffffff1660e01b81526004016114059594939291906149c3565b60408051808303816000875af1158015611423573d6000803e3d6000fd5b505050506040513d601f19601f8201168201806040525081019061144791906145e9565b6101608401526101408301526040516322996f4f60e11b8152600e60048201527345540e7ac63DA89B653C1c8192f69D3a731eeeaE90634532de9e9060240160006040518083038186803b15801561149e57600080fd5b505af41580156114b2573d6000803e3d6000fd5b50505050816101a001511561155f5761016082015160405163a9059cbb60e01b815233600482015260248101919091527f00000000000000000000000000000000000000000000000000000000000000006001600160a01b03169063a9059cbb906044016020604051808303816000875af1158015611535573d6000803e3d6000fd5b505050506040513d601f19601f8201168201806040525081019061155991906149fe565b506115f9565b61014082015160405163a9059cbb60e01b815233600482015260248101919091527f00000000000000000000000000000000000000000000000000000000000000006001600160a01b03169063a9059cbb906044016020604051808303816000875af11580156115d3573d6000803e3d6000fd5b505050506040513d601f19601f820116820180604052508101906115f791906149fe565b505b81610140015182610160015194509450505050611b0c565b7f00000000000000000000000000000000000000000000000000000000000000006001600160a01b031663128acb0830846101a00151856101a0015161165b57856020015161165e565b85515b866101a0015161168c57611687600173fffd8963efd1fc6a506488495d951d5263988d26614970565b61169c565b61169c6401000276a36001614998565b60408051306020820152016040516020818303038152906040526040518663ffffffff1660e01b81526004016116d69594939291906149c3565b60408051808303816000875af11580156116f4573d6000803e3d6000fd5b505050506040513d601f19601f8201168201806040525081019061171891906145e9565b6101608401526101408301527345540e7ac63DA89B653C1c8192f69D3a731eeeaE6348483d176001600160a01b037f00000000000000000000000000000000000000000000000000000000000000001661177061287f565b611778611b16565b670de0b6b3a76400006040518563ffffffff1660e01b81526004016117a0949392919061455c565b602060405180830381865af41580156117bd573d6000803e3d6000fd5b505050506040513d601f19601f820116820180604052508101906117e19190614586565b604051631992ba2d60e21b81526001600160a01b0390911660048201527345540e7ac63DA89B653C1c8192f69D3a731eeeaE9063664ae8b490602401602060405180830381865af415801561183a573d6000803e3d6000fd5b505050506040513d601f19601f8201168201806040525081019061185e9190614586565b6001600160a01b03166101808301526101a08201511561197f576000611888836101800151612ae6565b604084015190915061189a9082613294565b60e084018190526101608401517345540e7ac63DA89B653C1c8192f69D3a731eeeaE91637ae2b5c7916118d19190610f1890612ae6565b60a08601516040516001600160e01b031960e085901b16815260048101929092526024820152604401602060405180830381865af4158015611917573d6000803e3d6000fd5b505050506040513d601f19601f8201168201806040525081019061193b9190614a19565b6101208401819052611979906001600160a01b037f000000000000000000000000000000000000000000000000000000000000000016903390612e83565b50611af8565b6000611a05611992846101800151612ae6565b7345540e7ac63DA89B653C1c8192f69D3a731eeeaE63901717d16040518163ffffffff1660e01b8152600401602060405180830381865af41580156119db573d6000803e3d6000fd5b505050506040513d601f19601f820116820180604052508101906119ff9190614a19565b90613a41565b6040840151909150611a179082613a41565b60c084018190526101408401517345540e7ac63DA89B653C1c8192f69D3a731eeeaE91637ae2b5c791611a4e9190610f1890612ae6565b60808601516040516001600160e01b031960e085901b16815260048101929092526024820152604401602060405180830381865af4158015611a94573d6000803e3d6000fd5b505050506040513d601f19601f82011682018060405250810190611ab89190614a19565b6101008401819052611af6906001600160a01b037f000000000000000000000000000000000000000000000000000000000000000016903390612e83565b505b816101000151826101200151945094505050505b6109356001600655565b60007f0000000000000000000000000000000000000000000000000000000000000000611b6257507f000000000000000000000000000000000000000000000000000000000000000090565b507f000000000000000000000000000000000000000000000000000000000000000090565b600033611b95858285613a59565b611ba0858585613acd565b60019150505b9392505050565b6015546040516370a0823160e01b815230600482015260009182917f00000000000000000000000000000000000000000000000000000000000000006001600160a01b0316906370a0823190602401602060405180830381865afa158015611c19573d6000803e3d6000fd5b505050506040513d601f19601f82011682018060405250810190611c3d9190614a19565b611c479190614a32565b6016546040516370a0823160e01b8152306004820152919350907f00000000000000000000000000000000000000000000000000000000000000006001600160a01b0316906370a0823190602401602060405180830381865afa158015611cb2573d6000803e3d6000fd5b505050506040513d601f19601f82011682018060405250810190611cd69190614a19565b611ce09190614a32565b90509091565b600033610a80818585611cf983836129bf565b611d039190614623565b612ee6565b611d5e604051806101400160405280600081526020016000815260200160008152602001600081526020016000815260200160008152602001600081526020016000815260200160008152602001600081525090565b506040805161014081018252600e548152600f546020820152601054918101919091526011546060820152601254608082015260135460a082015260145460c082015260155460e082015260165461010082015260175461012082015290565b6000611dc8612a8d565b6000611e197345540e7ac63DA89B653C1c8192f69D3a731eeeaE6348483d176001600160a01b037f0000000000000000000000000000000000000000000000000000000000000000166106ad61287f565b90506000611f077345540e7ac63DA89B653C1c8192f69D3a731eeeaE63ee89e3d26001600160a01b037f000000000000000000000000000000000000000000000000000000000000000016611e6c61287f565b611e74611b16565b60405160e085901b6001600160e01b03191681526001600160a01b0393841660048201529183166024830152909116604482015261012c6064820152670de0b6b3a7640000608482015260a401602060405180830381865af4158015611ede573d6000803e3d6000fd5b505050506040513d601f19601f82011682018060405250810190611f029190614a19565b612ae6565b604051637ae2b5c760e01b815260048101849052602481018290529091506000907345540e7ac63DA89B653C1c8192f69D3a731eeeaE90637ae2b5c790604401602060405180830381865af4158015611f64573d6000803e3d6000fd5b505050506040513d601f19601f82011682018060405250810190611f889190614a19565b90506000611fb2611fa168056bc75e2d63100000612ae6565b6119ff674563918244f40000612ae6565b90506000611fcb611fc289612ae6565b600b5490613294565b90506000611fe282611fdc8b612ae6565b90612d3d565b601254909150600090851161200357601254611ffe9086612d3d565b612011565b601254612011908690612d3d565b90506120a161208f7345540e7ac63DA89B653C1c8192f69D3a731eeeaE635fdf05d76040518163ffffffff1660e01b8152600401602060405180830381865af4158015612062573d6000803e3d6000fd5b505050506040513d601f19601f820116820180604052508101906120869190614a19565b600a5490613294565b60125461209d908490613a41565b1190565b156120d25760405162461bcd60e51b81526020600482015260016024820152606d60f81b6044820152606401611125565b60006120e76120e08c612ae6565b8790613294565b9050600061217e612177611f027345540e7ac63DA89B653C1c8192f69D3a731eeeaE636d5433e68d8d6040518363ffffffff1660e01b8152600401612136929190918252602082015260400190565b602060405180830381865af4158015612153573d6000803e3d6000fd5b505050506040513d601f19601f820116820180604052508101906105779190614a19565b8390613a41565b90507f0000000000000000000000000000000000000000000000000000000000000000156121cc576015546121b4908690614623565b601555600e546121c490856132a3565b600e556121ee565b6016546121da908690614623565b601655600f546121ea90856132a3565b600f555b61220d33308e6121fc61287f565b6001600160a01b031692919061368e565b600061221f82610f09611f0260025490565b9050809a5061222e8c8c6132b2565b60175461225c90612255906122439043614a32565b611f0290670de0b6b3a76400006146ce565b6007541090565b1561230c57600061226b610fad565b600c5460405163db6be7e560e01b81529192507345540e7ac63DA89B653C1c8192f69D3a731eeeaE9163db6be7e5916122ab91600e9186916004016146ed565b6040805180830381865af41580156122c7573d6000803e3d6000fd5b505050506040513d601f19601f820116820180604052508101906122eb91906145e9565b606083015260408201526122fd613c71565b5050612308816130ee565b5050505b604051639255059360e01b8152600e6004820152602481018b90527345540e7ac63DA89B653C1c8192f69D3a731eeeaE9063925505939060440160006040518083038186803b15801561235e57600080fd5b505af4158015612372573d6000803e3d6000fd5b5050505050505050505050505050610a866001600655565b600554610100900460ff16158080156123aa5750600554600160ff909116105b806123c45750303b1580156123c4575060055460ff166001145b6124275760405162461bcd60e51b815260206004820152602e60248201527f496e697469616c697a61626c653a20636f6e747261637420697320616c72656160448201526d191e481a5b9a5d1a585b1a5e995960921b6064820152608401611125565b6005805460ff19166001179055801561244a576005805461ff0019166101001790555b600787905560088690556009859055600b849055600c839055600d82905580156124ae576005805461ff0019169055604051600181527f7f26b83ff96e1f2b6a682f133852f6798a09c465da95921460cefb38474024989060200160405180910390a15b50505050505050565b60008060008060006124c7610a8c565b915091506000806124db6015546016549091565b915091506000806124ea611bad565b915091507f000000000000000000000000000000000000000000000000000000000000000015612547578561251f8386614623565b6125299190614623565b9750846125368285614623565b6125409190614623565b9650612576565b856125528285614623565b61255c9190614623565b9750846125698386614623565b6125739190614623565b96505b6000612584610f008c612ae6565b90506125908882614623565b9b9a5050505050505050505050565b6060600480546109ef90614658565b6125b6614129565b60008060008060008060008060006125cd60115490565b96506125d860105490565b95506125e2610fad565b99507345540e7ac63DA89B653C1c8192f69D3a731eeeaE6348483d176001600160a01b037f00000000000000000000000000000000000000000000000000000000000000001661263061287f565b612638611b16565b60016040518563ffffffff1660e01b8152600401612659949392919061455c565b602060405180830381865af4158015612676573d6000803e3d6000fd5b505050506040513d601f19601f8201168201806040525081019061269a9190614586565b6001600160a01b031698506126ad61093c565b601354601454919950955093506126c48787613002565b509093507345540e7ac63DA89B653C1c8192f69D3a731eeeaE905063986cfba36126ec61093c565b6040516001600160e01b031960e084901b16815260029190910b6004820152602401602060405180830381865af415801561272b573d6000803e3d6000fd5b505050506040513d601f19601f8201168201806040525081019061274f9190614586565b60405163986cfba360e01b8152600288900b60048201526001600160a01b039190911692507345540e7ac63DA89B653C1c8192f69D3a731eeeaE9063986cfba390602401602060405180830381865af41580156127b0573d6000803e3d6000fd5b505050506040513d601f19601f820116820180604052508101906127d49190614586565b6001600160a01b0316905090919293949596979899565b600033816127f982866129bf565b9050838110156128595760405162461bcd60e51b815260206004820152602560248201527f45524332303a2064656372656173656420616c6c6f77616e63652062656c6f77604482015264207a65726f60d81b6064820152608401611125565b6128668286868403612ee6565b506001949350505050565b600033610a80818585613acd565b60007f00000000000000000000000000000000000000000000000000000000000000006128cb57507f000000000000000000000000000000000000000000000000000000000000000090565b507f000000000000000000000000000000000000000000000000000000000000000090565b6040516303ecbeab60e41b81527345540e7ac63DA89B653C1c8192f69D3a731eeeaE90633ecbeab090612993907f0000000000000000000000000000000000000000000000000000000000000000907f0000000000000000000000000000000000000000000000000000000000000000907f0000000000000000000000000000000000000000000000000000000000000000908a908a908a908a90600401614a72565b60006040518083038186803b1580156129ab57600080fd5b505af4158015610fa3573d6000803e3d6000fd5b6001600160a01b03918216600090815260016020908152604080832093909416825291909152205490565b60405163630f9b0d60e11b81527345540e7ac63DA89B653C1c8192f69D3a731eeeaE9063c61f361a90612993907f0000000000000000000000000000000000000000000000000000000000000000907f0000000000000000000000000000000000000000000000000000000000000000907f0000000000000000000000000000000000000000000000000000000000000000908a908a908a908a90600401614a72565b600260065403612adf5760405162461bcd60e51b815260206004820152601f60248201527f5265656e7472616e637947756172643a207265656e7472616e742063616c6c006044820152606401611125565b6002600655565b600081610a86565b6000806000612afc60025490565b9050600080612b0e6015546016549091565b91509150600080612b1d611bad565b9092509050600085612b2f868b6146ce565b612b399190614ac2565b9050600086612b48868c6146ce565b612b529190614ac2565b9050600087612b61868d6146ce565b612b6b9190614ac2565b9050600088612b7a868e6146ce565b612b849190614ac2565b905083600e6007016000828254612b9b9190614a32565b909155505060168054849190600090612bb5908490614a32565b90915550507f000000000000000000000000000000000000000000000000000000000000000015612c2f57612bea8285614623565b612bf4908c614623565b9a50612c008184614623565b612c0a908b614623565b9950612c1861089383612ae6565b600e55612c276108ab82612ae6565b600f55612c7a565b612c398184614623565b612c43908c614623565b9a50612c4f8285614623565b612c59908b614623565b9950612c6761089382612ae6565b600e55612c766108ab83612ae6565b600f555b505050505050505050915091565b600080612c958585613002565b50509050612ca260025490565b612cb5846001600160801b0384166146ce565b612cbf9190614ac2565b60405163445bbfd760e11b815260048101919091527345540e7ac63DA89B653C1c8192f69D3a731eeeaE906388b77fae90602401602060405180830381865af4158015612d10573d6000803e3d6000fd5b505050506040513d601f19601f82011682018060405250810190612d349190614aed565b95945050505050565b6000611ba6612d4c8385614a32565b90565b6001600160a01b038216612daf5760405162461bcd60e51b815260206004820152602160248201527f45524332303a206275726e2066726f6d20746865207a65726f206164647265736044820152607360f81b6064820152608401611125565b6001600160a01b03821660009081526020819052604090205481811015612e235760405162461bcd60e51b815260206004820152602260248201527f45524332303a206275726e20616d6f756e7420657863656564732062616c616e604482015261636560f01b6064820152608401611125565b6001600160a01b0383166000818152602081815260408083208686039055600280548790039055518581529192917fddf252ad1be2c89b69c2b068fc378daa952ba7f163c4a11628f55a4df523b3ef91015b60405180910390a35b505050565b6040516001600160a01b038316602482015260448101829052612e7e90849063a9059cbb60e01b906064015b60408051601f198184030181529190526020810180516001600160e01b03166001600160e01b031990931692909217909152613d3f565b6001600160a01b038316612f485760405162461bcd60e51b8152602060048201526024808201527f45524332303a20617070726f76652066726f6d20746865207a65726f206164646044820152637265737360e01b6064820152608401611125565b6001600160a01b038216612fa95760405162461bcd60e51b815260206004820152602260248201527f45524332303a20617070726f766520746f20746865207a65726f206164647265604482015261737360f01b6064820152608401611125565b6001600160a01b0383811660008181526001602090815260408083209487168084529482529182902085905590518481527f8c5be1e5ebec7d5bd14f71427d1e84f3dd0314c0f7b2291e5b200ac8c7c3b9259101612e75565b6040516bffffffffffffffffffffffff193060601b16602082015260e883811b603483015282901b6037820152600090819081908190603a0160408051808303601f1901815290829052805160209091012063514ea4bf60e01b82526004820181905291507f00000000000000000000000000000000000000000000000000000000000000006001600160a01b03169063514ea4bf9060240160a060405180830381865afa1580156130b8573d6000803e3d6000fd5b505050506040513d601f19601f820116820180604052508101906130dc9190614b08565b939a9099509297509195505050505050565b601154601054604083810151606085015191516317d2d55760e11b81527f00000000000000000000000000000000000000000000000000000000000000006001600160a01b03166004820152600285810b602483015284900b6044820152606481019190915260848101919091526000928392909183907345540e7ac63DA89B653C1c8192f69D3a731eeeaE90632fa5aaae9060a401602060405180830381865af41580156131a1573d6000803e3d6000fd5b505050506040513d601f19601f820116820180604052508101906131c59190614aed565b6040516328fe753560e01b81526001600160a01b037f0000000000000000000000000000000000000000000000000000000000000000166004820152600285810b602483015284900b60448201526001600160801b03919091166064820181905291507345540e7ac63DA89B653C1c8192f69D3a731eeeaE906328fe7535906084016040805180830381865af4158015613263573d6000803e3d6000fd5b505050506040513d601f19601f8201168201806040525081019061328791906145e9565b9097909650945050505050565b6000611ba6612d4c8484613e11565b6000611ba6612d4c8385614623565b6001600160a01b0382166133085760405162461bcd60e51b815260206004820152601f60248201527f45524332303a206d696e7420746f20746865207a65726f2061646472657373006044820152606401611125565b806002600082825461331a9190614623565b90915550506001600160a01b038216600081815260208181526040808320805486019055518481527fddf252ad1be2c89b69c2b068fc378daa952ba7f163c4a11628f55a4df523b3ef910160405180910390a35050565b613379614129565b600854604051632e24912960e01b815260009182917345540e7ac63DA89B653C1c8192f69D3a731eeeaE91632e249129916133bc91600e918a91906004016146ed565b6040805180830381865af41580156133d8573d6000803e3d6000fd5b505050506040513d601f19601f820116820180604052508101906133fc91906145e9565b601154919350915082141580156134155750836101a001515b1561345d57600080613425613c71565b6011869055909250905061343882612ae6565b604088015261344681612ae6565b6060880152613454876130ee565b505050506135d7565b60105481141580156134725750836101a00151155b1561349557600080613482613c71565b6010859055909250905061343882612ae6565b6017546134aa9061225590611f029043614a32565b156135d757600c5460405163db6be7e560e01b81527345540e7ac63DA89B653C1c8192f69D3a731eeeaE9163db6be7e5916134ed91600e918a91906004016146ed565b6040805180830381865af4158015613509573d6000803e3d6000fd5b505050506040513d601f19601f8201168201806040525081019061352d91906145e9565b6060870152604080870191909152600c54600d54915163f599848160e01b81527345540e7ac63DA89B653C1c8192f69D3a731eeeaE9263f59984819261357b92600e928b9291600401614b5f565b602060405180830381865af4158015613598573d6000803e3d6000fd5b505050506040513d601f19601f820116820180604052508101906135bc91906149fe565b156135d7576135c9613c71565b50506135d4856130ee565b50505b6000806135e2610a8c565b915091506135ef82612ae6565b60408801526135fd81612ae6565b606088015260405163ae788ecf60e01b81527345540e7ac63DA89B653C1c8192f69D3a731eeeaE9063ae788ecf9061363c90600e908b90600401614b87565b6040805180830381865af4158015613658573d6000803e3d6000fd5b505050506040513d601f19601f8201168201806040525081019061367c91906145e9565b60208901528752509495945050505050565b6040516001600160a01b03808516602483015283166044820152606481018290526136c69085906323b872dd60e01b90608401612eaf565b50505050565b6136d461415f565b61372a604051806101400160405280600081526020016000815260200160008152602001600081526020016000815260200160008152602001600081526020016000815260200160008152602001600081525090565b60405163b27aab6760e01b81527345540e7ac63DA89B653C1c8192f69D3a731eeeaE9063b27aab679061376590889085908990600401614c01565b61032060405180830381865af4158015613783573d6000803e3d6000fd5b505050506040513d601f19601f820116820180604052508101906137a79190614c57565b604051624956b760e91b815291965091507345540e7ac63DA89B653C1c8192f69D3a731eeeaE906392ad6e00906137e990600e90899086908a90600401614d0a565b61032060405180830381865af4158015613807573d6000803e3d6000fd5b505050506040513d601f19601f8201168201806040525081019061382b9190614c57565b604051632a2a95b960e11b815291965091507345540e7ac63DA89B653C1c8192f69D3a731eeeaE906354552b729061386e90600e9087908a908790600401614d6a565b61032060405180830381865af415801561388c573d6000803e3d6000fd5b505050506040513d601f19601f820116820180604052508101906138b09190614c57565b6040516334403bfd60e11b815291965091507345540e7ac63DA89B653C1c8192f69D3a731eeeaE9063688077fa906138ee9088908590600401614d9a565b61032060405180830381865af415801561390c573d6000803e3d6000fd5b505050506040513d601f19601f820116820180604052508101906139309190614c57565b604051633ef8e5ff60e11b815291965091507345540e7ac63DA89B653C1c8192f69D3a731eeeaE90637df1cbfe9061397390600e90899086908a90600401614d0a565b61032060405180830381865af4158015613991573d6000803e3d6000fd5b505050506040513d601f19601f820116820180604052508101906139b59190614c57565b60405163e92ceeb960e01b815291965091507345540e7ac63DA89B653C1c8192f69D3a731eeeaE9063e92ceeb9906139f590869089908690600401614db7565b61032060405180830381865af4158015613a13573d6000803e3d6000fd5b505050506040513d601f19601f82011682018060405250810190613a379190614c57565b5095945050505050565b6000611ba6612d4c84670de0b6b3a764000085613ec5565b6000613a6584846129bf565b905060001981146136c65781811015613ac05760405162461bcd60e51b815260206004820152601d60248201527f45524332303a20696e73756666696369656e7420616c6c6f77616e63650000006044820152606401611125565b6136c68484848403612ee6565b6001600160a01b038316613b315760405162461bcd60e51b815260206004820152602560248201527f45524332303a207472616e736665722066726f6d20746865207a65726f206164604482015264647265737360d81b6064820152608401611125565b6001600160a01b038216613b935760405162461bcd60e51b815260206004820152602360248201527f45524332303a207472616e7366657220746f20746865207a65726f206164647260448201526265737360e81b6064820152608401611125565b6001600160a01b03831660009081526020819052604090205481811015613c0b5760405162461bcd60e51b815260206004820152602660248201527f45524332303a207472616e7366657220616d6f756e7420657863656564732062604482015265616c616e636560d01b6064820152608401611125565b6001600160a01b03848116600081815260208181526040808320878703905593871680835291849020805487019055925185815290927fddf252ad1be2c89b69c2b068fc378daa952ba7f163c4a11628f55a4df523b3ef910160405180910390a36136c6565b6000806000613c8a600e60030154600e60020154613002565b505060115460105460405163cbbcdf2360e01b81529293507345540e7ac63DA89B653C1c8192f69D3a731eeeaE9263cbbcdf2392613cf5927f0000000000000000000000000000000000000000000000000000000000000000928792919030906001906004016145a3565b6040805180830381865af4158015613d11573d6000803e3d6000fd5b505050506040513d601f19601f82011682018060405250810190613d3591906145e9565b9094909350915050565b6000613d94826040518060400160405280602081526020017f5361666545524332303a206c6f772d6c6576656c2063616c6c206661696c6564815250856001600160a01b0316613f999092919063ffffffff16565b805190915015612e7e5780806020019051810190613db291906149fe565b612e7e5760405162461bcd60e51b815260206004820152602a60248201527f5361666545524332303a204552433230206f7065726174696f6e20646964206e6044820152691bdd081cdd58d8d9595960b21b6064820152608401611125565b60008080600019848609848602925082811083820303915050670de0b6b3a76400008110613e5c57604051635173648d60e01b81526004810186905260248101859052604401611125565b6000670de0b6b3a7640000858709905081600003613e88575050670de0b6b3a764000090049050610a86565b620400008184030492109003600160ee1b02177faccb18165bd6fe31ae1cf318dc5b51eee0e1ba569b88cd74c1773b91fac1066902905092915050565b6000808060001985870985870292508281108382030391505080600003613eff57838281613ef557613ef5614692565b0492505050611ba6565b838110613f3057604051630c740aef60e31b8152600481018790526024810186905260448101859052606401611125565b60008486880960026001871981018816978890046003810283188082028403028082028403028082028403028082028403028082028403029081029092039091026000889003889004909101858311909403939093029303949094049190911702949350505050565b6060613fa88484600085613fb0565b949350505050565b6060824710156140115760405162461bcd60e51b815260206004820152602660248201527f416464726573733a20696e73756666696369656e742062616c616e636520666f6044820152651c8818d85b1b60d21b6064820152608401611125565b600080866001600160a01b0316858760405161402d9190614de1565b60006040518083038185875af1925050503d806000811461406a576040519150601f19603f3d011682016040523d82523d6000602084013e61406f565b606091505b50915091506140808783838761408b565b979650505050505050565b606083156140fa5782516000036140f3576001600160a01b0385163b6140f35760405162461bcd60e51b815260206004820152601d60248201527f416464726573733a2063616c6c20746f206e6f6e2d636f6e74726163740000006044820152606401611125565b5081613fa8565b613fa8838381511561410f5781518083602001fd5b8060405162461bcd60e51b81526004016111259190614279565b6040518060c001604052806000815260200160008152602001600081526020016000815260200160008152602001600081525090565b604051806101e00160405280600081526020016000815260200160008152602001600081526020016000815260200160008152602001600081526020016000815260200160008152602001600081526020016000815260200160008152602001600081526020016000151581526020016000151581525090565b6001600160a01b03811681146141ee57600080fd5b50565b6000806040838503121561420457600080fd5b823591506020830135614216816141d9565b809150509250929050565b60005b8381101561423c578181015183820152602001614224565b838111156136c65750506000910152565b60008151808452614265816020860160208601614221565b601f01601f19169290920160200192915050565b602081526000611ba6602083018461424d565b6000806040838503121561429f57600080fd5b82356142aa816141d9565b946020939093013593505050565b8060020b81146141ee57600080fd5b600080600080608085870312156142dd57600080fd5b843593506020850135925060408501356142f6816142b8565b9396929550929360600135925050565b805182526020810151602083015260408101516040830152606081015160608301526080810151608083015260a081015160a08301525050565b60c08101610a868284614306565b6000806040838503121561436157600080fd5b50508035926020909101359150565b60008060006060848603121561438557600080fd5b8335614390816141d9565b925060208401356143a0816141d9565b929592945050506040919091013590565b60008060008060008060c087890312156143ca57600080fd5b505084359660208601359650604086013595606081013595506080810135945060a0013592509050565b60006020828403121561440657600080fd5b8135611ba6816141d9565b60006020828403121561442357600080fd5b5035919050565b6101e08101614439828d614306565b60c082019a909a52600298890b60e082015296880b6101008801529490960b6101208601526001600160a01b0392831661014086015291166101608401526001600160801b03166101808301526101a08201929092526101c00152919050565b60008083601f8401126144ab57600080fd5b50813567ffffffffffffffff8111156144c357600080fd5b60208301915083602082850101111561093557600080fd5b600080600080606085870312156144f157600080fd5b8435935060208501359250604085013567ffffffffffffffff81111561451657600080fd5b61452287828801614499565b95989497509550505050565b6000806040838503121561454157600080fd5b823561454c816141d9565b91506020830135614216816141d9565b6001600160a01b039485168152928416602084015292166040820152606081019190915260800190565b60006020828403121561459857600080fd5b8151611ba6816141d9565b6001600160a01b0396871681526001600160801b03959095166020860152600293840b60408601529190920b60608401529216608082015290151560a082015260c00190565b600080604083850312156145fc57600080fd5b505080516020909101519092909150565b634e487b7160e01b600052601160045260246000fd5b600082198211156146365761463661460d565b500190565b60006020828403121561464d57600080fd5b8151611ba6816142b8565b600181811c9082168061466c57607f821691505b60208210810361468c57634e487b7160e01b600052602260045260246000fd5b50919050565b634e487b7160e01b600052601260045260246000fd5b60006001600160801b03808416806146c2576146c2614692565b92169190910492915050565b60008160001904831182151516156146e8576146e861460d565b500290565b83815261010081016147026020830185614306565b8260e0830152949350505050565b805182526020810151602083015260408101516040830152606081015160608301526080810151608083015260a081015160a083015260c081015160c083015260e081015160e08301526101008082015181840152506101208082015181840152506101408082015181840152506101608082015181840152506101808082015181840152506101a0808201516147aa8285018215159052565b50506101c081810151801515848301526136c6565b61028081016147ce8285614710565b82516101e08301526020830151610200830152604083015161022083015260608301516102408301526080830151610260830152611ba6565b6040516101e0810167ffffffffffffffff8111828210171561483957634e487b7160e01b600052604160045260246000fd5b60405290565b604051610140810167ffffffffffffffff8111828210171561483957634e487b7160e01b600052604160045260246000fd5b8051801515811461488157600080fd5b919050565b60006101e0828403121561489957600080fd5b6148a1614807565b9050815181526020820151602082015260408201516040820152606082015160608201526080820151608082015260a082015160a082015260c082015160c082015260e082015160e08201526101008083015181830152506101208083015181830152506101408083015181830152506101608083015181830152506101808083015181830152506101a0614937818401614871565b908201526101c0614949838201614871565b9082015292915050565b60006101e0828403121561496657600080fd5b611ba68383614886565b60006001600160a01b03838116908316818110156149905761499061460d565b039392505050565b60006001600160a01b038281168482168083038211156149ba576149ba61460d565b01949350505050565b6001600160a01b0386811682528515156020830152604082018590528316606082015260a0608082018190526000906140809083018461424d565b600060208284031215614a1057600080fd5b611ba682614871565b600060208284031215614a2b57600080fd5b5051919050565b600082821015614a4457614a4461460d565b500390565b81835281816020850137506000828201602090810191909152601f909101601f19169091010190565b6001600160a01b038881168252878116602083015286166040820152606081018590526080810184905260c060a08201819052600090614ab59083018486614a49565b9998505050505050505050565b600082614ad157614ad1614692565b500490565b80516001600160801b038116811461488157600080fd5b600060208284031215614aff57600080fd5b611ba682614ad6565b600080600080600060a08688031215614b2057600080fd5b614b2986614ad6565b94506020860151935060408601519250614b4560608701614ad6565b9150614b5360808701614ad6565b90509295509295909350565b8481526101208101614b746020830186614306565b60e0820193909352610100015292915050565b82815260e08101611ba66020830184614306565b805182526020810151602083015260408101516040830152606081015160608301526080810151608083015260a081015160a083015260c081015160c083015260e081015160e08301526101008082015181840152506101208082015181840152505050565b6103c08101614c108286614710565b614c1e6101e0830185614b9b565b825161032083015260208301516103408301526040830151610360830152606083015161038083015260808301516103a0830152613fa8565b600080828403610320811215614c6c57600080fd5b614c768585614886565b92506101406101df1982011215614c8c57600080fd5b50614c9561483f565b6101e08401518152610200840151602082015261022084015160408201526102408401516060820152610260840151608082015261028084015160a08201526102a084015160c08201526102c084015160e08201526102e0840151610100820152610300909301516101208401525092909150565b8481526103e08101614d1f6020830186614710565b614d2d610200830185614b9b565b82516103408301526020830151610360830152604083015161038083015260608301516103a083015260808301516103c083015295945050505050565b8481526104008101614d7f6020830186614306565b614d8c60e0830185614710565b612d346102c0830184614b9b565b6103208101614da98285614710565b611ba66101e0830184614b9b565b6103e08101614dc68286614306565b614dd360c0830185614710565b613fa86102a0830184614b9b565b60008251614df3818460208701614221565b919091019291505056fea164736f6c634300080e000aa164736f6c634300080e000a",
  "deployedBytecode": "0x60806040523480156200001157600080fd5b5060043610620000465760003560e01c80630bb4024f146200004b5780634219dc40146200007e57806391d5f15e14620000a6575b600080fd5b620000626200005c3660046200047b565b620000bd565b6040516001600160a01b03909116815260200160405180910390f35b620000627f000000000000000000000000000000000000000000000000000000000000000081565b62000062620000b73660046200050c565b62000334565b600080620001118b6001600160a01b03168d6001600160a01b031610620000e5578b620000e7565b8c5b8c6001600160a01b03168e6001600160a01b03161062000108578d6200010a565b8c5b876200035f565b90506000620001668c6001600160a01b03168e6001600160a01b0316106200013a578c6200013c565b8d5b8d6001600160a01b03168f6001600160a01b0316106200015d578e6200015f565b8d5b88620003fd565b905060008c6001600160a01b03168e6001600160a01b0316106200018b578c6200018d565b8d5b8d6001600160a01b03168f6001600160a01b031610620001ae578e620001b0565b8d5b604080516001600160a01b039384166020820152929091169082015260608101889052608001604051602081830303815290604052805190602001209050807f00000000000000000000000000000000000000000000000000000000000000008f8f8f8f8888604051620002249062000450565b62000236979695949392919062000587565b8190604051809103906000f590508015801562000257573d6000803e3d6000fd5b50604051631b9820b160e21b8152600481018c9052602481018b9052604481018a9052606481018990526084810188905260a481018790529094506001600160a01b03851690636e6082c49060c401600060405180830381600087803b158015620002c157600080fd5b505af1158015620002d6573d6000803e3d6000fd5b5050600080546001810182559080527f290decd9548b62a8d60345a988386fc84ba6bc95484008f6362f93160ef3e5630180546001600160a01b0319166001600160a01b03881617905550939e9d5050505050505050505050505050565b600081815481106200034557600080fd5b6000918252602090912001546001600160a01b0316905081565b604051631ae212c560e01b81526001600160a01b038085166004830152831660248201526044810182905260609073__$3e2d7ef3939b7294626765a367dfc5fcae$__90631ae212c5906064015b600060405180830381865af4158015620003cb573d6000803e3d6000fd5b505050506040513d6000823e601f3d908101601f19168201604052620003f5919081019062000604565b949350505050565b604051635d6f086360e11b81526001600160a01b038085166004830152831660248201526044810182905260609073__$3e2d7ef3939b7294626765a367dfc5fcae$__9063bade10c690606401620003ad565b61538b80620006be83390190565b80356001600160a01b03811681146200047657600080fd5b919050565b6000806000806000806000806000806101408b8d0312156200049c57600080fd5b620004a78b6200045e565b9950620004b760208c016200045e565b985060408b01358015158114620004cd57600080fd5b999c989b5098996060810135995060808101359860a0820135985060c0820135975060e082013596506101008201359550610120909101359350915050565b6000602082840312156200051f57600080fd5b5035919050565b60005b838110156200054357818101518382015260200162000529565b8381111562000553576000848401525b50505050565b600081518084526200057381602086016020860162000526565b601f01601f19169290920160200192915050565b6001600160a01b03888116825287811660208301528616604082015284151560608201526080810184905260e060a08201819052600090620005cc9083018562000559565b82810360c0840152620005e0818562000559565b9a9950505050505050505050565b634e487b7160e01b600052604160045260246000fd5b6000602082840312156200061757600080fd5b815167ffffffffffffffff808211156200063057600080fd5b818401915084601f8301126200064557600080fd5b8151818111156200065a576200065a620005ee565b604051601f8201601f19908116603f01168101908382118183101715620006855762000685620005ee565b816040528281528760208487010111156200069f57600080fd5b620006b283602083016020880162000526565b97965050505050505056fe6101006040523480156200001257600080fd5b506040516200538b3803806200538b8339810160408190526200003591620002fb565b8151829082906200004e9060039060208501906200016b565b508051620000649060049060208401906200016b565b505060016006555060405163a167129560e01b81526001600160a01b03878116600483015286811660248301526064604483018190529089169163a167129591016020604051808303816000875af1158015620000c5573d6000803e3d6000fd5b505050506040513d601f19601f82011682018060405250810190620000eb9190620003c0565b6001600160a01b03908116608052858116908716108080156200010b5750845b806200011f5750801580156200011f575084155b151560e0528062000131578562000133565b865b6001600160a01b031660a052806200014c57866200014e565b855b6001600160a01b031660c052505050600a55506200042192505050565b8280546200017990620003e5565b90600052602060002090601f0160209004810192826200019d5760008555620001e8565b82601f10620001b857805160ff1916838001178555620001e8565b82800160010185558215620001e8579182015b82811115620001e8578251825591602001919060010190620001cb565b50620001f6929150620001fa565b5090565b5b80821115620001f65760008155600101620001fb565b80516001600160a01b03811681146200022957600080fd5b919050565b634e487b7160e01b600052604160045260246000fd5b600082601f8301126200025657600080fd5b81516001600160401b03808211156200027357620002736200022e565b604051601f8301601f19908116603f011681019082821181831017156200029e576200029e6200022e565b81604052838152602092508683858801011115620002bb57600080fd5b600091505b83821015620002df5785820183015181830184015290820190620002c0565b83821115620002f15760008385830101525b9695505050505050565b600080600080600080600060e0888a0312156200031757600080fd5b620003228862000211565b9650620003326020890162000211565b9550620003426040890162000211565b9450606088015180151581146200035857600080fd5b608089015160a08a015191955093506001600160401b03808211156200037d57600080fd5b6200038b8b838c0162000244565b935060c08a0151915080821115620003a257600080fd5b50620003b18a828b0162000244565b91505092959891949750929550565b600060208284031215620003d357600080fd5b620003de8262000211565b9392505050565b600181811c90821680620003fa57607f821691505b6020821081036200041b57634e487b7160e01b600052602260045260246000fd5b50919050565b60805160a05160c05160e051614e0a62000581600039600081816104280152818161084b01528181610ce101528181610d2501528181611b1a01528181612182015281816124f0015281816128830152612bbc0152600081816105e7015281816112c3015281816114e40152818161195101528181611b6501528181611c63015281816128a9015281816129630152612a5d01526000818161030f015281816112fd0152818161158201528181611ace01528181611b4001528181611bca015281816128ce015281816129410152612a3b0152600081816103cb01528181610685015281816107b50152818161094b01528181610d8e01528181610fe00152818161115d01528181611347015281816116130152818161174801528181611df101528181611e44015281816126080152818161291f01528181612a19015281816130690152818161310d015281816131dc0152613cc40152614e0a6000f3fe608060405234801561001057600080fd5b506004361061025d5760003560e01c806354b541ca1161014657806395d89b41116100c3578063c89039c511610087578063c89039c5146105da578063d21220a7146105e2578063d348799714610609578063dd62ed3e1461061c578063ddca3f431461062f578063fa461e331461063857600080fd5b806395d89b41146105855780639a02b3341461058d578063a457c2d7146105ab578063a9059cbb146105be578063b763ef74146105d157600080fd5b80636e6082c41161010a5780636e6082c4146105225780636f8d76df1461053557806370a082311461054057806370c07dcf1461056957806386b714e21461057c57600080fd5b806354b541ca146104745780635e66b9ea1461047d57806361e40d6b146104fe57806362177a54146105065780636e553f651461050f57600080fd5b806315432475116101df578063217a4b70116101a3578063217a4b701461040857806323b872dd146104105780632762d34a146104235780632eb888ae1461044a578063313ce56714610452578063395093511461046157600080fd5b806315432475146103735780631603648c1461037b57806316f0115b146103c657806318160ddd146103ed5780631e1c4c47146103f557600080fd5b80630d0350a9116102265780630d0350a9146102ea5780630d59058e146103015780630dfe16811461030a57806311a1829714610349578063127f0f071461035e57600080fd5b8062f714ce14610262578063065e53601461028f57806306fdde03146102aa578063095ea7b3146102bf5780630c5a5ad2146102e2575b600080fd5b6102756102703660046141f1565b61064b565b604080519283526020830191909152015b60405180910390f35b61029761093c565b60405160029190910b8152602001610286565b6102b26109e0565b6040516102869190614279565b6102d26102cd36600461428c565b610a72565b6040519015158152602001610286565b610275610a8c565b6102f3600c5481565b604051908152602001610286565b6102f360075481565b6103317f000000000000000000000000000000000000000000000000000000000000000081565b6040516001600160a01b039091168152602001610286565b61035c6103573660046142c7565b610d70565b005b610366610fad565b6040516102869190614340565b601154610297565b601854601954601a54601b54601c54601d5461039995949392919086565b604080519687526020870195909552938501929092526060840152608083015260a082015260c001610286565b6103317f000000000000000000000000000000000000000000000000000000000000000081565b6002546102f3565b61027561040336600461434e565b6110e3565b610331611b16565b6102d261041e366004614370565b611b87565b6102d27f000000000000000000000000000000000000000000000000000000000000000081565b610275611bad565b60405160128152602001610286565b6102d261046f36600461428c565b611ce6565b6102f3600d5481565b610485611d08565b6040516102869190600061014082019050825182526020830151602083015260408301516040830152606083015160608301526080830151608083015260a083015160a083015260c083015160c083015260e083015160e083015261010080840151818401525061012080840151818401525092915050565b601054610297565b6102f360085481565b6102f361051d3660046141f1565b611dbe565b61035c6105303660046143b1565b61238a565b601554601654610275565b6102f361054e3660046143f4565b6001600160a01b031660009081526020819052604090205490565b6102f3610577366004614411565b6124b7565b6102f360095481565b6102b261259f565b6105956125ae565b6040516102869a9998979695949392919061442a565b6102d26105b936600461428c565b6127eb565b6102d26105cc36600461428c565b612871565b6102f3600b5481565b61033161287f565b6103317f000000000000000000000000000000000000000000000000000000000000000081565b61035c6106173660046144db565b6128f0565b6102f361062a36600461452e565b6129bf565b6102f3600a5481565b61035c6106463660046144db565b6129ea565b600080610656612a8d565b73__$3e2d7ef3939b7294626765a367dfc5fcae$__6392550593600e61072c836348483d176001600160a01b037f0000000000000000000000000000000000000000000000000000000000000000166106ad61287f565b6106b5611b16565b670de0b6b3a76400006040518563ffffffff1660e01b81526004016106dd949392919061455c565b602060405180830381865af41580156106fa573d6000803e3d6000fd5b505050506040513d601f19601f8201168201806040525081019061071e9190614586565b6001600160a01b0316612ae6565b6040516001600160e01b031960e085901b1681526004810192909252602482015260440160006040518083038186803b15801561076857600080fd5b505af415801561077c573d6000803e3d6000fd5b5050505061078984612aee565b6011546010549294509092509060008073__$3e2d7ef3939b7294626765a367dfc5fcae$__63cbbcdf237f00000000000000000000000000000000000000000000000000000000000000006107df87878d612c88565b87873060006040518763ffffffff1660e01b8152600401610805969594939291906145a3565b6040805180830381865af4158015610821573d6000803e3d6000fd5b505050506040513d601f19601f8201168201806040525081019061084591906145e9565b915091507f0000000000000000000000000000000000000000000000000000000000000000156108bc576108798287614623565b95506108858186614623565b945061089c61089383612ae6565b600e5490612d3d565b600e556108b46108ab82612ae6565b600f5490612d3d565b600f556108f3565b6108c68187614623565b95506108d28286614623565b94506108e061089382612ae6565b600e556108ef6108ab83612ae6565b600f555b6108fd3389612d4f565b61091a878761090a61287f565b6001600160a01b03169190612e83565b610927878661090a611b16565b505050506109356001600655565b9250929050565b60405163e8ffd56f60e01b81527f00000000000000000000000000000000000000000000000000000000000000006001600160a01b0316600482015260009073__$3e2d7ef3939b7294626765a367dfc5fcae$__9063e8ffd56f90602401602060405180830381865af41580156109b7573d6000803e3d6000fd5b505050506040513d601f19601f820116820180604052508101906109db919061463b565b905090565b6060600380546109ef90614658565b80601f0160208091040260200160405190810160405280929190818152602001828054610a1b90614658565b8015610a685780601f10610a3d57610100808354040283529160200191610a68565b820191906000526020600020905b815481529060010190602001808311610a4b57829003601f168201915b5050505050905090565b600033610a80818585612ee6565b60019150505b92915050565b6000806000610a9a60115490565b90506000610aa760105490565b90506000610ab58383613002565b5050905060008073__$f74b04122c2dfd4e484a1fbae5c5c2e341$__63c72e160b73__$3e2d7ef3939b7294626765a367dfc5fcae$__63986cfba3610af861093c565b6040516001600160e01b031960e084901b16815260029190910b6004820152602401602060405180830381865af4158015610b37573d6000803e3d6000fd5b505050506040513d601f19601f82011682018060405250810190610b5b9190614586565b60405163986cfba360e01b8152600289900b600482015273__$3e2d7ef3939b7294626765a367dfc5fcae$__9063986cfba390602401602060405180830381865af4158015610bae573d6000803e3d6000fd5b505050506040513d601f19601f82011682018060405250810190610bd29190614586565b60405163986cfba360e01b8152600289900b600482015273__$3e2d7ef3939b7294626765a367dfc5fcae$__9063986cfba390602401602060405180830381865af4158015610c25573d6000803e3d6000fd5b505050506040513d601f19601f82011682018060405250810190610c499190614586565b610c556103e8896146a8565b6040516001600160e01b031960e087901b1681526001600160a01b0394851660048201529284166024840152921660448201526001600160801b0390911660648201526084016040805180830381865af4158015610cb7573d6000803e3d6000fd5b505050506040513d601f19601f82011682018060405250810190610cdb91906145e9565b915091507f0000000000000000000000000000000000000000000000000000000000000000610d1557610d10816103e86146ce565b610d21565b610d21826103e86146ce565b96507f0000000000000000000000000000000000000000000000000000000000000000610d5957610d54826103e86146ce565b610d65565b610d65816103e86146ce565b955050505050509091565b73__$3e2d7ef3939b7294626765a367dfc5fcae$__63af12d5d8600e7f0000000000000000000000000000000000000000000000000000000000000000610db561287f565b610dbd611b16565b6040516001600160e01b031960e087901b16815260048101949094526001600160a01b03928316602485015290821660448401521660648201526084810187905260a48101869052600285900b60c482015260e481018490526101040160006040518083038186803b158015610e3257600080fd5b505af4158015610e46573d6000803e3d6000fd5b505050506000610e54610fad565b600c5460405163db6be7e560e01b815291925073__$3e2d7ef3939b7294626765a367dfc5fcae$__9163db6be7e591610e9491600e9186916004016146ed565b6040805180830381865af4158015610eb0573d6000803e3d6000fd5b505050506040513d601f19601f82011682018060405250810190610ed491906145e9565b60608301526040820152610ee7816130ee565b50506011546010546000610f1e610f0f610f0087612ae6565b610f098b612ae6565b90613294565b610f1889612ae6565b906132a3565b905073__$3e2d7ef3939b7294626765a367dfc5fcae$__6392550593600e610f4588612ae6565b6040516001600160e01b031960e085901b1681526004810192909252602482015260440160006040518083038186803b158015610f8157600080fd5b505af4158015610f95573d6000803e3d6000fd5b50505050610fa333826132b2565b5050505050505050565b610fb5614129565b600080610fc061093c565b9050600073__$3e2d7ef3939b7294626765a367dfc5fcae$__63adb9138c7f000000000000000000000000000000000000000000000000000000000000000061100761287f565b61100f611b16565b60405160e085901b6001600160e01b03191681526001600160a01b03938416600482015291831660248301529091166044820152600285900b6064820152608401602060405180830381865af415801561106d573d6000803e3d6000fd5b505050506040513d601f19601f820116820180604052508101906110919190614586565b6001600160a01b031690506040518060c001604052808481526020018481526020018481526020018481526020016110c883612ae6565b81526020016110d98460020b612ae6565b9052949350505050565b6000806110ee612a8d565b6110f883856146ce565b1561112e5760405162461bcd60e51b81526020600482015260016024820152606160f81b60448201526064015b60405180910390fd5b73__$3e2d7ef3939b7294626765a367dfc5fcae$__6392550593600e611185836348483d176001600160a01b037f0000000000000000000000000000000000000000000000000000000000000000166106ad61287f565b6040516001600160e01b031960e085901b1681526004810192909252602482015260440160006040518083038186803b1580156111c157600080fd5b505af41580156111d5573d6000803e3d6000fd5b5050505060006111e3610fad565b90506111ed61415f565b60006040518060a0016040528061120389612ae6565b815260200161121188612ae6565b8152602001600a5481526020016007548152602001600954815250905073__$3e2d7ef3939b7294626765a367dfc5fcae$__631fdc090c83836040518363ffffffff1660e01b81526004016112679291906147bf565b6101e060405180830381865af4158015611285573d6000803e3d6000fd5b505050506040513d601f19601f820116820180604052508101906112a99190614953565b91506112b58383613371565b50600087116112f8576112f37f00000000000000000000000000000000000000000000000000000000000000006001600160a01b031633308961368e565b61132d565b61132d7f00000000000000000000000000000000000000000000000000000000000000006001600160a01b031633308a61368e565b6113388282856136cc565b9150816101c0015115611611577f00000000000000000000000000000000000000000000000000000000000000006001600160a01b031663128acb0830846101a00151856101a0015161138b578961138d565b8a5b866101a001516113bb576113b6600173fffd8963efd1fc6a506488495d951d5263988d26614970565b6113cb565b6113cb6401000276a36001614998565b60408051306020820152016040516020818303038152906040526040518663ffffffff1660e01b81526004016114059594939291906149c3565b60408051808303816000875af1158015611423573d6000803e3d6000fd5b505050506040513d601f19601f8201168201806040525081019061144791906145e9565b6101608401526101408301526040516322996f4f60e11b8152600e600482015273__$3e2d7ef3939b7294626765a367dfc5fcae$__90634532de9e9060240160006040518083038186803b15801561149e57600080fd5b505af41580156114b2573d6000803e3d6000fd5b50505050816101a001511561155f5761016082015160405163a9059cbb60e01b815233600482015260248101919091527f00000000000000000000000000000000000000000000000000000000000000006001600160a01b03169063a9059cbb906044016020604051808303816000875af1158015611535573d6000803e3d6000fd5b505050506040513d601f19601f8201168201806040525081019061155991906149fe565b506115f9565b61014082015160405163a9059cbb60e01b815233600482015260248101919091527f00000000000000000000000000000000000000000000000000000000000000006001600160a01b03169063a9059cbb906044016020604051808303816000875af11580156115d3573d6000803e3d6000fd5b505050506040513d601f19601f820116820180604052508101906115f791906149fe565b505b81610140015182610160015194509450505050611b0c565b7f00000000000000000000000000000000000000000000000000000000000000006001600160a01b031663128acb0830846101a00151856101a0015161165b57856020015161165e565b85515b866101a0015161168c57611687600173fffd8963efd1fc6a506488495d951d5263988d26614970565b61169c565b61169c6401000276a36001614998565b60408051306020820152016040516020818303038152906040526040518663ffffffff1660e01b81526004016116d69594939291906149c3565b60408051808303816000875af11580156116f4573d6000803e3d6000fd5b505050506040513d601f19601f8201168201806040525081019061171891906145e9565b61016084015261014083015273__$3e2d7ef3939b7294626765a367dfc5fcae$__6348483d176001600160a01b037f00000000000000000000000000000000000000000000000000000000000000001661177061287f565b611778611b16565b670de0b6b3a76400006040518563ffffffff1660e01b81526004016117a0949392919061455c565b602060405180830381865af41580156117bd573d6000803e3d6000fd5b505050506040513d601f19601f820116820180604052508101906117e19190614586565b604051631992ba2d60e21b81526001600160a01b03909116600482015273__$3e2d7ef3939b7294626765a367dfc5fcae$__9063664ae8b490602401602060405180830381865af415801561183a573d6000803e3d6000fd5b505050506040513d601f19601f8201168201806040525081019061185e9190614586565b6001600160a01b03166101808301526101a08201511561197f576000611888836101800151612ae6565b604084015190915061189a9082613294565b60e0840181905261016084015173__$3e2d7ef3939b7294626765a367dfc5fcae$__91637ae2b5c7916118d19190610f1890612ae6565b60a08601516040516001600160e01b031960e085901b16815260048101929092526024820152604401602060405180830381865af4158015611917573d6000803e3d6000fd5b505050506040513d601f19601f8201168201806040525081019061193b9190614a19565b6101208401819052611979906001600160a01b037f000000000000000000000000000000000000000000000000000000000000000016903390612e83565b50611af8565b6000611a05611992846101800151612ae6565b73__$3e2d7ef3939b7294626765a367dfc5fcae$__63901717d16040518163ffffffff1660e01b8152600401602060405180830381865af41580156119db573d6000803e3d6000fd5b505050506040513d601f19601f820116820180604052508101906119ff9190614a19565b90613a41565b6040840151909150611a179082613a41565b60c0840181905261014084015173__$3e2d7ef3939b7294626765a367dfc5fcae$__91637ae2b5c791611a4e9190610f1890612ae6565b60808601516040516001600160e01b031960e085901b16815260048101929092526024820152604401602060405180830381865af4158015611a94573d6000803e3d6000fd5b505050506040513d601f19601f82011682018060405250810190611ab89190614a19565b6101008401819052611af6906001600160a01b037f000000000000000000000000000000000000000000000000000000000000000016903390612e83565b505b816101000151826101200151945094505050505b6109356001600655565b60007f0000000000000000000000000000000000000000000000000000000000000000611b6257507f000000000000000000000000000000000000000000000000000000000000000090565b507f000000000000000000000000000000000000000000000000000000000000000090565b600033611b95858285613a59565b611ba0858585613acd565b60019150505b9392505050565b6015546040516370a0823160e01b815230600482015260009182917f00000000000000000000000000000000000000000000000000000000000000006001600160a01b0316906370a0823190602401602060405180830381865afa158015611c19573d6000803e3d6000fd5b505050506040513d601f19601f82011682018060405250810190611c3d9190614a19565b611c479190614a32565b6016546040516370a0823160e01b8152306004820152919350907f00000000000000000000000000000000000000000000000000000000000000006001600160a01b0316906370a0823190602401602060405180830381865afa158015611cb2573d6000803e3d6000fd5b505050506040513d601f19601f82011682018060405250810190611cd69190614a19565b611ce09190614a32565b90509091565b600033610a80818585611cf983836129bf565b611d039190614623565b612ee6565b611d5e604051806101400160405280600081526020016000815260200160008152602001600081526020016000815260200160008152602001600081526020016000815260200160008152602001600081525090565b506040805161014081018252600e548152600f546020820152601054918101919091526011546060820152601254608082015260135460a082015260145460c082015260155460e082015260165461010082015260175461012082015290565b6000611dc8612a8d565b6000611e1973__$3e2d7ef3939b7294626765a367dfc5fcae$__6348483d176001600160a01b037f0000000000000000000000000000000000000000000000000000000000000000166106ad61287f565b90506000611f0773__$3e2d7ef3939b7294626765a367dfc5fcae$__63ee89e3d26001600160a01b037f000000000000000000000000000000000000000000000000000000000000000016611e6c61287f565b611e74611b16565b60405160e085901b6001600160e01b03191681526001600160a01b0393841660048201529183166024830152909116604482015261012c6064820152670de0b6b3a7640000608482015260a401602060405180830381865af4158015611ede573d6000803e3d6000fd5b505050506040513d601f19601f82011682018060405250810190611f029190614a19565b612ae6565b604051637ae2b5c760e01b8152600481018490526024810182905290915060009073__$3e2d7ef3939b7294626765a367dfc5fcae$__90637ae2b5c790604401602060405180830381865af4158015611f64573d6000803e3d6000fd5b505050506040513d601f19601f82011682018060405250810190611f889190614a19565b90506000611fb2611fa168056bc75e2d63100000612ae6565b6119ff674563918244f40000612ae6565b90506000611fcb611fc289612ae6565b600b5490613294565b90506000611fe282611fdc8b612ae6565b90612d3d565b601254909150600090851161200357601254611ffe9086612d3d565b612011565b601254612011908690612d3d565b90506120a161208f73__$3e2d7ef3939b7294626765a367dfc5fcae$__635fdf05d76040518163ffffffff1660e01b8152600401602060405180830381865af4158015612062573d6000803e3d6000fd5b505050506040513d601f19601f820116820180604052508101906120869190614a19565b600a5490613294565b60125461209d908490613a41565b1190565b156120d25760405162461bcd60e51b81526020600482015260016024820152606d60f81b6044820152606401611125565b60006120e76120e08c612ae6565b8790613294565b9050600061217e612177611f0273__$3e2d7ef3939b7294626765a367dfc5fcae$__636d5433e68d8d6040518363ffffffff1660e01b8152600401612136929190918252602082015260400190565b602060405180830381865af4158015612153573d6000803e3d6000fd5b505050506040513d601f19601f820116820180604052508101906105779190614a19565b8390613a41565b90507f0000000000000000000000000000000000000000000000000000000000000000156121cc576015546121b4908690614623565b601555600e546121c490856132a3565b600e556121ee565b6016546121da908690614623565b601655600f546121ea90856132a3565b600f555b61220d33308e6121fc61287f565b6001600160a01b031692919061368e565b600061221f82610f09611f0260025490565b9050809a5061222e8c8c6132b2565b60175461225c90612255906122439043614a32565b611f0290670de0b6b3a76400006146ce565b6007541090565b1561230c57600061226b610fad565b600c5460405163db6be7e560e01b815291925073__$3e2d7ef3939b7294626765a367dfc5fcae$__9163db6be7e5916122ab91600e9186916004016146ed565b6040805180830381865af41580156122c7573d6000803e3d6000fd5b505050506040513d601f19601f820116820180604052508101906122eb91906145e9565b606083015260408201526122fd613c71565b5050612308816130ee565b5050505b604051639255059360e01b8152600e6004820152602481018b905273__$3e2d7ef3939b7294626765a367dfc5fcae$__9063925505939060440160006040518083038186803b15801561235e57600080fd5b505af4158015612372573d6000803e3d6000fd5b5050505050505050505050505050610a866001600655565b600554610100900460ff16158080156123aa5750600554600160ff909116105b806123c45750303b1580156123c4575060055460ff166001145b6124275760405162461bcd60e51b815260206004820152602e60248201527f496e697469616c697a61626c653a20636f6e747261637420697320616c72656160448201526d191e481a5b9a5d1a585b1a5e995960921b6064820152608401611125565b6005805460ff19166001179055801561244a576005805461ff0019166101001790555b600787905560088690556009859055600b849055600c839055600d82905580156124ae576005805461ff0019169055604051600181527f7f26b83ff96e1f2b6a682f133852f6798a09c465da95921460cefb38474024989060200160405180910390a15b50505050505050565b60008060008060006124c7610a8c565b915091506000806124db6015546016549091565b915091506000806124ea611bad565b915091507f000000000000000000000000000000000000000000000000000000000000000015612547578561251f8386614623565b6125299190614623565b9750846125368285614623565b6125409190614623565b9650612576565b856125528285614623565b61255c9190614623565b9750846125698386614623565b6125739190614623565b96505b6000612584610f008c612ae6565b90506125908882614623565b9b9a5050505050505050505050565b6060600480546109ef90614658565b6125b6614129565b60008060008060008060008060006125cd60115490565b96506125d860105490565b95506125e2610fad565b995073__$3e2d7ef3939b7294626765a367dfc5fcae$__6348483d176001600160a01b037f00000000000000000000000000000000000000000000000000000000000000001661263061287f565b612638611b16565b60016040518563ffffffff1660e01b8152600401612659949392919061455c565b602060405180830381865af4158015612676573d6000803e3d6000fd5b505050506040513d601f19601f8201168201806040525081019061269a9190614586565b6001600160a01b031698506126ad61093c565b601354601454919950955093506126c48787613002565b5090935073__$3e2d7ef3939b7294626765a367dfc5fcae$__905063986cfba36126ec61093c565b6040516001600160e01b031960e084901b16815260029190910b6004820152602401602060405180830381865af415801561272b573d6000803e3d6000fd5b505050506040513d601f19601f8201168201806040525081019061274f9190614586565b60405163986cfba360e01b8152600288900b60048201526001600160a01b0391909116925073__$3e2d7ef3939b7294626765a367dfc5fcae$__9063986cfba390602401602060405180830381865af41580156127b0573d6000803e3d6000fd5b505050506040513d601f19601f820116820180604052508101906127d49190614586565b6001600160a01b0316905090919293949596979899565b600033816127f982866129bf565b9050838110156128595760405162461bcd60e51b815260206004820152602560248201527f45524332303a2064656372656173656420616c6c6f77616e63652062656c6f77604482015264207a65726f60d81b6064820152608401611125565b6128668286868403612ee6565b506001949350505050565b600033610a80818585613acd565b60007f00000000000000000000000000000000000000000000000000000000000000006128cb57507f000000000000000000000000000000000000000000000000000000000000000090565b507f000000000000000000000000000000000000000000000000000000000000000090565b6040516303ecbeab60e41b815273__$3e2d7ef3939b7294626765a367dfc5fcae$__90633ecbeab090612993907f0000000000000000000000000000000000000000000000000000000000000000907f0000000000000000000000000000000000000000000000000000000000000000907f0000000000000000000000000000000000000000000000000000000000000000908a908a908a908a90600401614a72565b60006040518083038186803b1580156129ab57600080fd5b505af4158015610fa3573d6000803e3d6000fd5b6001600160a01b03918216600090815260016020908152604080832093909416825291909152205490565b60405163630f9b0d60e11b815273__$3e2d7ef3939b7294626765a367dfc5fcae$__9063c61f361a90612993907f0000000000000000000000000000000000000000000000000000000000000000907f0000000000000000000000000000000000000000000000000000000000000000907f0000000000000000000000000000000000000000000000000000000000000000908a908a908a908a90600401614a72565b600260065403612adf5760405162461bcd60e51b815260206004820152601f60248201527f5265656e7472616e637947756172643a207265656e7472616e742063616c6c006044820152606401611125565b6002600655565b600081610a86565b6000806000612afc60025490565b9050600080612b0e6015546016549091565b91509150600080612b1d611bad565b9092509050600085612b2f868b6146ce565b612b399190614ac2565b9050600086612b48868c6146ce565b612b529190614ac2565b9050600087612b61868d6146ce565b612b6b9190614ac2565b9050600088612b7a868e6146ce565b612b849190614ac2565b905083600e6007016000828254612b9b9190614a32565b909155505060168054849190600090612bb5908490614a32565b90915550507f000000000000000000000000000000000000000000000000000000000000000015612c2f57612bea8285614623565b612bf4908c614623565b9a50612c008184614623565b612c0a908b614623565b9950612c1861089383612ae6565b600e55612c276108ab82612ae6565b600f55612c7a565b612c398184614623565b612c43908c614623565b9a50612c4f8285614623565b612c59908b614623565b9950612c6761089382612ae6565b600e55612c766108ab83612ae6565b600f555b505050505050505050915091565b600080612c958585613002565b50509050612ca260025490565b612cb5846001600160801b0384166146ce565b612cbf9190614ac2565b60405163445bbfd760e11b8152600481019190915273__$3e2d7ef3939b7294626765a367dfc5fcae$__906388b77fae90602401602060405180830381865af4158015612d10573d6000803e3d6000fd5b505050506040513d601f19601f82011682018060405250810190612d349190614aed565b95945050505050565b6000611ba6612d4c8385614a32565b90565b6001600160a01b038216612daf5760405162461bcd60e51b815260206004820152602160248201527f45524332303a206275726e2066726f6d20746865207a65726f206164647265736044820152607360f81b6064820152608401611125565b6001600160a01b03821660009081526020819052604090205481811015612e235760405162461bcd60e51b815260206004820152602260248201527f45524332303a206275726e20616d6f756e7420657863656564732062616c616e604482015261636560f01b6064820152608401611125565b6001600160a01b0383166000818152602081815260408083208686039055600280548790039055518581529192917fddf252ad1be2c89b69c2b068fc378daa952ba7f163c4a11628f55a4df523b3ef91015b60405180910390a35b505050565b6040516001600160a01b038316602482015260448101829052612e7e90849063a9059cbb60e01b906064015b60408051601f198184030181529190526020810180516001600160e01b03166001600160e01b031990931692909217909152613d3f565b6001600160a01b038316612f485760405162461bcd60e51b8152602060048201526024808201527f45524332303a20617070726f76652066726f6d20746865207a65726f206164646044820152637265737360e01b6064820152608401611125565b6001600160a01b038216612fa95760405162461bcd60e51b815260206004820152602260248201527f45524332303a20617070726f766520746f20746865207a65726f206164647265604482015261737360f01b6064820152608401611125565b6001600160a01b0383811660008181526001602090815260408083209487168084529482529182902085905590518481527f8c5be1e5ebec7d5bd14f71427d1e84f3dd0314c0f7b2291e5b200ac8c7c3b9259101612e75565b6040516bffffffffffffffffffffffff193060601b16602082015260e883811b603483015282901b6037820152600090819081908190603a0160408051808303601f1901815290829052805160209091012063514ea4bf60e01b82526004820181905291507f00000000000000000000000000000000000000000000000000000000000000006001600160a01b03169063514ea4bf9060240160a060405180830381865afa1580156130b8573d6000803e3d6000fd5b505050506040513d601f19601f820116820180604052508101906130dc9190614b08565b939a9099509297509195505050505050565b601154601054604083810151606085015191516317d2d55760e11b81527f00000000000000000000000000000000000000000000000000000000000000006001600160a01b03166004820152600285810b602483015284900b60448201526064810191909152608481019190915260009283929091839073__$3e2d7ef3939b7294626765a367dfc5fcae$__90632fa5aaae9060a401602060405180830381865af41580156131a1573d6000803e3d6000fd5b505050506040513d601f19601f820116820180604052508101906131c59190614aed565b6040516328fe753560e01b81526001600160a01b037f0000000000000000000000000000000000000000000000000000000000000000166004820152600285810b602483015284900b60448201526001600160801b039190911660648201819052915073__$3e2d7ef3939b7294626765a367dfc5fcae$__906328fe7535906084016040805180830381865af4158015613263573d6000803e3d6000fd5b505050506040513d601f19601f8201168201806040525081019061328791906145e9565b9097909650945050505050565b6000611ba6612d4c8484613e11565b6000611ba6612d4c8385614623565b6001600160a01b0382166133085760405162461bcd60e51b815260206004820152601f60248201527f45524332303a206d696e7420746f20746865207a65726f2061646472657373006044820152606401611125565b806002600082825461331a9190614623565b90915550506001600160a01b038216600081815260208181526040808320805486019055518481527fddf252ad1be2c89b69c2b068fc378daa952ba7f163c4a11628f55a4df523b3ef910160405180910390a35050565b613379614129565b600854604051632e24912960e01b8152600091829173__$3e2d7ef3939b7294626765a367dfc5fcae$__91632e249129916133bc91600e918a91906004016146ed565b6040805180830381865af41580156133d8573d6000803e3d6000fd5b505050506040513d601f19601f820116820180604052508101906133fc91906145e9565b601154919350915082141580156134155750836101a001515b1561345d57600080613425613c71565b6011869055909250905061343882612ae6565b604088015261344681612ae6565b6060880152613454876130ee565b505050506135d7565b60105481141580156134725750836101a00151155b1561349557600080613482613c71565b6010859055909250905061343882612ae6565b6017546134aa9061225590611f029043614a32565b156135d757600c5460405163db6be7e560e01b815273__$3e2d7ef3939b7294626765a367dfc5fcae$__9163db6be7e5916134ed91600e918a91906004016146ed565b6040805180830381865af4158015613509573d6000803e3d6000fd5b505050506040513d601f19601f8201168201806040525081019061352d91906145e9565b6060870152604080870191909152600c54600d54915163f599848160e01b815273__$3e2d7ef3939b7294626765a367dfc5fcae$__9263f59984819261357b92600e928b9291600401614b5f565b602060405180830381865af4158015613598573d6000803e3d6000fd5b505050506040513d601f19601f820116820180604052508101906135bc91906149fe565b156135d7576135c9613c71565b50506135d4856130ee565b50505b6000806135e2610a8c565b915091506135ef82612ae6565b60408801526135fd81612ae6565b606088015260405163ae788ecf60e01b815273__$3e2d7ef3939b7294626765a367dfc5fcae$__9063ae788ecf9061363c90600e908b90600401614b87565b6040805180830381865af4158015613658573d6000803e3d6000fd5b505050506040513d601f19601f8201168201806040525081019061367c91906145e9565b60208901528752509495945050505050565b6040516001600160a01b03808516602483015283166044820152606481018290526136c69085906323b872dd60e01b90608401612eaf565b50505050565b6136d461415f565b61372a604051806101400160405280600081526020016000815260200160008152602001600081526020016000815260200160008152602001600081526020016000815260200160008152602001600081525090565b60405163b27aab6760e01b815273__$3e2d7ef3939b7294626765a367dfc5fcae$__9063b27aab679061376590889085908990600401614c01565b61032060405180830381865af4158015613783573d6000803e3d6000fd5b505050506040513d601f19601f820116820180604052508101906137a79190614c57565b604051624956b760e91b8152919650915073__$3e2d7ef3939b7294626765a367dfc5fcae$__906392ad6e00906137e990600e90899086908a90600401614d0a565b61032060405180830381865af4158015613807573d6000803e3d6000fd5b505050506040513d601f19601f8201168201806040525081019061382b9190614c57565b604051632a2a95b960e11b8152919650915073__$3e2d7ef3939b7294626765a367dfc5fcae$__906354552b729061386e90600e9087908a908790600401614d6a565b61032060405180830381865af415801561388c573d6000803e3d6000fd5b505050506040513d601f19601f820116820180604052508101906138b09190614c57565b6040516334403bfd60e11b8152919650915073__$3e2d7ef3939b7294626765a367dfc5fcae$__9063688077fa906138ee9088908590600401614d9a565b61032060405180830381865af415801561390c573d6000803e3d6000fd5b505050506040513d601f19601f820116820180604052508101906139309190614c57565b604051633ef8e5ff60e11b8152919650915073__$3e2d7ef3939b7294626765a367dfc5fcae$__90637df1cbfe9061397390600e90899086908a90600401614d0a565b61032060405180830381865af4158015613991573d6000803e3d6000fd5b505050506040513d601f19601f820116820180604052508101906139b59190614c57565b60405163e92ceeb960e01b8152919650915073__$3e2d7ef3939b7294626765a367dfc5fcae$__9063e92ceeb9906139f590869089908690600401614db7565b61032060405180830381865af4158015613a13573d6000803e3d6000fd5b505050506040513d601f19601f82011682018060405250810190613a379190614c57565b5095945050505050565b6000611ba6612d4c84670de0b6b3a764000085613ec5565b6000613a6584846129bf565b905060001981146136c65781811015613ac05760405162461bcd60e51b815260206004820152601d60248201527f45524332303a20696e73756666696369656e7420616c6c6f77616e63650000006044820152606401611125565b6136c68484848403612ee6565b6001600160a01b038316613b315760405162461bcd60e51b815260206004820152602560248201527f45524332303a207472616e736665722066726f6d20746865207a65726f206164604482015264647265737360d81b6064820152608401611125565b6001600160a01b038216613b935760405162461bcd60e51b815260206004820152602360248201527f45524332303a207472616e7366657220746f20746865207a65726f206164647260448201526265737360e81b6064820152608401611125565b6001600160a01b03831660009081526020819052604090205481811015613c0b5760405162461bcd60e51b815260206004820152602660248201527f45524332303a207472616e7366657220616d6f756e7420657863656564732062604482015265616c616e636560d01b6064820152608401611125565b6001600160a01b03848116600081815260208181526040808320878703905593871680835291849020805487019055925185815290927fddf252ad1be2c89b69c2b068fc378daa952ba7f163c4a11628f55a4df523b3ef910160405180910390a36136c6565b6000806000613c8a600e60030154600e60020154613002565b505060115460105460405163cbbcdf2360e01b815292935073__$3e2d7ef3939b7294626765a367dfc5fcae$__9263cbbcdf2392613cf5927f0000000000000000000000000000000000000000000000000000000000000000928792919030906001906004016145a3565b6040805180830381865af4158015613d11573d6000803e3d6000fd5b505050506040513d601f19601f82011682018060405250810190613d3591906145e9565b9094909350915050565b6000613d94826040518060400160405280602081526020017f5361666545524332303a206c6f772d6c6576656c2063616c6c206661696c6564815250856001600160a01b0316613f999092919063ffffffff16565b805190915015612e7e5780806020019051810190613db291906149fe565b612e7e5760405162461bcd60e51b815260206004820152602a60248201527f5361666545524332303a204552433230206f7065726174696f6e20646964206e6044820152691bdd081cdd58d8d9595960b21b6064820152608401611125565b60008080600019848609848602925082811083820303915050670de0b6b3a76400008110613e5c57604051635173648d60e01b81526004810186905260248101859052604401611125565b6000670de0b6b3a7640000858709905081600003613e88575050670de0b6b3a764000090049050610a86565b620400008184030492109003600160ee1b02177faccb18165bd6fe31ae1cf318dc5b51eee0e1ba569b88cd74c1773b91fac1066902905092915050565b6000808060001985870985870292508281108382030391505080600003613eff57838281613ef557613ef5614692565b0492505050611ba6565b838110613f3057604051630c740aef60e31b8152600481018790526024810186905260448101859052606401611125565b60008486880960026001871981018816978890046003810283188082028403028082028403028082028403028082028403028082028403029081029092039091026000889003889004909101858311909403939093029303949094049190911702949350505050565b6060613fa88484600085613fb0565b949350505050565b6060824710156140115760405162461bcd60e51b815260206004820152602660248201527f416464726573733a20696e73756666696369656e742062616c616e636520666f6044820152651c8818d85b1b60d21b6064820152608401611125565b600080866001600160a01b0316858760405161402d9190614de1565b60006040518083038185875af1925050503d806000811461406a576040519150601f19603f3d011682016040523d82523d6000602084013e61406f565b606091505b50915091506140808783838761408b565b979650505050505050565b606083156140fa5782516000036140f3576001600160a01b0385163b6140f35760405162461bcd60e51b815260206004820152601d60248201527f416464726573733a2063616c6c20746f206e6f6e2d636f6e74726163740000006044820152606401611125565b5081613fa8565b613fa8838381511561410f5781518083602001fd5b8060405162461bcd60e51b81526004016111259190614279565b6040518060c001604052806000815260200160008152602001600081526020016000815260200160008152602001600081525090565b604051806101e00160405280600081526020016000815260200160008152602001600081526020016000815260200160008152602001600081526020016000815260200160008152602001600081526020016000815260200160008152602001600081526020016000151581526020016000151581525090565b6001600160a01b03811681146141ee57600080fd5b50565b6000806040838503121561420457600080fd5b823591506020830135614216816141d9565b809150509250929050565b60005b8381101561423c578181015183820152602001614224565b838111156136c65750506000910152565b60008151808452614265816020860160208601614221565b601f01601f19169290920160200192915050565b602081526000611ba6602083018461424d565b6000806040838503121561429f57600080fd5b82356142aa816141d9565b946020939093013593505050565b8060020b81146141ee57600080fd5b600080600080608085870312156142dd57600080fd5b843593506020850135925060408501356142f6816142b8565b9396929550929360600135925050565b805182526020810151602083015260408101516040830152606081015160608301526080810151608083015260a081015160a08301525050565b60c08101610a868284614306565b6000806040838503121561436157600080fd5b50508035926020909101359150565b60008060006060848603121561438557600080fd5b8335614390816141d9565b925060208401356143a0816141d9565b929592945050506040919091013590565b60008060008060008060c087890312156143ca57600080fd5b505084359660208601359650604086013595606081013595506080810135945060a0013592509050565b60006020828403121561440657600080fd5b8135611ba6816141d9565b60006020828403121561442357600080fd5b5035919050565b6101e08101614439828d614306565b60c082019a909a52600298890b60e082015296880b6101008801529490960b6101208601526001600160a01b0392831661014086015291166101608401526001600160801b03166101808301526101a08201929092526101c00152919050565b60008083601f8401126144ab57600080fd5b50813567ffffffffffffffff8111156144c357600080fd5b60208301915083602082850101111561093557600080fd5b600080600080606085870312156144f157600080fd5b8435935060208501359250604085013567ffffffffffffffff81111561451657600080fd5b61452287828801614499565b95989497509550505050565b6000806040838503121561454157600080fd5b823561454c816141d9565b91506020830135614216816141d9565b6001600160a01b039485168152928416602084015292166040820152606081019190915260800190565b60006020828403121561459857600080fd5b8151611ba6816141d9565b6001600160a01b0396871681526001600160801b03959095166020860152600293840b60408601529190920b60608401529216608082015290151560a082015260c00190565b600080604083850312156145fc57600080fd5b505080516020909101519092909150565b634e487b7160e01b600052601160045260246000fd5b600082198211156146365761463661460d565b500190565b60006020828403121561464d57600080fd5b8151611ba6816142b8565b600181811c9082168061466c57607f821691505b60208210810361468c57634e487b7160e01b600052602260045260246000fd5b50919050565b634e487b7160e01b600052601260045260246000fd5b60006001600160801b03808416806146c2576146c2614692565b92169190910492915050565b60008160001904831182151516156146e8576146e861460d565b500290565b83815261010081016147026020830185614306565b8260e0830152949350505050565b805182526020810151602083015260408101516040830152606081015160608301526080810151608083015260a081015160a083015260c081015160c083015260e081015160e08301526101008082015181840152506101208082015181840152506101408082015181840152506101608082015181840152506101808082015181840152506101a0808201516147aa8285018215159052565b50506101c081810151801515848301526136c6565b61028081016147ce8285614710565b82516101e08301526020830151610200830152604083015161022083015260608301516102408301526080830151610260830152611ba6565b6040516101e0810167ffffffffffffffff8111828210171561483957634e487b7160e01b600052604160045260246000fd5b60405290565b604051610140810167ffffffffffffffff8111828210171561483957634e487b7160e01b600052604160045260246000fd5b8051801515811461488157600080fd5b919050565b60006101e0828403121561489957600080fd5b6148a1614807565b9050815181526020820151602082015260408201516040820152606082015160608201526080820151608082015260a082015160a082015260c082015160c082015260e082015160e08201526101008083015181830152506101208083015181830152506101408083015181830152506101608083015181830152506101808083015181830152506101a0614937818401614871565b908201526101c0614949838201614871565b9082015292915050565b60006101e0828403121561496657600080fd5b611ba68383614886565b60006001600160a01b03838116908316818110156149905761499061460d565b039392505050565b60006001600160a01b038281168482168083038211156149ba576149ba61460d565b01949350505050565b6001600160a01b0386811682528515156020830152604082018590528316606082015260a0608082018190526000906140809083018461424d565b600060208284031215614a1057600080fd5b611ba682614871565b600060208284031215614a2b57600080fd5b5051919050565b600082821015614a4457614a4461460d565b500390565b81835281816020850137506000828201602090810191909152601f909101601f19169091010190565b6001600160a01b038881168252878116602083015286166040820152606081018590526080810184905260c060a08201819052600090614ab59083018486614a49565b9998505050505050505050565b600082614ad157614ad1614692565b500490565b80516001600160801b038116811461488157600080fd5b600060208284031215614aff57600080fd5b611ba682614ad6565b600080600080600060a08688031215614b2057600080fd5b614b2986614ad6565b94506020860151935060408601519250614b4560608701614ad6565b9150614b5360808701614ad6565b90509295509295909350565b8481526101208101614b746020830186614306565b60e0820193909352610100015292915050565b82815260e08101611ba66020830184614306565b805182526020810151602083015260408101516040830152606081015160608301526080810151608083015260a081015160a083015260c081015160c083015260e081015160e08301526101008082015181840152506101208082015181840152505050565b6103c08101614c108286614710565b614c1e6101e0830185614b9b565b825161032083015260208301516103408301526040830151610360830152606083015161038083015260808301516103a0830152613fa8565b600080828403610320811215614c6c57600080fd5b614c768585614886565b92506101406101df1982011215614c8c57600080fd5b50614c9561483f565b6101e08401518152610200840151602082015261022084015160408201526102408401516060820152610260840151608082015261028084015160a08201526102a084015160c08201526102c084015160e08201526102e0840151610100820152610300909301516101208401525092909150565b8481526103e08101614d1f6020830186614710565b614d2d610200830185614b9b565b82516103408301526020830151610360830152604083015161038083015260608301516103a083015260808301516103c083015295945050505050565b8481526104008101614d7f6020830186614306565b614d8c60e0830185614710565b612d346102c0830184614b9b565b6103208101614da98285614710565b611ba66101e0830184614b9b565b6103e08101614dc68286614306565b614dd360c0830185614710565b613fa86102a0830184614b9b565b60008251614df3818460208701614221565b919091019291505056fea164736f6c634300080e000aa164736f6c634300080e000a",
  "libraries": {
    "SoloMath": "0x45540e7ac63DA89B653C1c8192f69D3a731eeeaE",
    "SoloUV3Math": "0xeD2d5EB3fbcDdF4e2e972F8C6CF37EffB7851d52"
  },
  "devdoc": {
    "kind": "dev",
    "methods": {},
    "version": 1
  },
  "userdoc": {
    "kind": "user",
    "methods": {},
    "version": 1
  },
  "storageLayout": {
    "storage": [
      {
        "astId": 17669,
        "contract": "contracts/solo/SoloFactory.sol:SoloFactory",
        "label": "deployedPools",
        "offset": 0,
        "slot": "0",
        "type": "t_array(t_address)dyn_storage"
      }
    ],
    "types": {
      "t_address": {
        "encoding": "inplace",
        "label": "address",
        "numberOfBytes": "20"
      },
      "t_array(t_address)dyn_storage": {
        "base": "t_address",
        "encoding": "dynamic_array",
        "label": "address[]",
        "numberOfBytes": "32"
      }
    }
  }
}